:100000000201DA75F008758200EF2FFFEE33FECDA6
:1000100033CDCC33CCC58233C5829BED9AEC99E5C8
:100020008298400CF582EE9BFEED9AFDEC99FC0F58
:10003000D5F0D6E4CEFBE4CDFAE4CCF9A88222B820
:1000400000C1B90059BA002DEC8BF084CFCECDFCA5
:10005000E5F0CBF97818EF2FFFEE33FEED33FDEC32
:1000600033FCEB33FB10D703994004EB99FB0FD81B
:10007000E5E4F9FA227818EF2FFFEE33FEED33FDB9
:10008000EC33FCC933C910D7059BE99A4007EC9BB8
:10009000FCE99AF90FD8E0E4C9FAE4CCFB2275F048
:1000A00010EF2FFFEE33FEED33FDCC33CCC833C859
:1000B00010D7079BEC9AE899400AED9BFDEC9AFC5F
:1000C000E899F80FD5F0DAE4CDFBE4CCFAE4C8F90E
:1000D00022E8600FECC313FCED13FDEE13FEEF13EB
:1000E000FFD8F122ECF0A3EDF0A3EEF0A3EFF022A5
:1000F000A8828583F0D083D08212010712010712F3
:100100000107120107E473E493A3C583C5F0C58317
:10011000C8C582C8F0A3C583C5F0C583C8C582C859
:1001200022D2C5C2C330C3FDAEBDEE640860031267
:10013000021FC2C575BCA5C2C330C3FDAEBDEE640F
:1001400040600312021FE4FEEEC3940A74809480A0
:10015000501FD2C2C2C330C3FDADBDED64506003B9
:1001600012021FE5BC6F600312021FEFF4FF0E8046
:10017000D7C2C2C2C330C3FDAFBDEF645860031223
:10018000021FD2C4C2C320C4FD22D2C5C2C330C321
:10019000FDAEBDEE6408600312021FC2C575BCA4AB
:1001A000C2C330C3FDAEBDEE6418600312021FE48B
:1001B000FEEEC3940A7480948050178FBCC2C33083
:1001C000C3FDADBDED6428600312021FEFF4FF0E06
:1001D00080DFD2C4C2C320C4FD2275C7AA75C7552B
:1001E00075FD5A787FE4F6D8FD9000007FFF7E030E
:1001F000E4F0A3DFFCDEFA75812002020F43B308AE
:1002000043B40843B31043B41075BE0DD2C62212D6
:1002100001FD7F5512018A7F5512012180FE228047
:02022000FE22BC
:00000001FF
