:10000000020B7EE5082403F582E43400F583E00565
:100010000822900000300703900003E475F00112FD
:1000200005800205282000E97F2ED2008018EF54B9
:100030000F2490D43440D4FF30040BEF24BFB41A03
:100040000050032461FFE50960021509050CE50C69
:100050007002050B30070E900000E475F0011205E8
:1000600080EF02056E020B577403D2078003E4C2CF
:1000700007F508900000120597E4F509F50BF50C5B
:10008000E50960077F2012004680F5750AFFC2016E
:10009000C200C202C203C205C206C208120012FF99
:1000A000700D3007057F00120057AF0CAE0B22B465
:1000B000255FC2D5C204120012FF24D0B40A00503A
:1000C0001A75F00A780930D50508B6FF0106C6A4EE
:1000D00026F620D5047002D20380D924CFB41A00AA
:1000E000EF5004C2E5D204020258D20180C6D20009
:1000F00080C0D20280BCD2D580BAD20580B47F2025
:100100001200462002077401B5090040F1120003F5
:10011000FF120046020080D208D20680951200032A
:10012000FB120003FA120003F94A4B700679297A90
:10013000037BFF20022EE509602A7E008E827583F4
:100140000012054160060EEE650A70F0C2D5EBC0E4
:10015000E0EAC0E0E9C0E0EE12029FD0E0F9D0E0B2
:10016000FAD0E0FB120528FF60AAEBC0E0EAC0E08D
:10017000E9C0E0120046D0E02401F9D0E03400FAF2
:10018000D0E0FBE50A0460DCD50AD980877BFF7AE2
:1001900002799BD202809C791080027908C206C243
:1001A000088008D2D5790A8004790AC2D5E50A0404
:1001B0007002F50AE4FAFDFEFF120003FC7B082042
:1001C0000113120003FD7B1030000A120003FE121F
:1001D0000003FF7B20EC3382D592D55013C3E4306B
:1001E00000069FFFE49EFEE42001039DFDE49CFCCD
:1001F000E4CBF8C201EC700CCFCECDCCE824F8F8FB
:1002000070F38017C3EF33FFEE33FEED33FDEC33B5
:10021000FCEB33FB994002FB0FD8E9EB300105F80A
:10022000D0E0C448B201C0E00AEC4D4E4F78207BCC
:100230000070C2EAB50A0040BCC0E01202A1D0F0D2
:10024000D0E0200104C4C0E0C4B201C0F012002F0D
:10025000D0F0D5F0EB0200801204D5011D530197B8
:100260005800EE4C00EA42019B4F01A34401A34910
:1002700001034301A955018D46018D45018D4703B9
:10028000495000F22D00F62E01192B00FA23011718
:100290002003322A00B248000001113F3F3F00799D
:1002A0000AA2D5200314300509B910020404B908C4
:1002B0000104A2D52006025001042002689202B572
:1002C00009005034C0E07F203003197F30A2027251
:1002D000067205500F1202F8C202C206C205C20819
:1002E0007F30800F300503E9C0E01200463005037F
:1002F000D0E0F9D0E0B509CC3005177F30B9100C4B
:100300001200467F583004077F788003B908031233
:1003100000463002057F2D0200467F202008F87F2E
:100320002B2006F322920280CF286E756C6C290078
:10033000D2011200033001F8C201780930D501085A
:10034000F60200B22D504349581200032403B405AD
:10035000004001E490034493120037743A120037CE
:10036000D203750904020197E88FF0A4CC8BF0A4A6
:100370002CFCE98EF0A42CFC8AF0EDA42CFCEA8E77
:10038000F0A4CDA8F08BF0A42DCC3825F0FDE98F9A
:10039000F0A42CCD35F0FCEB8EF0A4FEA9F0EB8F91
:1003A000F0A4CFC5F02ECD39FEE43CFCEAA42DCE5E
:1003B00035F0FDE43CFC2275F008758200EF2FFF5C
:1003C000EE33FECD33CDCC33CCC58233C5829BED2D
:1003D0009AEC99E58298400CF582EE9BFEED9AFD31
:1003E000EC99FC0FD5F0D6E4CEFBE4CDFAE4CCF9E1
:1003F000A88222B800C1B90059BA002DEC8BF08454
:10040000CFCECDFCE5F0CBF97818EF2FFFEE33FE21
:10041000ED33FDEC33FCEB33FB10D703994004EBD9
:1004200099FB0FD8E5E4F9FA227818EF2FFFEE33A5
:10043000FEED33FDEC33FCC933C910D7059BE99AB7
:100440004007EC9BFCE99AF90FD8E0E4C9FAE4CC48
:10045000FB2275F010EF2FFFEE33FEED33FDCC33B2
:10046000CCC833C810D7079BEC9AE899400AED9B9B
:10047000FDEC9AFCE899F80FD5F0DAE4CDFBE4CC7A
:10048000FAE4C8F922E8600FECC313FCED13FDEEAB
:1004900013FEEF13FFD8F122ECF0A3EDF0A3EEF082
:1004A000A3EFF022A8828583F0D083D0821204BB10
:1004B0001204BB1204BB1204BBE473E493A3C58310
:1004C000C5F0C583C8C582C8F0A3C583C5F0C58380
:1004D000C8C582C822D083D082F8E4937012740118
:1004E00093700DA3A393F8740193F5828883E4734A
:1004F0007402936860EFA3A3A380DFD083D082F857
:10050000E4937012740193700DA3A393F874019394
:10051000F5828883E473740293B5F00674039368DC
:1005200060E9A3A3A3A380D8BB010689828A83E0E4
:10053000225002E722BBFE02E32289828A83E493EF
:1005400022BB010CE58229F582E5833AF583E0229E
:100550005006E92582F8E622BBFE06E92582F8E28C
:1005600022E58229F582E5833AF583E49322BB01F3
:100570000689828A83F0225002F722BBFE01F32211
:10058000F8E0FBA3A3E0F925F0F0E5821582700204
:100590001583E0FA38F022EBF0A3EAF0A3E9F022A9
:1005A00090005712049890005BE0FFEF1204D5050D
:1005B000BC0006100106DF02000007947598504346
:1005C0008920438780438E10A2AF920CC2AF75C7BB
:1005D000AA75C755759100A20C92AF53C4DF7B106A
:1005E0007A0079007800900057E0FCA3E0FDA3E0DA
:1005F000FEA3E0FF1203F390005CE0F8A3E0F9A390
:10060000E0FAA3E0FB1203F3EFF404F58DD28E229F
:1006100075985043878053C4F8A2AF920CC2AF754F
:10062000C7AA75C755759100A20C92AF43C4207B31
:10063000107A0079007800900057E0FCA3E0FDA359
:10064000E0FEA3E0FF1203F390005CE0F8A3E0F902
:10065000A3E0FAA3E0FB1203F3A804A905AA06ABE2
:1006600007C3E49BFFE49AFE740199FDE498FC78CB
:10067000081204858FC67B107A00790078009000FC
:1006800057E0FCA3E0FDA3E0FEA3E0FF1203F3901C
:10069000005CE0F8A3E0F9A3E0FAA3E0FB1203F3A7
:1006A000A804A905AA06AB07C3E49BFFE49AFE745D
:1006B0000199FDE498FCEF54FFFFEE5400FEED5469
:1006C00000FDEC5400FC8FC5A2AF920CC2AF75C701
:1006D000AA75C755759100A20C92AF43C408227544
:1006E000F85075C4807B107A00790078009000572C
:1006F000E0FCA3E0FDA3E0FEA3E0FF1203F3900003
:100700005CE0F8A3E0F9A3E0FAA3E0FB1203F3A88E
:1007100004A905AA06AB07C3E49BFFE49AFE740193
:1007200099FDE498FC78081204858FC67B107A0046
:1007300079007800900057E0FCA3E0FDA3E0FEA361
:10074000E0FF1203F390005CE0F8A3E0F9A3E0FA05
:10075000A3E0FB1203F3A804A905AA06AB07C3E4B0
:100760009BFFE49AFE740199FDE498FCEF54FFFFAF
:10077000EE5400FEED5400FDEC5400FC8FC5A2AF1A
:10078000920CC2AF75C7AA75C755759100A20C929D
:10079000AF43C4082290002812049875910090007D
:1007A0002CE0FEA3E0FFEF8EF01204FB07D0000167
:1007B00007D5000407DD001007E5002007ED004025
:1007C00007F5008007FD0100080502000000080B86
:1007D00053C98F803653C98F43C910802E53C98F98
:1007E00043C920802653C98F43C930801E53C98F07
:1007F00043C940801653C98F43C950800E53C98FD7
:1008000043C960800653C98F43C970C2C843C980B9
:1008100043C9047B407A42790F7800900028E0FCBD
:10082000A3E0FDA3E0FEA3E0FF1203F3900030E09D
:10083000F8A3E0F9A3E0FAA3E0FB120368C004C048
:1008400005C006C00790002CE0FEA3E0FFAB07AA9E
:1008500006E4F9F8D007D006D005D0041203F3A8B7
:1008600004A905AA06AB07C3E49BFFE49AFE740142
:1008700099FDE498FCEF54FFFFEE5400FEED5400A8
:10088000FDEC5400FC900034EFF07B407A42790F8D
:100890007800900028E0FCA3E0FDA3E0FEA3E0FFC9
:1008A0001203F3900030E0F8A3E0F9A3E0FAA3E02C
:1008B000FB120368C004C005C006C00790002CE00E
:1008C000FEA3E0FFAB07AA06E4F9F8D007D006D0F4
:1008D00005D0041203F3A804A905AA06AB07C3E4D4
:1008E0009BFFE49AFE740199FDE498FC78081204D9
:1008F00085900035EFF090002EE0FEA3E0FFEF4E74
:100900006027900034E0FF8FCC900035E0FF8FCD62
:10091000D2CA30CFFDC2CFC2CA90002FE024FFF070
:1009200090002EE034FFF080CD22900067EFF0A21F
:10093000AF920CC2AF75C7AA75C755439F01A20CF1
:1009400092AF759100900067E0FFEF1204D5095B4C
:10095000060960070965080000096875A63880085F
:1009600075A630800375A63075A70075AF04A2AFD9
:10097000920CC2AF75C7AA75C75543A401A20C92C9
:10098000AF85AE0D05A6A2AF920CC2AF75C7AA7512
:10099000C75543A401A20C92AF85AE0E900067E04C
:1009A000FFEF1204D509AC0800000A6DE50D25E043
:1009B000FFE50E5401FEEF2EFF900068EFF090006F
:1009C00068E0FFEF54C0F510900068E0FFEF543F7F
:1009D000F50F900068E024F2F075AF0C75A6017574
:1009E000A700A2AF920CC2AFA2AF920CC2AF75C764
:1009F000AA75C75543AA40A20C92AF75C7AA75C77E
:100A00005543A401A20C92AFAFAE7E00EF644B4EF3
:100A10006014AFAE7E00EF64524E600AAFAE7E004F
:100A2000EF64534E703DAF0F7E00C3EF940FEE6442
:100A30008094805027AF107E00EF64404E6014AF6A
:100A4000107E00EF64804E600AAF107E00EF64C03D
:100A50004E7010900068E024F2F08007900068E08B
:100A600024FCF0900068E0FFEFC313F50D75C7AAF2
:100A700075C755850D8475C7AA75C755850E85A29E
:100A8000AF920CC2AF75C7AA75C755539FFEA20C93
:100A900092AF227F0612092A120B307BFF7A0B7964
:100AA0009812006E75B10075B20075B30075B40090
:100AB00075AC0075AD0053B3FB43B40443B30853A6
:100AC000B4F76380FF6390FFA2B0B392B043900489
:100AD000E59020E3010090002CE4F0A37404F09072
:100AE000002EE4F0A374C8F09000301204A40000BB
:100AF00003E87F007E367D6E7C011207955390FBE4
:100B0000E59030E3010090002CE4F0A37404F09031
:100B1000002EE4F0A374C8F09000301204A400008A
:100B200003E87F007E367D6E7C011207958093225C
:100B300053B1BF53B2BF90005BE4F090005C12046D
:100B4000A40001C2007F007E367D6E7C011205A0EC
:100B5000D299D209C2AC22EFB40A07740D120B620B
:100B6000740A309811A899B8130CC2983098FDA84F
:100B700099C298B811F63099FDC299F59922787FFB
:100B8000E4F6D8FD9000007FFF7E03E4F0A3DFFCD5
:100B9000DEFA758121020A930A205465737420736A
:090BA00074617274202E2E2E00E7
:00000001FF
