:060000000200060200628E
:0300060075813DC4
:0A000900121DE2E58260030200030D
:100013007900E94400601B7A00901ED678E575A04C
:1000230001E493F2A308B8000205A0D9F4DAF2754B
:02003300A0FF2C
:10003500E478FFF6D8FD7800E84400600A79017598
:10004500A000E4F309D8FC78E4E84401600C7902E7
:0A005500900001E4F0A3D8FCD9FAF2
:03005F0002000399
:10006200758206120CA012118574E6C0E0741DC0E0
:10007200E07480C0E012137A15811581158153B1A5
:10008200DF53B2DF2085FD9001687434F09038822E
:100092001206E0E5827017740AC0E0741EC0E074B4
:1000A20080C0E012137A158115811581801574299B
:1000B200C0E0741EC0E07480C0E012137A1581158E
:1000C20081158190003AE4F090003AE0FF2408F5AF
:1000D20082E43400F583EFF090003AE02401F0E08E
:1000E200FFBF320040E290000174A2F014A3F0902E
:1000F200000374A6F014A3F014A3F014A3F090006C
:100102000774A7F09001737408F07400A3F0E4A3DD
:10011200F09001767432F0E4A3F09038E012089780
:10012200E58270177449C0E0741EC0E07480C0E0BC
:1001320012137A15811581158180157429C0E07416
:100142001EC0E07480C0E012137A158115811581FA
:100152009001737401F07400A3F0E4A3F0900176AF
:100162007407F0E4A3F09038FE120897E582701746
:100172007469C0E0741EC0E07480C0E012137A1586
:1001820081158115818015748FC0E0741EC0E074E2
:1001920080C0E012137A1581158115819038FD1205
:1001A20001DCAE827F009038FEC007C0061201DC7F
:1001B200AD82D006D0077C00ED2FFFEC3EFEC007DB
:1001C200C00674B0C0E0741EC0E07480C0E01213B8
:1001D2007AE58124FBF58180FE22AF83E5829000DF
:1001E2003BF0EFA3F090003BE0FEA3E0FF8E828F96
:1001F20083E493A3E493F58222E58290003DF0E04C
:100202004480FF75C7AA75C7558F9F22E58290006B
:100212003EF0E06005438702000022E58290003F45
:10022200F0E060054387010000227F007E7F00DE50
:10023200FD0FBF1A0040F522E582900040F0E02455
:10024200FF92AF22AF82AE83ADF0FC900045EFF09B
:10025200EEA3F0EDA3F0ECA3F0538EF75389F04335
:100262008901900045E0FCA3E0FDA3E0FEA3E0FFCE
:1002720090019A7440F07442A3F0740FA3F0E4A3C7
:10028200F08C828D838EF0EF1211B1AC82AD83AE11
:10029200F0FF900043E0FAA3E0FB9001A8EAF0EB44
:1002A200A3F0E4A3F0A3F08C828D838EF0EF121200
:1002B200C0AC82AD83AEF0FF90019A740CF0E4A35F
:1002C200F0A3F0A3F08C828D838EF0EF1211B1AC0B
:1002D20082AD83AEF0FF8C0374FFC39BFB74FFC33C
:1002E2009C74FF9DFDE49EE49F8D07900041E0FD1C
:1002F200A3E0FEED4E60148B8A8F8CD28C108D029F
:1003020080FBC28C1DBDFF011E80E822AF82AE833E
:10031200ADF0FC90004DEFF0EEA3F0EDA3F0ECA3F6
:10032200F0538EEF53890F43891090004DE0FCA3E8
:10033200E0FDA3E0FEA3E0FF90019A7440F0744256
:10034200A3F0740FA3F0E4A3F08C828D838EF0EF00
:100352001211B1AC82AD83AEF0FF90004BE0FAA374
:10036200E0FB9001A8EAF0EBA3F0E4A3F0A3F08C89
:10037200828D838EF0EF1212C0AC82AD83AEF0FF9D
:1003820090019A740CF0E4A3F0A3F0A3F08C828D98
:10039200838EF0EF1211B1AC82AD83AEF0FF8C030D
:1003A20074FFC39BFB74FFC39C74FF9DFDE49EE43A
:1003B2009F8D07900049E0FDA3E0FEED4E60148B97
:1003C2008B8F8DD28E108F0280FBC28E1DBDFF01DE
:1003D2001E80E822AF82AE83ADF0FC900059EFF0B0
:1003E200EEA3F0EDA3F0ECA3F0759100900051E0C4
:1003F200FEA3E0FF8E048F05BC0105BD000280381C
:10040200BC0405BD00028035BC1005BD000280356C
:10041200BC2005BD00028035BC4005BD0002803510
:10042200BC8005BD00028035BC0005BD01028035DF
:10043200BC0040BD023D803553C98F803653C98F01
:1004420043C910802E53C98F43C920802653C98FB8
:1004520043C930801E53C98F43C940801653C98F88
:1004620043C950800E53C98F43C960800653C98F58
:1004720043C970C2C843C98043C904900059E0FA15
:10048200A3E0FBA3E0FCA3E0FD90019A7440F074AA
:1004920042A3F0740FA3F0E4A3F08A828B838CF062
:1004A200EDC007C0061211B185822485832585F02F
:1004B20026F527900055E0F8A3E0F9A3E0FCA3E0BD
:1004C200FD9001A8E8F0E9A3F0ECA3F0EDA3F0851C
:1004D20024828525838526F0E5271212C0AA82ABE5
:1004E20083ACF0FDD006D00790019AEEF0EFA3F0B6
:1004F200E4A3F0A3F08A828B838CF0ED1211B1ACED
:1005020082AD83AEF0FF8C03C3E49BFBE4C39CE4A7
:100512009DFD74019EE49F8D07900053E0FDA3E0D2
:10052200FEED4E60148BCC8FCDD2CA10CF0280FB71
:10053200C2CA1DBDFF011E80E822AF82AE83ADF0AC
:10054200FC900064EFF0EEA3F0EDA3F0ECA3F075E5
:10055200910090005DE0FFBF01028023BF02028094
:1005620023BF04028026BF08028029BF1002802C0C
:10057200BF2002802FBF40028032BF803D803553B2
:10058200C4F8803653C4F843C401802E53C4F843E0
:10059200C402802653C4F843C403801E53C4F843E4
:1005A200C404801653C4F843C405800E53C4F843F0
:1005B200C406800653C4F843C407900064E0FBA35A
:1005C200E0FCA3E0FDA3E0FE90019A7440F07442C7
:1005D200A3F0740FA3F0E4A3F08B828C838DF0EE72
:1005E200C0071211B185822885832985F02AF52B4F
:1005F200900060E0F8A3E0F9A3E0FAA3E0FE900126
:10060200A8E8F0E9A3F0EAA3F0EEA3F0852882853A
:100612002983852AF0E52B1212C0AB82AC83ADF0A0
:10062200FED00790019AEFF0E4A3F0A3F0A3F08BC1
:10063200828C838DF0EE1211B1AC82AD83AEF0FFED
:100642008C03C3E49BFBE4C39CE49DFD74019EE424
:100652009F8D0790005EE0FDA3E0FEED4E6068A274
:10066200AF9200C2AF75C7AA75C755759100A200B7
:1006720092AF53C4EF8BC58FC6A2AF9200C2AF75C3
:10068200C7AA75C755759100A20092AF43C408E589
:10069200C430E4FBA2AF9200C2AF75C7AA75C755BA
:1006A200759100A20092AF53C4EFA2AF9200C2AF05
:1006B20075C7AA75C755759100A20092AF53C4F7CA
:1006C2001DBDFF011E8094A2AF9200C2AF75C7AAE2
:1006D20075C755759100A20092AF53C4F722AF833C
:1006E200E582900169F0EFA3F0C201900169E0FE9A
:1006F200A3E0A2E7CE33CE33CE54015401A2E0CE22
:1007020013CE13CEFF7D008D037C008E018F02EB92
:1007120029F9EC3AFA89828A83C007C006C0051219
:1007220001DCAC82D005D006D007ED2468F582E466
:100732003400F583ECF00DBD800040CB900169E000
:10074200FCA3E053047F7D00EC2468FCED3400FD43
:10075200900168E0FB8C828D83F08E058DA68FA7B9
:1007620075AEFFA2AF9200C2AF75C7AA75C7554357
:100772009F01A20092AFA2AF9200C2AF75C7AA7545
:10078200C75543A501A20092AF75AF22A2AF920056
:10079200C2AF75C7AA75C75543A401A20092AF7E26
:1007A20000EE2DF5A68FA775AF21EE2468F582E441
:1007B2003400F583E0FC8CAEA2AF9200C2AF75C7E5
:1007C200AA75C75543A401A20092AF75AF0075AEDA
:1007D200FFA2AF9200C2AF75C7AA75C75543A40165
:1007E200A20092AF90016BE5AEF0E0FBB50402808F
:1007F20004D20180060EBE800040A6A2AF9200C2C3
:10080200AF75C7AA75C75553A5FEA20092AFA2AF96
:100812009200C2AF75C7AA75C755539FFEA2009238
:10082200AFA201E433F58222AF83E582900171F039
:10083200EFA3F090016CE0FDA3E0FEA3E0FF9001C6
:1008420071E0F539A3E0F53A90016FE0F9A3E0FA1F
:10085200E4F537F538C3E53799E5389A5036C001E3
:10086200C002E5372DF8E5383EF98F02E537253924
:10087200FBE538353AFC8B828C83E493FC888289D1
:10088200838AF01212A50537E4B537020538D00283
:10089200D00180C122AF83E582900178F0EFA3F00E
:1008A200C201900178E0FEA3E0FF8E04A2E7CC3300
:1008B200CC33CC540190017AECF0900176E0FCA3A9
:1008C200E0FDEC2EFEED3FA2E7CE33CE33CE540157
:1008D200FF90017AE0FFB50603020971900178E00A
:1008E200FDA3E0FF900173E0FAA3E0FBA3E0FC901C
:1008F200017BEAF0EBA3F0ECA3F090017E7480F0B0
:100902008D828F83C007C006C0051209B5AC82D0A4
:1009120005D006D0078C027B00EA2DFDEB3FFF904D
:100922000178EDF0EFA3F0900173E0F9A3E0FDA3ED
:10093200E0FF900173EC29F0E43DA3F0EFA3F09007
:100942000176E0FDA3E0FFEDC39AFAEF9BFB900175
:1009520076EAF0EBA3F0900178E0FDA3E0A2E7CD08
:1009620033CD33CD5401FF90017AEDF00208D390DC
:100972000176E0FEA3E0900176E0F5F0A3E045F019
:10098200602A900178E0FCA3E0FD900173E0F9A3F6
:10099200E0FAA3E0FB90017BE9F0EAA3F0EBA3F01D
:1009A20090017EEEF08C828D831209B5A201E433B0
:1009B200F58222AF83E58290017FF0EFA3F0A2AF30
:1009C2009200C2AF75C7AA75C755439F01A2009294
:1009D200AFA2AF9200C2AF75C7AA75C75543A501B2
:1009E200A20092AF90017FE0FEA3E0FF747F5EF56C
:1009F20037AE377480C39EFE90017EE0FD8E04C345
:100A0200EC9D500590017EEEF090017FE0FDA3E0A9
:100A1200FE90017EE0FC7B00C3EB9C5011EB2DF5B8
:100A220082E43EF583E493FABAFF030B80EA900175
:100A32007EE0FCEBB504028003020B2190017FE013
:100A4200FAA3E0FB8AA68BA790017BE0F538A3E02E
:100A5200F539A3E0F53A7800C3E89C5071C00475FB
:100A6200AF21E82538FBE43539FCAF3A8B828C8321
:100A72008FF0121DC6F5AEA2AF9200C2AF75C7AA23
:100A820075C75543A401A20092AF75AF2175AEFFA1
:100A9200A2AF9200C2AF75C7AA75C75543A401A2FF
:100AA2000092AF900181E5AEF08B828C838FF012C1
:100AB2001DC6FB900181E0FFB50304D0048007D07E
:100AC20004D201020C54E5A604F5A608808A8538F2
:100AD2003B85393C853A3D90017EE0FA7900C3E9D5
:100AE2009A5030C002E92DF582E43EF583E493F595
:100AF20038E9253BF8E4353CFAAF3D88828A838F9A
:100B0200F0121DC6F8B538028004D0028005D0026A
:100B12000980CB90017EE0FFE9B50703020C5490F7
:100B2200017FE0FEA3E0FF5306807D00ED24E8FB99
:100B3200E43400FCED2EF582E43FF583E4938B82EE
:100B42008C83F00DBD800040E390017BE0F538A37B
:100B5200E0F539A3E0F53A90017EE0FA7900C3E9C5
:100B62009A503EC00285373B753C0089007A00E806
:100B7200253BF8EA353CFAE824E8F53BEA3400F58F
:100B82003CE92538F8E43539FAAD3A88828A838D12
:100B9200F0121DC6F8853B82853C83F009D00280A5
:100BA200BD90017FE0FCA3E0FDFB8C0274805AF54E
:100BB200A68BA775AF2275AEFFA2AF9200C2AF752A
:100BC200C7AA75C75543A401A20092AF7A0075AFB8
:100BD20021EA24E8F582E43400F583E0F989AEA243
:100BE200AF9200C2AF75C7AA75C75543A401A20050
:100BF20092AF75AF0075AEFFA2AF9200C2AF75C7DC
:100C0200AA75C75543A401A20092AF900181E5AE37
:100C1200F0E0F8B501028004D2018036E5A604F5C1
:100C2200A60ABA800040A77A00EA2EF582E43FF5D0
:100C320083E493F9EA24E8F582E43400F583E0F8EA
:100C4200E9B500060ABA800040DFBA8002800302DA
:100C52000BACA2AF9200C2AF75C7AA75C755539F1E
:100C6200FEA20092AF90017EE0F58222AF83E58280
:100C7200900182F0EFA3F010990280FB900182E0D4
:100C8200FEA3E08E997F008E828F83223098FD90A2
:100C92000184E599F0C298900184E0F58222E58210
:100CA200900185F0A2AF9200C2AF75C7AA75C75571
:100CB200439F01A20092AF759100900185E0FFBFB2
:100CC2000602800ABF0702800ABF080F800A75A6C3
:100CD20038800875A630800375A63075A70075AFF9
:100CE20004A2AF9200C2AF75C7AA75C75543A4014B
:100CF200A20092AFAEAEE5A604F5A6A2AF9200C2E4
:100D0200AF75C7AA75C75543A401A20092AFADAE95
:100D1200BF08028003020DA28E07EF2FFF8D04741D
:100D2200015C2FFF74C05FFC743F5FFBEF24F2FF96
:100D3200900186F075AF0C75A60175A700A2AFC22F
:100D4200AFA2AF9200C2AF75C7AA75C75543AA40FA
:100D5200A20092AF75C7AA75C75543A401A200921B
:100D6200AF744BB5AE02800C7452B5AE02800574FE
:100D720053B5AE24BB0F005018BC40028008BC80A3
:100D8200028003BCC0128F04EC24F2900186F08032
:100D920007EF24FC900186F0900186E0FFC313FE6A
:100DA20075C7AA75C7558E8475C7AA75C7558D852F
:100DB200A2AF9200C2AF75C7AA75C755539FFEA2D4
:100DC2000092AF22E582900187F0E0FFBF0202802D
:100DD2000ABF03028013BF04568029758202120ED5
:100DE20032758202120EA18046758203120EA1A2F2
:100DF200AF9200C2AF75C7AA75C7555397DFA2005D
:100E020092AF802B758202120E32758202120EA1EF
:100E1200758204120E32758204120EA1A2AF9200E4
:100E2200C2AF75C7AA75C7555397DFA20092AF220A
:100E3200E582900188F0E0FFBF02028005BF042A2C
:100E4200801AA2AF9200C2AF75C7AA75C755439761
:100E520020A20092AFE59620E51080F975C7AA7529
:100E6200C7554397C0E59630E3FB22E5829001899E
:100E7200F0759100E0FFBF02028005BF04208015DB
:100E8200A2AF9200C2AF75C7AA75C7555397DFA22A
:100E92000092AF800975C7AA75C75553973F22E5DF
:100EA2008290018AF0759100A2AF9200C2AF9001C8
:100EB2008AE0FFBF0202800ABF0302802DBF0465E1
:100EC2008050A2AF9200C2AF75C7AA75C75553969C
:100ED200FBA20092AFA2AF9200C2AF75C7AA75C7BC
:100EE200555396FDA20092AF803BA2AF9200C2AFD3
:100EF20075C7AA75C755439604A20092AFA2AF92D6
:100F020000C2AF75C7AA75C7555396FDA20092AF2E
:100F12008013A2AF9200C2AF75C7AA75C755439698
:100F220008A20092AFA20092AF22AF82AE83ADF0D0
:100F3200FC900192EFF0EEA3F0EDA3F0ECA3F090A1
:100F4200018DE0FF600FBF0103020FE0BF02030249
:100F5200108B02111A759850438920438780438E63
:100F620010A2AF9200C2AF75C7AA75C7557591009E
:100F7200A20092AF53C4DF900192E0FCA3E0FDA374
:100F8200E0FEA3E0FFEDC4CCC4540F6CCC540FCCF4
:100F92006CCCFDEEC454F04DFDEFC4CEC4540F6EC4
:100FA200CE540FCE6ECEFF90018EE0F8A3E0F9A3EF
:100FB200E0FAA3E0FB90019AE8F0E9A3F0EAA3F0DB
:100FC200EBA3F08C828D838EF0EF1211B1AC82AD67
:100FD20083AEF0FFC3E49CF58DD28E02111A759890
:100FE2005043878053C4F8A2AF9200C2AF75C7AA1C
:100FF20075C755759100A20092AF43C4209001922B
:10100200E0FCA3E0FDA3E0FEA3E0FFEDC4CCC454EA
:101012000F6CCC540FCC6CCCFDEEC454F04DFDEFF4
:10102200C4CEC4540F6ECE540FCE6ECEFF90018E3E
:10103200E0F8A3E0F9A3E0FAA3E0FB90019AE8F05C
:10104200E9A3F0EAA3F0EBA3F08C828D838EF0EF9C
:101052001211B1AC82AD83AEF0FFE4C39CF8E49D03
:10106200F974019EFAE49FFB89C6C3E49CFC8CC51B
:10107200A2AF9200C2AF75C7AA75C755759100A2FB
:101082000092AF43C40802111A75F85075C48090DB
:101092000192E0FCA3E0FDA3E0FEA3E0FFEDC4CCDF
:1010A200C4540F6CCC540FCC6CCCFDEEC454F04D38
:1010B200FDEFC4CEC4540F6ECE540FCE6ECEFF9051
:1010C200018EE0F8A3E0F9A3E0FAA3E0FB90019A15
:1010D200E8F0E9A3F0EAA3F0EBA3F08C828D838E13
:1010E200F0EF1211B1AC82AD83AEF0FFE4C39CF815
:1010F200E49DF974019EFAE49FFB89C6C3E49CFC5B
:101102008CC5A2AF9200C2AF75C7AA75C7557591BB
:1011120000A20092AF43C40822E582900196F090AB
:101122000197E4F0900196E0FF6005BF011A800D7F
:101132003098FD900197E599F0C298800B30F8FD48
:10114200900197E59AF0C2F8900197E0F58222E5C6
:1011520082900199F0E0FF6005BF01268011C2ACC8
:10116200900198E0F59910990280FBD2AC8013535C
:101172009CFE900198E0F59A10F90280FB439C01D5
:10118200D2AF2253B1BF53B2BF90018DE4F09001B0
:101192008EF074C2A3F07401A3F0E4A3F0903600C1
:1011A20075F06E7401120F2CD299D202C2AC22AF2A
:1011B20082AE83ADF0FC90019EEFF0EEA3F0EDA3C2
:1011C200F0ECA3F09001A2E4F0A3F0A3F0A3F0905E
:1011D200019AE0FCA3E0FDA3E0FEA3E0FF7B20C0B8
:1011E2000390019EE0F8A3E0F9A3E0FAA3E0FB90EC
:1011F20001A6235401F0E828F8E933F9EA33FAEBBF
:1012020033FB90019EE8F0E9A3F0EAA3F0EBA3F030
:101212009001A2E0F8A3E0F9A3E0FAA3E0FBE8283A
:10122200F8E933F9EA33FAEB33FB9001A2E8F0E98B
:10123200A3F0EAA3F0EBA3F0D0039001A6E06008CC
:101242009001A2E043E001F09001A2E0F537A3E0B3
:10125200F538A3E0F539A3E0F53AC3E5379CE53864
:101262009DE5399EE53A9F401F9001A2E537C39C58
:10127200F0E5389DA3F0E5399EA3F0E53A9FA3F08F
:1012820090019EE043E001F01BEB60030211E1904C
:10129200019EE0FCA3E0FDA3E0FEA3E08C828D832F
:1012A2008EF02220F71130F6138883A88220F509E8
:1012B200F6A8837583002280FEF280F5F022A882D0
:1012C200A983AAF0FB88F09001A8E0A4FCADF08904
:1012D200F0E0A42DFDE435F0FE88F0A3E0A42DFD9E
:1012E200E5F03EFEE433FF89F0E0A42EFEE5F03F98
:1012F200FF88F0A3E0A42EFEE5F03FFF8AF0900104
:10130200A8E0A42EFEE5F03FFF8BF0E0A42FFF8AB9
:10131200F0A3E0A42FFF89F0A3E0A42FFF88F0A39D
:10132200E0A42F8EF08D838C8222C0368581367E9A
:10133200008E83120C6ED03622AFF0AE83E582901F
:1013420001ADF0EEA3F0EFA3F09001ADE0FDA3E05C
:10135200FEA3E0FF9001ACE0FC9001C1E4F0A3F039
:10136200A3F09001C4EDF0EEA3F0EFA3F09001C75B
:10137200ECF090132C021480C036E581F53624FB84
:10138200FF9001C1E4F0A3F0A3F0E53624FBF8904E
:1013920001C4E6F008E6A3F008E6A3F09001C7EF67
:1013A200F090132C121480D03622E5829001BDF009
:1013B200E0FF9001B3E0C0E0A3E0C0E0A3E0C0E042
:1013C2001213C7800D9001B1E0C0E0A3E0C0E08F2E
:1013D20082221581158115819001BBE02401F0A3C1
:1013E200E03400F022E5829001BEF0E02430FF24D8
:1013F200C6500D74072FFF9001B0E0600343072031
:101402008F820213ACE5829001BFF0E0FFC4540F5B
:10141200F582C0071213E7D00753070F8F8202131A
:10142200E7E5829001C0F09001B6E0FCA3E0FDA3E5
:10143200E0FEA3E0FF9001BAE0FB9001C0E0FA7980
:10144200208B00E828F537EF2354014537FBEC2CBD
:10145200FCED33FDEE33FEEF33FFC3EB9A4007EBB7
:10146200C39AFB43040119E970D79001B6ECF0ED81
:10147200A3F0EEA3F0EFA3F09001BAEBF022AF835A
:10148200E5829001C8F0EFA3F09001C8E0FEA3E06E
:10149200FF9001B1EEF0EFA3F09001C1E0FDA3E0F7
:1014A200FEA3E0FF9001B3EDF0EEA3F0EFA3F09006
:1014B20001BBE4F0A3F09001C4E0FDA3E0FEA3E0D1
:1014C200FF8D828E838FF0121DC6FC9001C47401C1
:1014D2002DF0E43EA3F0EFA3F0EC7003021D82BCFA
:1014E20025028003021D7A9001CAE4F09001CBF03C
:1014F2009001CCF09001CDF09001CEF09001CFF0B0
:101502009001D0F09001D1F09001D3F09001D4F08D
:10151200A3F09001D614F0A3F09001C4E0FDA3E083
:10152200FEA3E0FF8D828E838FF0121DC6FBA3AD5A
:1015320082AE839001C4EDF0EEA3F0EFA3F0900130
:10154200DAEBF0BB25088B821213AC0214B8BB3065
:10155200005003021619EB24C6500302161990011B
:10156200D6E0F52CA3E0F52D74FFB52C63B52D6004
:10157200C005C006C0079001D4E0FAA3E0FF9001C5
:10158200E3EAF0EFA3F090000AC005C003121DA623
:10159200AE82AF83D003D0058B027D00EA2EFEED32
:1015A2003FFFEE24D0FEEF34FFFF9001D4EEF0EFC8
:1015B200A3F0D007D006D0059001D4E0F5F0A3E067
:1015C20045F060030215269001CB7401F002152646
:1015D200C005C006C0079001E3E52CF0E52DA3F09D
:1015E20090000AC006C005C003121DA6AA82AF83DE
:1015F200D003D005D0067E00EB2AFAEE3FFFEA24A4
:10160200D0FAEF34FFFF9001D6EAF0EFA3F0D00753
:10161200D006D0050215269001DAE0FBBB2E2FC0C2
:1016220005C006C0079001D6E0FAA3E0FFBAFF05A5
:10163200BFFF028009D007D006D005021526D007C9
:10164200D006D0059001D6E4F0A3F0021526BB61C6
:10165200004014EB2485400F9001DA74DF5BF090B8
:1016620001B07401F080059001B0E4F09001DAE07D
:10167200FBBB20028075BB2B028067BB2D02805909
:10168200BB4202806FBB4302807CBB440302191041
:10169200BB4603021936BB4803021526BB490302A7
:1016A2001910BB4A03021526BB4C028050BB4F03E4
:1016B20002191EBB500302187EBB53028077BB5433
:1016C20003021526BB5503021926BB580302192E25
:1016D200BB5A0302152602193E9001CA7401F00298
:1016E20015269001CC7401F00215269001CD7401EB
:1016F200F00215269001CF7401F00215269001D058
:101702007401F00215269001CFE0600E9001C7E04F
:1017120014F9F09001DAE7F0800F9001C7E024FE9F
:10172200FFF08F019001DAE7F09001DAE0F5821222
:1017320013AC02194D9001C7E024FDFFF08F018721
:101742000509870609870719199001B6EDF0EEA37E
:10175200F0EFA3F08D828E838FF0121D8E85822C86
:1017620085832D9001D6E0FAA3E0FDBAFF0DBDFFFF
:101772000A9001D6E52CF0E52DA3F09001CAE070A5
:101782004B9001D4E0FAA3E0FDC3E52C9AE52D9D30
:10179200503A9001D4EAC3952CF0ED952DA3F09028
:1017A20001D4E0FAA3E0FD8A068D071ABAFF011DF3
:1017B200EE4F6010758220C005C0021213ACD00239
:1017C200D00580E39001D4EAF0EDA3F09001D6E0D9
:1017D200F52FA3E0F5309001B6E0FAA3E0FDA3E017
:1017E200FF8A828D838FF0121DC6F52E603CC3E402
:1017F200952F74808530F063F08095F0502C152F72
:1018020074FFB52F021530852E821213AC9001B6EB
:10181200E0FAA3E0FDA3E0FF0ABA00010D9001B6D1
:10182200EAF0EDA3F0EFA3F080AC9001CAE0700300
:1018320002194D9001D4E0FEA3E0FFC3E52C9EE522
:101842002D9F400302194D9001D4EEC3952CF0EF69
:10185200952DA3F09001D4E0FEA3E0FF8E028F0548
:101862001EBEFF011FEA4D7003021945758220C09A
:1018720007C0061213ACD006D00780E09001C7E083
:1018820024FDFDF08D01873109873209873319194B
:101892009001B6E531F0E532A3F0E533A3F0900113
:1018A200B8E0FDBD800040089001DA7443F080206A
:1018B200BD600040089001DA7450F08013BD400012
:1018C20040089001DA7449F080069001DA7458F009
:1018D2009001DAE0FDF582C0051213AC75823A126E
:1018E20013AC7582301213AC7582781213ACD0052A
:1018F200BD4902800EBD500280099001B7E0F58219
:101902001214079001B6E0F582121407803D90018F
:10191200CE7401F09001D3740AF0802F9001D37439
:1019220008F080279001D3740AF0801F9001D374CD
:1019320010F080179001D17401F0800F8B82121386
:10194200AC80089001D4EEF0EFA3F09001D1E060FA
:10195200719001C7E024FCFFF08F0187030987051E
:101962000987060987071919199001B6EBF0EDA34B
:10197200F0EEA3F0EFA3F09001B674CBF0741EA3C7
:10198200F07480A3F09001B6E0F531A3E0F532A344
:10199200E0F53374012531FAE43532FBAF339001BF
:1019A200B6EAF0EBA3F0EFA3F085318285328385AE
:1019B20033F0121DC6FF70030214B88F821213ACEB
:1019C20080C39001D3E070030214B89001CFE060AD
:1019D200479001C7E014F9F087077E007D007B0085
:1019E2009001B6EFF0EEA3F0EDA3F0EBA3F09001BF
:1019F200CEE06003021A909001B6E0FBA3E0A3E000
:101A0200A3E07D007E007F009001B6EBF0EDA3F035
:101A1200EEA3F0EFA3F080769001D0E06028900171
:101A2200C7E024FCFFF08F018703098705098706B9
:101A32000987071919199001B6EBF0EDA3F0EEA38F
:101A4200F0EFA3F080489001C7E024FEFFF08F0181
:101A5200870609870719EF3395E0FDFB9001B6EE83
:101A6200F0EFA3F0EDA3F0EBA3F09001CEE0701E37
:101A72009001B6E0FBA3E0FDA3E0A3E07E007F00BF
:101A82009001B6EBF0EDA3F0EEA3F0EFA3F090011E
:101A9200CEE060419001B6E0FBA3E0FDA3E0FEA32F
:101AA200E0FF30E72B9001B6E0FBA3E0FDA3E0FEF0
:101AB200A3E0FFC3E49BFBE49DFDE49EFEE49FFFE5
:101AC2009001B6EBF0EDA3F0EEA3F0EFA3F08005EA
:101AD2009001CEE4F09001D27401F09001D3E0F5D0
:101AE2002F7534E0753501E4F52CF52D9001BAE43B
:101AF200F0852F821214239001D2E070339001BA44
:101B0200E0C454F0F5319001BAE0C4540F4531F508
:101B120031853482853583E0FFE5314207853482A1
:101B2200853583EFF0153474FFB534021535800C1A
:101B32009001BAE0FF853482853583F0052CE4B547
:101B42002C02052D9001D2E0B40100E433F09001A3
:101B5200B6E0FAA3E0FBA3E0FEA3E0FFEA4B4E4FA0
:101B6200708A9001E1E534F0E535A3F09001D8E503
:101B72002CF0E52DA3F09001D4E0F5F0A3E045F0C0
:101B820070099001D47401F0E4A3F09001CBE0FF5E
:101B9200E070479001CAE07041852C34852D359064
:101BA20001D4E0FAA3E0FBC007AF340F8F067F0039
:101BB200C3EE9AEF9BD0075019758220C007C0036D
:101BC200C0021213ACD002D003D0071ABAFF011B15
:101BD20080D59001D4EAF0EBA3F09001CEE0602032
:101BE20075822DC0071213ACD0079001D4E024FFF8
:101BF200FDA3E034FFFE9001D4EDF0EEA3F0805699
:101C02009001D8E0F5F0A3E045F0604A9001CCE005
:101C1200602075822BC0071213ACD0079001D4E06C
:101C220024FFFDA3E034FFFE9001D4EDF0EEA3F01B
:101C320080249001CDE0601E758220C0071213AC93
:101C4200D0079001D4E024FFFDA3E034FFFE900111
:101C5200D4EDF0EEA3F09001CAE070489001D8E014
:101C6200F534A3E0F5359001D4E0FAA3E0FBC00718
:101C72008A068B071ABAFF011BC3E5349EE5359F1E
:101C8200D0075053EF60067D307E0080047D207EB9
:101C9200008D82C007C003C0021213ACD002D00371
:101CA200D00780CA9001D4E0FEA3E0FF9001D8E003
:101CB200F534A3E0F535C3E5349EE5359F500F902A
:101CC20001D4EEC39534F0EF9535A3F08011900165
:101CD200D4E4F0A3F080089001D4EAF0EBA3F090F2
:101CE20001E1E0FEA3E0FF9001D8E0F534A3E0F5C6
:101CF20035AA34AD35153474FFB534021535EA4DC5
:101D020060459001D2E0B40100E433F09001D2E0EA
:101D120070140EBE00010F8E828F83E0C4540FFD3B
:101D22009001BAF0800E8E828F83E0FD53050F90F2
:101D320001BAEDF09001BAE0F582C007C0061213B5
:101D4200E7D006D00780AA9001CAE070030214B857
:101D52009001D4E0FEA3E0FF8E038F051EBEFF01BB
:101D62001FEB4D70030214B8758220C007C0061223
:101D720013ACD006D00780E08C821213AC0214B8E8
:101D82009001BBE0FEA3E08E82F58322AA82AB83A0
:101D9200121DC66003A380F8C3E5829AF582E5832B
:101DA2009BF58322AA83AB828BF09001E3E0A4F837
:101DB200A9F08AF0E0A429F98BF0A3E0A429F58325
:101DC2008882222220F71430F6148883A88220F514
:101DD20007E6A88375830022E280F7E49322E022DB
:041DE20075820022E4
:101DE6000A0D20546F67676C652050303520746F7C
:101DF600206C6F7720746F2073746172742E2E2E90
:101E0600200A0D000A0D202044617461666C61731E
:101E16006820522F572042797465207061737320B1
:101E26000A0D000A0D207772697465204461746199
:101E3600666C617368206572726F722021212120A1
:101E46000A0D000A0D202044617461666C61736896
:101E560020522F572061727261792070617373204E
:101E66000A0D000A0D202044617461666C61736876
:101E760020522F57207374727563742064617461E5
:101E86002070617373200A0D000A0D207772697441
:101E9600652044617461666C6173682020657272A6
:101EA6006F7220212121200A0D000A0D20737973FB
:101EB60074656D31366869676873697465203D209D
:101EC60030782558003C4E4F20464C4F41543E003A
:040000030000005F9A
:00000001FF
