:100000000200493200000000000000320000000041
:10001000000000320000000000000032000000007C
:10002000000000320000000000000032000000006C
:10003000000000320000000000000032000000005C
:090040000000000200A50200DD31
:030049007581328C
:0A004C001212E3E582600302004691
:100056007900E94400601B7A00901315786A75A050
:1000660000E493F2A308B8000205A0D9F4DAF27509
:02007600A0FFE9
:10007800E478FFF6D8FD7800E84400600A79017555
:10008800A000E4F309D8FC7869E84400600C790121
:0A009800900001E4F0A3D8FCD9FAAF
:0300A20002004613
:1000A500C0E0C0D0859123A2AF9201C2AF75C7AAA7
:1000B50075C75553A3F7A20192AFD200E52360138C
:1000C500A2AF9201C2AF75C7AA75C755759101A2B6
:1000D5000192AFD0D0D0E032758206120228120705
:1000E5000D74E7C0E07412C0E07480C0E012087BB4
:1000F5001581158115819000017430F0900002E49E
:10010500F07582011201377582061201627582014E
:10011500120178D2AF10000280FB74F8C0E07412AF
:10012500C0E07480C0E012087B15811581158180BF
:10013500E422E582900003F075910075A30090001C
:1001450002E0FF900001E04F4221900003E00354DC
:1001550080422175C7AA75C7558521A322E58290DE
:100165000004F075910075AB0075C7AA75C755E019
:1001750042AB22E582900005F053A8DF900005E030
:10018500C423542042A822AF83E582900006F0EFF5
:10019500A3F0900006E0FEA3E0FF8E828F83E49338
:1001A500A3E493F58222E582900008F0E04480FF05
:1001B50075C7AA75C7558F9F22E582900009F0E0A3
:1001C5006005438702000022E58290000AF0E060A6
:1001D500054387010000227F007E7F00DEFD0FBF03
:1001E5001A0040F522E58290000BF0E024FF92AF63
:1001F50022AF83E58290000CF0EFA3F01099028006
:10020500FB90000CE0FEA3E08E997F008E828F8329
:10021500223098FD90000EE599F0C29890000EE00E
:10022500F58222E58290000FF0A2AF9201C2AF7570
:10023500C7AA75C755439F01A20192AF759100905A
:10024500000FE0FFBF0602800ABF0702800ABF0851
:100255000F800A75A638800875A630800375A6300C
:1002650075A70075AF04A2AF9201C2AF75C7AA7595
:10027500C75543A401A20192AFAEAEE5A604F5A60B
:10028500A2AF9201C2AF75C7AA75C75543A401A213
:100295000192AFADAEBF0802800302032A8E07EFBD
:1002A5002FFF8D0474015C2FFF74C05FFC743F5FEA
:1002B500FBEF24F2FF900010F075AF0C75A60175E9
:1002C500A700A2AFC2AFA2AF9201C2AF75C7AA7510
:1002D500C75543AA40A20192AF75C7AA75C7554332
:1002E500A401A20192AF744BB5AE02800C7452B555
:1002F500AE0280057453B5AE24BB0F005018BC4048
:10030500028008BC80028003BCC0128F04EC24F27A
:10031500900010F08007EF24FC900010F090001082
:10032500E0FFC313FE75C7AA75C7558E8475C7AAA6
:1003350075C7558D85A2AF9201C2AF75C7AA75C79E
:1003450055539FFEA20192AF22E582900011F0E085
:10035500FFBF0202800ABF03028013BF0456802933
:100365007582021203BA75820212042980467582CB
:1003750003120429A2AF9201C2AF75C7AA75C7556A
:100385005397DFA20192AF802B7582021203BA75D3
:1003950082021204297582041203BA7582041204BA
:1003A50029A2AF9201C2AF75C7AA75C7555397DF8A
:1003B500A20192AF22E582900012F0E0FFBF020297
:1003C5008005BF042A801AA2AF9201C2AF75C7AAE1
:1003D50075C755439720A20192AFE59620E5108099
:1003E500F975C7AA75C7554397C0E59630E3FB2253
:1003F500E582900013F0759100E0FFBF02028005D1
:10040500BF04208015A2AF9201C2AF75C7AA75C7F8
:10041500555397DFA20192AF800975C7AA75C755D5
:1004250053973F22E582900014F0759100A2AF9298
:1004350001C2AF900014E0FFBF0202800ABF0302B1
:10044500802DBF04658050A2AF9201C2AF75C7AAC7
:1004550075C7555396FBA20192AFA2AF9201C2AFE9
:1004650075C7AA75C7555396FDA20192AF803BA2E9
:10047500AF9201C2AF75C7AA75C755439604A201CD
:1004850092AFA2AF9201C2AF75C7AA75C755539671
:10049500FDA20192AF8013A2AF9201C2AF75C7AAA8
:1004A50075C755439608A20192AFA20192AF22AF3C
:1004B50082AE83ADF0FC90001CEFF0EEA3F0EDA34F
:1004C500F0ECA3F0900017E0FF600FBF01030205F9
:1004D50068BF02030206130206A2759850438920DD
:1004E500438780438E10A2AF9201C2AF75C7AA752C
:1004F500C755759100A20192AF53C4DF90001CE06F
:10050500FCA3E0FDA3E0FEA3E0FFEDC4CCC4540FC3
:100515006CCC540FCC6CCCFDEEC454F04DFDEFC447
:10052500CEC4540F6ECE540FCE6ECEFF900018E0A1
:10053500F8A3E0F9A3E0FAA3E0FB900024E8F0E9D2
:10054500A3F0EAA3F0EBA3F08C828D838EF0EF127B
:100555000739AC82AD83AEF0FFC3E49CF58DD28E36
:100565000206A275985043878053C4F8A2AF920142
:10057500C2AF75C7AA75C755759100A20192AF4361
:10058500C42090001CE0FCA3E0FDA3E0FEA3E0FF77
:10059500EDC4CCC4540F6CCC540FCC6CCCFDEEC464
:1005A50054F04DFDEFC4CEC4540F6ECE540FCE6E35
:1005B500CEFF900018E0F8A3E0F9A3E0FAA3E0FB72
:1005C500900024E8F0E9A3F0EAA3F0EBA3F08C8215
:1005D5008D838EF0EF120739AC82AD83AEF0FFE468
:1005E500C39CF8E49DF974019EFAE49FFB89C6C398
:1005F500E49CFC8CC5A2AF9201C2AF75C7AA75C7B2
:1006050055759100A20192AF43C4080206A275F880
:100615005075C48090001CE0FCA3E0FDA3E0FEA3A0
:10062500E0FFEDC4CCC4540F6CCC540FCC6CCCFDA6
:10063500EEC454F04DFDEFC4CEC4540F6ECE540F2E
:10064500CE6ECEFF900018E0F8A3E0F9A3E0FAA380
:10065500E0FB900024E8F0E9A3F0EAA3F0EBA3F0B7
:100665008C828D838EF0EF120739AC82AD83AEF0AC
:10067500FFE4C39CF8E49DF974019EFAE49FFB89AD
:10068500C6C3E49CFC8CC5A2AF9201C2AF75C7AAD4
:1006950075C755759100A20192AF43C40822E58242
:1006A500900020F0900021E4F0900020E0FF60052C
:1006B500BF011A800D3098FD900021E599F0C29890
:1006C500800B30F8FD900021E59AF0C2F8900021EA
:1006D500E0F58222E582900023F0E0FF6005BF018E
:1006E500268011C2AC900022E0F59910990280FB9A
:1006F500D2AC8013539CFE900022E0F59A10F902CB
:1007050080FB439C01D2AF2253B1BF53B2BF9000CF
:1007150017E4F0900018F074C2A3F07401A3F0E49C
:10072500A3F090360075F06E74011204B4D299D21C
:1007350002C2AC22AF82AE83ADF0FC900028EFF090
:10074500EEA3F0EDA3F0ECA3F090002CE4F0A3F001
:10075500A3F0A3F0900024E0FCA3E0FDA3E0FEA33A
:10076500E0FF7B20C003900028E0F8A3E0F9A3E0B8
:10077500FAA3E0FB900030235401F0E828F8E933B0
:10078500F9EA33FAEB33FB900028E8F0E9A3F0EA45
:10079500A3F0EBA3F090002CE0F8A3E0F9A3E0FAB6
:1007A500A3E0FBE828F8E933F9EA33FAEB33FB90E9
:1007B500002CE8F0E9A3F0EAA3F0EBA3F0D0039056
:1007C5000030E0600890002CE043E001F090002C40
:1007D500E0F52FA3E0F530A3E0F531A3E0F532C352
:1007E500E52F9CE5309DE5319EE5329F401F900049
:1007F5002CE52FC39CF0E5309DA3F0E5319EA3F0D9
:10080500E5329FA3F0900028E043E001F01BEB6088
:1008150003020769900028E0FCA3E0FDA3E0FEA326
:10082500E08C828D838EF022C02E85812E7E008EF7
:10083500831201F6D02E22AFF0AE83E5829000320E
:10084500F0EEA3F0EFA3F0900032E0FDA3E0FEA3ED
:10085500E0FF900031E0FC900046E4F0A3F0A3F047
:10086500900049EDF0EEA3F0EFA3F090004CECF012
:1008750090082D020981C02EE581F52E24FBFF90FD
:100885000046E4F0A3F0A3F0E52E24FBF890004920
:10089500E6F008E6A3F008E6A3F090004CEFF09030
:1008A500082D120981D02E22E582900042F0E0FF4A
:1008B500900038E0C0E0A3E0C0E0A3E0C0E012088B
:1008C500C8800D900036E0C0E0A3E0C0E08F822232
:1008D500158115811581900040E02401F0A3E034D5
:1008E50000F022E582900043F0E02430FF24C6505A
:1008F5000D74072FFF900035E060034307208F82BA
:100905000208ADE582900044F0E0FFC4540FF58283
:10091500C0071208E8D00753070F8F820208E8E5E1
:1009250082900045F090003BE0FCA3E0FDA3E0FED3
:10093500A3E0FF90003FE0FB900045E0FA79208BB3
:1009450000E828F52FEF235401452FFBEC2CFCED97
:1009550033FDEE33FEEF33FFC3EB9A4007EBC39A4B
:10096500FB43040119E970D790003BECF0EDA3F0CF
:10097500EEA3F0EFA3F090003FEBF022AF83E5820A
:1009850090004DF0EFA3F090004DE0FEA3E0FF9046
:100995000036EEF0EFA3F0900046E0FDA3E0FEA3E5
:1009A500E0FF900038EDF0EEA3F0EFA3F0900040EB
:1009B500E4F0A3F0900049E0FDA3E0FEA3E0FF8D85
:1009C500828E838FF01212C7FC90004974012DF0BE
:1009D500E43EA3F0EFA3F0EC7003021283BC250202
:1009E500800302127B90004FE4F0900050F09000DD
:1009F50051F0900052F0900053F0900054F09000A8
:100A050055F0900056F0900058F0900059F0A3F082
:100A150090005B14F0A3F0900049E0FDA3E0FEA375
:100A2500E0FF8D828E838FF01212C7FBA3AD82AEDD
:100A350083900049EDF0EEA3F0EFA3F090005FEB9B
:100A4500F0BB25088B821208AD0209B9BB300050F6
:100A550003020B1AEB24C65003020B1A90005BE04D
:100A6500F524A3E0F52574FFB52463B52560C0051D
:100A7500C006C007900059E0FAA3E0FF900068EABD
:100A8500F0EFA3F090000AC005C0031212A7AE82D2
:100A9500AF83D003D0058B027D00EA2EFEED3FFF2C
:100AA500EE24D0FEEF34FFFF900059EEF0EFA3F0F7
:100AB500D007D006D005900059E0F5F0A3E045F049
:100AC5006003020A279000507401F0020A27C0054E
:100AD500C006C007900068E524F0E525A3F0900066
:100AE5000AC006C005C0031212A7AA82AF83D003AD
:100AF500D005D0067E00EB2AFAEE3FFFEA24D0FAB5
:100B0500EF34FFFF90005BEAF0EFA3F0D007D006CB
:100B1500D005020A2790005FE0FBBB2E2FC005C061
:100B250006C00790005BE0FAA3E0FFBAFF05BFFF30
:100B3500028009D007D006D005020A27D007D006C3
:100B4500D00590005BE4F0A3F0020A27BB610040EA
:100B550014EB2485400F90005F74DF5BF090003547
:100B65007401F08005900035E4F090005FE0FBBB78
:100B750020028075BB2B028067BB2D028059BB42CA
:100B850002806FBB4302807CBB4403020E11BB464F
:100B950003020E37BB4803020A27BB4903020E11A5
:100BA500BB4A03020A27BB4C028050BB4F03020E0F
:100BB5001FBB5003020D7FBB53028077BB5403025A
:100BC5000A27BB5503020E27BB5803020E2FBB5A3B
:100BD50003020A27020E3F90004F7401F0020A2714
:100BE5009000517401F0020A279000527401F0023E
:100BF5000A279000547401F0020A279000557401E9
:100C0500F0020A27900054E0600E90004CE014F9C1
:100C1500F090005FE7F0800F90004CE024FEFFF0BD
:100C25008F0190005FE7F090005FE0F5821208AD5C
:100C3500020E4E90004CE024FDFFF08F0187050960
:100C45008706098707191990003BEDF0EEA3F0EF31
:100C5500A3F08D828E838FF012128F858224858377
:100C65002590005BE0FAA3E0FDBAFF0DBDFF0A90F9
:100C7500005BE524F0E525A3F090004FE0704B9074
:100C85000059E0FAA3E0FDC3E5249AE5259D503A15
:100C9500900059EAC39524F0ED9525A3F0900059ED
:100CA500E0FAA3E0FD8A068D071ABAFF011DEE4F93
:100CB5006010758220C005C0021208ADD002D005B3
:100CC50080E3900059EAF0EDA3F090005BE0F52792
:100CD500A3E0F52890003BE0FAA3E0FDA3E0FF8A3E
:100CE500828D838FF01212C7F526603CC3E49527E9
:100CF50074808528F063F08095F0502C152774FFDB
:100D0500B5270215288526821208AD90003BE0FA2A
:100D1500A3E0FDA3E0FF0ABA00010D90003BEAF055
:100D2500EDA3F0EFA3F080AC90004FE07003020E4E
:100D35004E900059E0FEA3E0FFC3E5249EE5259F04
:100D45004003020E4E900059EEC39524F0EF952511
:100D5500A3F0900059E0FEA3E0FF8E028F051EBEB2
:100D6500FF011FEA4D7003020E46758220C007C0C1
:100D7500061208ADD006D00780E090004CE024FDB7
:100D8500FDF08D01872909872A09872B19199000FC
:100D95003BE529F0E52AA3F0E52BA3F090003DE023
:100DA500FDBD8000400890005F7443F08020BD6069
:100DB50000400890005F7450F08013BD400040086B
:100DC50090005F7449F0800690005F7458F09000C1
:100DD5005FE0FDF582C0051208AD75823A1208ADD7
:100DE5007582301208AD7582781208ADD005BD49FF
:100DF50002800EBD5002800990003CE0F582120988
:100E05000890003BE0F582120908803D900053747C
:100E150001F0900058740AF0802F9000587408F083
:100E25008027900058740AF0801F9000587410F0C5
:100E350080179000567401F0800F8B821208AD80E8
:100E450008900059EEF0EFA3F0900056E060719025
:100E5500004CE024FCFFF08F018703098705098713
:100E65000609870719191990003BEBF0EDA3F0EE81
:100E7500A3F0EFA3F090003B740AF07413A3F07491
:100E850080A3F090003BE0F529A3E0F52AA3E0F567
:100E95002B74012529FAE4352AFBAF2B90003BEA98
:100EA500F0EBA3F0EFA3F0852982852A83852BF04B
:100EB5001212C7FF70030209B98F821208AD80C3F1
:100EC500900058E070030209B9900054E060479023
:100ED500004CE014F9F087077E007D007B00900050
:100EE5003BEFF0EEA3F0EDA3F0EBA3F0900053E0A1
:100EF5006003020F9190003BE0FBA3E0A3E0A3E0B9
:100F05007D007E007F0090003BEBF0EDA3F0EEA3AB
:100F1500F0EFA3F08076900055E0602890004CE05B
:100F250024FCFFF08F0187030987050987060987D8
:100F35000719191990003BEBF0EDA3F0EEA3F0EFC4
:100F4500A3F0804890004CE024FEFFF08F01870657
:100F550009870719EF3395E0FDFB90003BEEF0EFB5
:100F6500A3F0EDA3F0EBA3F0900053E0701E90000A
:100F75003BE0FBA3E0FDA3E0A3E07E007F00900043
:100F85003BEBF0EDA3F0EEA3F0EFA3F0900053E000
:100F9500604190003BE0FBA3E0FDA3E0FEA3E0FF82
:100FA50030E72B90003BE0FBA3E0FDA3E0FEA3E0D0
:100FB500FFC3E49BFBE49DFDE49EFEE49FFF9000E0
:100FC5003BEBF0EDA3F0EEA3F0EFA3F0800590006E
:100FD50053E4F09000577401F0900058E0F5277540
:100FE5002C65752D00E4F524F52590003FE4F0858A
:100FF5002782120924900057E0703390003FE0C427
:1010050054F0F52990003FE0C4540F4529F5298592
:101015002C82852D83E0FFE5294207852C82852DCD
:1010250083EFF0152C74FFB52C02152D800C900064
:101035003FE0FF852C82852D83F00524E4B524024D
:101045000525900057E0B40100E433F090003BE043
:10105500FAA3E0FBA3E0FEA3E0FFEA4B4E4F708A44
:10106500900066E52CF0E52DA3F090005DE524F0F9
:10107500E525A3F0900059E0F5F0A3E045F07009EF
:101085009000597401F0E4A3F0900050E0FFE07087
:101095004790004FE0704185242C85252D900059FF
:1010A500E0FAA3E0FBC007AF2C0F8F067F00C3EE6D
:1010B5009AEF9BD0075019758220C007C003C00264
:1010C5001208ADD002D003D0071ABAFF011B80D594
:1010D500900059EAF0EBA3F0900053E06020758290
:1010E5002DC0071208ADD007900059E024FFFDA3DD
:1010F500E034FFFE900059EDF0EEA3F0805690002D
:101105005DE0F5F0A3E045F0604A900051E0602015
:1011150075822BC0071208ADD007900059E024FF57
:10112500FDA3E034FFFE900059EDF0EEA3F080241E
:10113500900052E0601E758220C0071208ADD007EE
:10114500900059E024FFFDA3E034FFFE900059ED27
:10115500F0EEA3F090004FE0704890005DE0F52CB4
:10116500A3E0F52D900059E0FAA3E0FBC0078A063D
:101175008B071ABAFF011BC3E52C9EE52D9FD007EF
:101185005053EF60067D307E0080047D207E008D0B
:1011950082C007C003C0021208ADD002D003D00739
:1011A50080CA900059E0FEA3E0FF90005DE0F52CB9
:1011B500A3E0F52DC3E52C9EE52D9F500F9000591A
:1011C500EEC3952CF0EF952DA3F08011900059E416
:1011D500F0A3F08008900059EAF0EBA3F0900066C8
:1011E500E0FEA3E0FF90005DE0F52CA3E0F52DAA5D
:1011F5002CAD2D152C74FFB52C02152DEA4D60452F
:10120500900057E0B40100E433F0900057E070140B
:101215000EBE00010F8E828F83E0C4540FFD900037
:101225003FF0800E8E828F83E0FD53050F90003FC7
:10123500EDF090003FE0F582C007C0061208E8D047
:1012450006D00780AA90004FE070030209B990000C
:1012550059E0FEA3E0FF8E038F051EBEFF011FEBC5
:101265004D70030209B9758220C007C0061208AD8A
:10127500D006D00780E08C821208AD0209B9900033
:1012850040E0FEA3E08E82F58322AA82AB83121290
:10129500C76003A380F8C3E5829AF582E5839BF5D1
:1012A5008322AA83AB828BF0900068E0A4F8A9F0B2
:1012B5008AF0E0A429F98BF0A3E0A429F5838882BC
:1012C500222220F71430F6148883A88220F507E639
:1012D500A88375830022E280F7E49322E0227582D9
:0212E5000022E5
:1012E7000A2054657374207374617274202E2E2E35
:1012F700000A20424F4420696E74657272757074DB
:0E1307002120003C4E4F20464C4F41543E00EA
:04000003000000A257
:00000001FF
