:100000000200513200000000000000320000000039
:10001000000000320000000000000032000000007C
:10002000000000320000000000000032000000006C
:10003000000000320000000000000032000000005C
:1000400000000032000000000000000200AD0201CC
:01005000B9F6
:0300510075813284
:0A0054001213C6E582600302004E9D
:10005E007900E94400601B7A00901429786E75A02F
:10006E0000E493F2A308B8000205A0D9F4DAF27501
:02007E00A0FFE1
:10008000E478FFF6D8FD7800E84400600A7901754D
:10009000A000E4F309D8FC786DE84400600C790115
:0A00A000900001E4F0A3D8FCD9FAA7
:0300AA0002004E03
:1000AD00C0E0C082C083C007C0D075D00053F47FBC
:1000BD0020001F900006E02401F582E43400F58352
:1000CD00E5F5F0900006E02401F0E0FF9013CA93EF
:1000DD00F5F5C200900006E0FFBF0502D201D0D0B9
:1000ED00D007D083D082D0E03274CFC0E07413C07B
:1000FD00E07480C0E012095E15811581158180FEC6
:10010D002253B3DF53B4DF53B3FE53B4FE53B1FEEA
:10011D0053B2FE53B1FD53B2FDA2AF9202C2AF7501
:10012D00C7AA75C755759100A20292AF53F3EFA2FE
:10013D00AF9202C2AF75C7AA75C755759100A202DD
:10014D0092AF53F3DFA2AF9202C2AF75C7AA75C7C4
:10015D0055759100A20292AF53F3F7A2AF9202C26E
:10016D00AF75C7AA75C755759100A20292AF43F33B
:10017D0004439B40D2AFA2AF9202C2AF75C7AA751E
:10018D00C755759100A20292AF43F34053F47F908F
:10019D0013CAE493F5F522539BBFD20075824F121B
:1001AD0002DB75824E1202DB439B402275820612E2
:1001BD00030B1207F074E5C0E07413C0E07480C047
:1001CD00E012095E15811581158112010E3001FDB8
:1001DD001201A453F47F75F500900001E0FFBF906C
:1001ED000280031200F6900002E0FFBF01028003BF
:1001FD001200F6900003E0FFBF020280031200F62A
:10020D00900004E0FFBF030280031200F69000058A
:10021D00E0FFBF040280031200F67403C0E0741403
:10022D00C0E07480C0E012095E15811581158180D2
:10023D00FE22AF83E582900007F0EFA3F090000758
:10024D00E0FEA3E0FF8E828F83E493A3E493F58217
:10025D0022E582900009F0E04480FF75C7AA75C7BA
:10026D00558F9F22E58290000AF0E06005438702DA
:10027D00000022E58290000BF0E06005438701004D
:10028D0000227F007E7F00DEFD0FBF1A0040F522A9
:10029D00E58290000CF0E024FF92AF22AF83E5825F
:1002AD0090000DF0EFA3F010990280FB90000DE08F
:1002BD00FEA3E08E997F008E828F83223098FD9071
:1002CD00000FE599F0C29890000FE0F58222E582CB
:1002DD00900010F0E0F5F5E5F430E7FB53F47F22E4
:1002ED00E582900011F0E0F5F5E5F430E7FB9000C4
:1002FD0012E5F5F053F47F900012E0F58222E582CD
:10030D00900013F0A2AF9202C2AF75C7AA75C75580
:10031D00439F01A20292AF759100900013E0FFBFC1
:10032D000602800ABF0702800ABF080F800A75A661
:10033D0038800875A630800375A63075A70075AF97
:10034D0004A2AF9202C2AF75C7AA75C75543A401E7
:10035D00A20292AFAEAEE5A604F5A6A2AF9202C27E
:10036D00AF75C7AA75C75543A401A20292AFADAE32
:10037D00BF0802800302040D8E07EF2FFF8D04745A
:10038D00015C2FFF74C05FFC743F5FFBEF24F2FF35
:10039D00900014F075AF0C75A60175A700A2AFC241
:1003AD00AFA2AF9202C2AF75C7AA75C75543AA4097
:1003BD00A20292AF75C7AA75C75543A401A20292B6
:1003CD00AF744BB5AE02800C7452B5AE028005749D
:1003DD0053B5AE24BB0F005018BC40028008BC8042
:1003ED00028003BCC0128F04EC24F2900014F08044
:1003FD0007EF24FC900014F0900014E0FFC313FEEF
:10040D0075C7AA75C7558E8475C7AA75C7558D85CD
:10041D00A2AF9202C2AF75C7AA75C755539FFEA270
:10042D000292AF22E582900015F0E0FFBF0202803C
:10043D000ABF03028013BF0456802975820212047D
:10044D009D75820212050C804675820312050CA261
:10045D00AF9202C2AF75C7AA75C7555397DFA202F7
:10046D0092AF802B75820212049D75820212050CCB
:10047D0075820412049D75820412050CA2AF9202BE
:10048D00C2AF75C7AA75C7555397DFA20292AF22A7
:10049D00E582900016F0E0FFBF02028005BF042A3E
:1004AD00801AA2AF9202C2AF75C7AA75C7554397FE
:1004BD0020A20292AFE59620E51080F975C7AA75C6
:1004CD00C7554397C0E59630E3FB22E582900017B0
:1004DD00F0759100E0FFBF02028005BF042080157A
:1004ED00A2AF9202C2AF75C7AA75C7555397DFA2C7
:1004FD000292AF800975C7AA75C75553973F22E57C
:10050D0082900018F0759100A2AF9202C2AF9000D8
:10051D0018E0FFBF0202800ABF0302802DBF0465F1
:10052D008050A2AF9202C2AF75C7AA75C755539638
:10053D00FBA20292AFA2AF9202C2AF75C7AA75C756
:10054D00555396FDA20292AF803BA2AF9202C2AF6D
:10055D0075C7AA75C755439604A20292AFA2AF9272
:10056D0002C2AF75C7AA75C7555396FDA20292AFC9
:10057D008013A2AF9202C2AF75C7AA75C755439635
:10058D0008A20292AFA20292AF22AF82AE83ADF06B
:10059D00FC900020EFF0EEA3F0EDA3F0ECA3F090B3
:1005AD00001BE0FF600FBF010302064BBF020302F9
:1005BD0006F6020785759850438920438780438E40
:1005CD0010A2AF9202C2AF75C7AA75C7557591003B
:1005DD00A20292AF53C4DF900020E0FCA3E0FDA384
:1005ED00E0FEA3E0FFEDC4CCC4540F6CCC540FCC93
:1005FD006CCCFDEEC454F04DFDEFC4CEC4540F6E63
:10060D00CE540FCE6ECEFF90001CE0F8A3E0F9A300
:10061D00E0FAA3E0FB900028E8F0E9A3F0EAA3F0EC
:10062D00EBA3F08C828D838EF0EF12081CAC82ADA3
:10063D0083AEF0FFC3E49CF58DD28E0207857598CD
:10064D005043878053C4F8A2AF9202C2AF75C7AAB8
:10065D0075C755759100A20292AF43C4209000203A
:10066D00E0FCA3E0FDA3E0FEA3E0FFEDC4CCC45489
:10067D000F6CCC540FCC6CCCFDEEC454F04DFDEF93
:10068D00C4CEC4540F6ECE540FCE6ECEFF90001C50
:10069D00E0F8A3E0F9A3E0FAA3E0FB900028E8F06E
:1006AD00E9A3F0EAA3F0EBA3F08C828D838EF0EF3B
:1006BD0012081CAC82AD83AEF0FFE4C39CF8E49D40
:1006CD00F974019EFAE49FFB89C6C3E49CFC8CC5BA
:1006DD00A2AF9202C2AF75C7AA75C755759100A298
:1006ED000292AF43C40802078575F85075C4809017
:1006FD000020E0FCA3E0FDA3E0FEA3E0FFEDC4CCF1
:10070D00C4540F6CCC540FCC6CCCFDEEC454F04DD6
:10071D00FDEFC4CEC4540F6ECE540FCE6ECEFF90EF
:10072D00001CE0F8A3E0F9A3E0FAA3E0FB90002899
:10073D00E8F0E9A3F0EAA3F0EBA3F08C828D838EB1
:10074D00F0EF12081CAC82AD83AEF0FFE4C39CF851
:10075D00E49DF974019EFAE49FFB89C6C3E49CFCF9
:10076D008CC5A2AF9202C2AF75C7AA75C755759158
:10077D0000A20292AF43C40822E582900024F090BB
:10078D000025E4F0900024E0FF6005BF011A800D04
:10079D003098FD900025E599F0C298800B30F8FD5A
:1007AD00900025E59AF0C2F8900025E0F58222E54B
:1007BD0082900027F0E0FF6005BF01268011C2ACDA
:1007CD00900026E0F59910990280FBD2AC8013536E
:1007DD009CFE900026E0F59A10F90280FB439C01E7
:1007ED00D2AF2253B1BF53B2BF90001BE4F09000C3
:1007FD001CF074C2A3F07401A3F0E4A3F0903600D2
:10080D0075F06E7401120597D299D203C2AC22AF66
:10081D0082AE83ADF0FC90002CEFF0EEA3F0EDA3D3
:10082D00F0ECA3F0900030E4F0A3F0A3F0A3F0906F
:10083D000028E0FCA3E0FDA3E0FEA3E0FF7B20C0C9
:10084D000390002CE0F8A3E0F9A3E0FAA3E0FB90FD
:10085D000034235401F0E828F8E933F9EA33FAEBD0
:10086D0033FB90002CE8F0E9A3F0EAA3F0EBA3F042
:10087D00900030E0F8A3E0F9A3E0FAA3E0FBE8284C
:10088D00F8E933F9EA33FAEB33FB900030E8F0E99D
:10089D00A3F0EAA3F0EBA3F0D003900034E06008DE
:1008AD00900030E043E001F0900030E0F52FA3E040
:1008BD00F530A3E0F531A3E0F532C3E52F9CE5302B
:1008CD009DE5319EE5329F401F900030E52FC39C82
:1008DD00F0E5309DA3F0E5319EA3F0E5329FA3F046
:1008ED0090002CE043E001F01BEB600302084C90FC
:1008FD00002CE0FCA3E0FDA3E0FEA3E08C828D8341
:10090D008EF022C02E85812E7E008E831202A9D0FC
:10091D002E22AFF0AE83E582900036F0EEA3F0EF1D
:10092D00A3F0900036E0FDA3E0FEA3E0FF900035BC
:10093D00E0FC90004AE4F0A3F0A3F090004DEDF040
:10094D00EEA3F0EFA3F0900050ECF0900910020A26
:10095D0064C02EE581F52E24FBFF90004AE4F0A340
:10096D00F0A3F0E52E24FBF890004DE6F008E6A389
:10097D00F008E6A3F0900050EFF0900910120A6411
:10098D00D02E22E582900046F0E0FF90003CE0C0C2
:10099D00E0A3E0C0E0A3E0C0E01209AB800D900041
:1009AD003AE0C0E0A3E0C0E08F82221581158115E9
:1009BD0081900044E02401F0A3E03400F022E582B0
:1009CD00900047F0E02430FF24C6500D74072FFF30
:1009DD00900039E060034307208F82020990E58281
:1009ED00900048F0E0FFC4540FF582C0071209CB08
:1009FD00D00753070F8F820209CBE582900049F093
:100A0D0090003FE0FCA3E0FDA3E0FEA3E0FF90001B
:100A1D0043E0FB900049E0FA79208B00E828F52FA0
:100A2D00EF235401452FFBEC2CFCED33FDEE33FE93
:100A3D00EF33FFC3EB9A4007EBC39AFB4304011955
:100A4D00E970D790003FECF0EDA3F0EEA3F0EFA32B
:100A5D00F0900043EBF022AF83E582900051F0EF70
:100A6D00A3F0900051E0FEA3E0FF90003AEEF0EF0E
:100A7D00A3F090004AE0FDA3E0FEA3E0FF90003C50
:100A8D00EDF0EEA3F0EFA3F0900044E4F0A3F090AE
:100A9D00004DE0FDA3E0FEA3E0FF8D828E838FF07D
:100AAD001213AAFC90004D74012DF0E43EA3F0EF5B
:100ABD00A3F0EC7003021366BC2502800302135EE3
:100ACD00900053E4F0900054F0900055F0900056D3
:100ADD00F0900057F0900058F0900059F090005AA7
:100AED00F090005CF090005DF0A3F090005F14F0CA
:100AFD00A3F090004DE0FDA3E0FEA3E0FF8D828EFC
:100B0D00838FF01213AAFBA3AD82AE8390004DED3F
:100B1D00F0EEA3F0EFA3F0900063EBF0BB25088B94
:100B2D0082120990020A9CBB30005003020BFDEBB0
:100B3D0024C65003020BFD90005FE0F524A3E0F501
:100B4D002574FFB52463B52560C005C006C00790A8
:100B5D00005DE0FAA3E0FF90006CEAF0EFA3F090E7
:100B6D00000AC005C00312138AAE82AF83D003D032
:100B7D00058B027D00EA2EFEED3FFFEE24D0FEEF49
:100B8D0034FFFF90005DEEF0EFA3F0D007D006D05C
:100B9D000590005DE0F5F0A3E045F06003020B0A5F
:100BAD009000547401F0020B0AC005C006C00790F6
:100BBD00006CE524F0E525A3F090000AC006C00501
:100BCD00C00312138AAA82AF83D003D005D0067E4C
:100BDD0000EB2AFAEE3FFFEA24D0FAEF34FFFF9044
:100BED00005FEAF0EFA3F0D007D006D005020B0AA4
:100BFD00900063E0FBBB2E2FC005C006C007900020
:100C0D005FE0FAA3E0FFBAFF05BFFF028009D0073E
:100C1D00D006D005020B0AD007D006D00590005F94
:100C2D00E4F0A3F0020B0ABB61004014EB248540F5
:100C3D000F90006374DF5BF09000397401F0800554
:100C4D00900039E4F0900063E0FBBB20028075BB9F
:100C5D002B028067BB2D028059BB4202806FBB43C4
:100C6D0002807CBB4403020EF4BB4603020F1ABB89
:100C7D004803020B0ABB4903020EF4BB4A03020BE5
:100C8D000ABB4C028050BB4F03020F02BB50030244
:100C9D000E62BB53028077BB5403020B0ABB550394
:100CAD00020F0ABB5803020F12BB5A03020B0A02B2
:100CBD000F229000537401F0020B0A90005574013D
:100CCD00F0020B0A9000567401F0020B0A900058C6
:100CDD007401F0020B0A9000597401F0020B0A9096
:100CED000058E0600E900050E014F9F0900063E7BA
:100CFD00F0800F900050E024FEFFF08F0190006314
:100D0D00E7F0900063E0F582120990020F31900038
:100D1D0050E024FDFFF08F0187050987060987073D
:100D2D00191990003FEDF0EEA3F0EFA3F08D828E38
:100D3D00838FF012137285822485832590005FE0E6
:100D4D00FAA3E0FDBAFF0DBDFF0A90005FE524F0A8
:100D5D00E525A3F0900053E0704B90005DE0FAA301
:100D6D00E0FDC3E5249AE5259D503A90005DEAC368
:100D7D009524F0ED9525A3F090005DE0FAA3E0FD3C
:100D8D008A068D071ABAFF011DEE4F60107582207D
:100D9D00C005C002120990D002D00580E390005D1D
:100DAD00EAF0EDA3F090005FE0F527A3E0F52890C1
:100DBD00003FE0FAA3E0FDA3E0FF8A828D838FF070
:100DCD001213AAF526603CC3E4952774808528F09C
:100DDD0063F08095F0502C152774FFB52702152868
:100DED0085268212099090003FE0FAA3E0FDA3E072
:100DFD00FF0ABA00010D90003FEAF0EDA3F0EFA35A
:100E0D00F080AC900053E07003020F3190005DE074
:100E1D00FEA3E0FFC3E5249EE5259F4003020F31AD
:100E2D0090005DEEC39524F0EF9525A3F090005D45
:100E3D00E0FEA3E0FF8E028F051EBEFF011FEA4DEF
:100E4D007003020F29758220C007C006120990D0C9
:100E5D0006D00780E0900050E024FDFDF08D018765
:100E6D002909872A09872B191990003FE529F0E5F3
:100E7D002AA3F0E52BA3F0900041E0FDBD800040DA
:100E8D00089000637443F08020BD6000400890001E
:100E9D00637450F08013BD400040089000637449A6
:100EAD00F080069000637458F0900063E0FDF582C9
:100EBD00C00512099075823A120990758230120997
:100ECD0090758278120990D005BD4902800EBD50F3
:100EDD00028009900040E0F5821209EB90003FE09E
:100EED00F5821209EB803D9000577401F090005C83
:100EFD00740AF0802F90005C7408F0802790005CDD
:100F0D00740AF0801F90005C7410F0801790005AE6
:100F1D007401F0800F8B82120990800890005DEEB5
:100F2D00F0EFA3F090005AE06071900050E024FCC7
:100F3D00FFF08F01870309870509870609870719C0
:100F4D00191990003FEBF0EDA3F0EEA3F0EFA3F035
:100F5D0090003F741EF07414A3F07480A3F0900001
:100F6D003FE0F529A3E0F52AA3E0F52B740125292F
:100F7D00FAE4352AFBAF2B90003FEAF0EBA3F0EF3C
:100F8D00A3F0852982852A83852BF01213AAFF7081
:100F9D0003020A9C8F8212099080C390005CE0705E
:100FAD0003020A9C900058E06047900050E014F94D
:100FBD00F087077E007D007B0090003FEFF0EEA3F1
:100FCD00F0EDA3F0EBA3F0900057E0600302107476
:100FDD0090003FE0FBA3E0A3E0A3E07D007E007F57
:100FED000090003FEBF0EDA3F0EEA3F0EFA3F08047
:100FFD0076900059E06028900050E024FCFFF08FBF
:10100D0001870309870509870609870719191990AB
:10101D00003FEBF0EDA3F0EEA3F0EFA3F0804890CE
:10102D000050E024FEFFF08F01870609870719EFB6
:10103D003395E0FDFB90003FEEF0EFA3F0EDA3F054
:10104D00EBA3F0900057E0701E90003FE0FBA3E093
:10105D00FDA3E0A3E07E007F0090003FEBF0EDA349
:10106D00F0EEA3F0EFA3F0900057E0604190003F49
:10107D00E0FBA3E0FDA3E0FEA3E0FF30E72B900033
:10108D003FE0FBA3E0FDA3E0FEA3E0FFC3E49BFB79
:10109D00E49DFDE49EFEE49FFF90003FEBF0EDA389
:1010AD00F0EEA3F0EFA3F08005900057E4F0900070
:1010BD005B7401F090005CE0F527752C69752D00CF
:1010CD00E4F524F525900043E4F0852782120A0704
:1010DD0090005BE07033900043E0C454F0F529902C
:1010ED000043E0C4540F4529F529852C82852D83B5
:1010FD00E0FFE5294207852C82852D83EFF0152C25
:10110D0074FFB52C02152D800C900043E0FF852C4B
:10111D0082852D83F00524E4B52402052590005B1E
:10112D00E0B40100E433F090003FE0FAA3E0FBA34C
:10113D00E0FEA3E0FFEA4B4E4F708A90006AE52C6B
:10114D00F0E52DA3F0900061E524F0E525A3F090E6
:10115D00005DE0F5F0A3E045F0700990005D7401CD
:10116D00F0E4A3F0900054E0FFE07047900053E0EE
:10117D00704185242C85252D90005DE0FAA3E0FBC0
:10118D00C007AF2C0F8F067F00C3EE9AEF9BD007E1
:10119D005019758220C007C003C002120990D002F9
:1011AD00D003D0071ABAFF011B80D590005DEAF07D
:1011BD00EBA3F0900057E0602075822DC007120957
:1011CD0090D00790005DE024FFFDA3E034FFFE907A
:1011DD00005DEDF0EEA3F08056900061E0F5F0A318
:1011ED00E045F0604A900055E0602075822BC00705
:1011FD00120990D00790005DE024FFFDA3E034FFBD
:10120D00FE90005DEDF0EEA3F08024900056E060BE
:10121D001E758220C007120990D00790005DE02452
:10122D00FFFDA3E034FFFE90005DEDF0EEA3F09026
:10123D000053E07048900061E0F52CA3E0F52D908F
:10124D00005DE0FAA3E0FBC0078A068B071ABAFF20
:10125D00011BC3E52C9EE52D9FD0075053EF600673
:10126D007D307E0080047D207E008D82C007C0030E
:10127D00C002120990D002D003D00780CA90005D41
:10128D00E0FEA3E0FF900061E0F52CA3E0F52DC397
:10129D00E52C9EE52D9F500F90005DEEC3952CF033
:1012AD00EF952DA3F0801190005DE4F0A3F0800880
:1012BD0090005DEAF0EBA3F090006AE0FEA3E0FF82
:1012CD00900061E0F52CA3E0F52DAA2CAD2D152C89
:1012DD0074FFB52C02152DEA4D604590005BE0B40E
:1012ED000100E433F090005BE070140EBE00010FBE
:1012FD008E828F83E0C4540FFD900043F0800E8EDC
:10130D00828F83E0FD53050F900043EDF090004375
:10131D00E0F582C007C0061209CBD006D00780AA1F
:10132D00900053E07003020A9C90005DE0FEA3E084
:10133D00FF8E038F051EBEFF011FEB4D7003020ACA
:10134D009C758220C007C006120990D006D0078078
:10135D00E08C82120990020A9C900044E0FEA3E00A
:10136D008E82F58322AA82AB831213AA6003A38017
:10137D00F8C3E5829AF582E5839BF58322AA83ABB8
:10138D00828BF090006CE0A4F8A9F08AF0E0A4291B
:10139D00F98BF0A3E0A429F5838882222220F7148B
:1013AD0030F6148883A88220F507E6A8837583009C
:0D13BD0022E280F7E49322E02275820022F4
:1013CA004E55564F540A20535049207472616E7319
:1013DA00666572206572726F7221000A0D20535081
:1013EA004920736C6176652072656365697665204C
:1013FA0073746172742E2E2E000A0D2053504920E8
:10140A00736C617665207265636569766520646FC1
:0F141A006E652E003C4E4F20464C4F41543E0015
:04000003000000AA4F
:00000001FF
