:100000000200293200000000000000320000000061
:10001000000000320000000000000032000000007C
:090020000000000200850200C589
:0300290075812FAF
:0A002C00120C89E582600302002631
:100036007900E94400601B7A00900C8D785475A015
:1000460000E493F2A308B8000205A0D9F4DAF27529
:02005600A0FF09
:10005800E478FFF6D8FD7800E84400600A79017575
:10006800A000E4F309D8FC7853E84400600C790157
:0A007800900001E4F0A3D8FCD9FACF
:0300820002002653
:10008500C0E0C082C083C0D085912330980AD202D7
:10009500900034E599F0C298309905200102C29983
:1000A500E5236013A2AF9200C2AF75C7AA75C75505
:1000B500759101A20092AFD0D0D083D082D0E0322A
:1000C50053B1DF53B2DF75820612061853B1BF5321
:1000D500B2BF9000367401F0900037E4F074C2A30B
:1000E500F07401A3F0E4A3F090360075F06E74018E
:1000F5001208A4D2ACD2AF3002FDB285900034E034
:10010500900041F0758200120AC9C20280E922AF4F
:1001150083E582900001F0EFA3F0900001E0FEA3DB
:10012500E0FF8E828F83E493A3E493F58222E58238
:10013500900003F0E04480FF75C7AA75C7558F9FEF
:1001450022E582900004F0E060054387020000226A
:10015500E582900005F0E060054387010000227FFD
:10016500007E7F00DEFD0FBF1A0040F522E582907C
:100175000006F0E024FF92AF22AF82AE83ADF0FC23
:1001850090000BEFF0EEA3F0EDA3F0ECA3F0538E8F
:10019500F75389F043890190000BE0FCA3E0FDA330
:1001A500E0FEA3E0FF9000437440F07442A3F074B6
:1001B5000FA3F0E4A3F08C828D838EF0EF120B2950
:1001C500AC82AD83AEF0FF900009E0FAA3E0FB90AE
:1001D5000050EAF0EBA3F0E4A3F0A3F08C828D834A
:1001E5008EF0EF120C1DAC82AD83AEF0FF90004394
:1001F500740CF0E4A3F0A3F0A3F08C828D838EF051
:10020500EF120B29AC82AD83AEF0FF8C0374FFC3F4
:100215009BFB74FFC39C74FF9DFDE49EE49F8D07CB
:10022500900007E0FDA3E0FEED4E60148B8A8F8CF5
:10023500D28C108D0280FBC28C1DBDFF011E80E893
:1002450022AF82AE83ADF0FC900013EFF0EEA3F089
:10025500EDA3F0ECA3F0538EEF53890F4389109073
:100265000013E0FCA3E0FDA3E0FEA3E0FF90004344
:100275007440F07442A3F0740FA3F0E4A3F08C82F1
:100285008D838EF0EF120B29AC82AD83AEF0FF901B
:100295000011E0FAA3E0FB900050EAF0EBA3F0E4D4
:1002A500A3F0A3F08C828D838EF0EF120C1DAC822F
:1002B500AD83AEF0FF900043740CF0E4A3F0A3F01F
:1002C500A3F08C828D838EF0EF120B29AC82AD8367
:1002D500AEF0FF8C0374FFC39BFB74FFC39C74FFDC
:1002E5009DFDE49EE49F8D0790000FE0FDA3E0FED9
:1002F500ED4E60148B8B8F8DD28E108F0280FBC2DA
:100305008E1DBDFF011E80E822AF82AE83ADF0FCDD
:1003150090001FEFF0EEA3F0EDA3F0ECA3F07591C4
:1003250000900017E0FEA3E0FF8E048F05BC0105D9
:10033500BD00028038BC0405BD00028035BC100537
:10034500BD00028035BC2005BD00028035BC4005DE
:10035500BD00028035BC8005BD00028035BC0005AE
:10036500BD01028035BC0040BD023D803553C98FBB
:10037500803653C98F43C910802E53C98F43C92076
:10038500802653C98F43C930801E53C98F43C94046
:10039500801653C98F43C950800E53C98F43C96016
:1003A500800653C98F43C970C2C843C98043C90475
:1003B50090001FE0FAA3E0FBA3E0FCA3E0FD9000A2
:1003C500437440F07442A3F0740FA3F0E4A3F08AE1
:1003D500828B838CF0EDC007C006120B2985822421
:1003E50085832585F026F52790001BE0F8A3E0F925
:1003F500A3E0FCA3E0FD900050E8F0E9A3F0ECA336
:10040500F0EDA3F08524828525838526F0E5271266
:100415000C1DAA82AB83ACF0FDD006D0079000433B
:10042500EEF0EFA3F0E4A3F0A3F08A828B838CF0C7
:10043500ED120B29AC82AD83AEF0FF8C03C3E49BB8
:10044500FBE4C39CE49DFD74019EE49F8D07900031
:1004550019E0FDA3E0FEED4E60148BCC8FCDD2CA22
:1004650010CF0280FBC2CA1DBDFF011E80E822AF6E
:1004750082AE83ADF0FC90002AEFF0EEA3F0EDA381
:10048500F0ECA3F0759100900023E0FFBF0102801E
:1004950023BF02028023BF04028026BF08028029F1
:1004A500BF1002802CBF2002802FBF40028032BFC8
:1004B500803D803553C4F8803653C4F843C4018069
:1004C5002E53C4F843C402802653C4F843C40380A2
:1004D5001E53C4F843C404801653C4F843C40580AE
:1004E5000E53C4F843C406800653C4F843C40790AA
:1004F500002AE0FBA3E0FCA3E0FDA3E0FE9000439F
:100505007440F07442A3F0740FA3F0E4A3F08B825F
:100515008C838DF0EEC007120B29858228858329EF
:1005250085F02AF52B900026E0F8A3E0F9A3E0FA80
:10053500A3E0FE900050E8F0E9A3F0EAA3F0EEA3F3
:10054500F0852882852983852AF0E52B120C1DABC1
:1005550082AC83ADF0FED007900043EFF0E4A3F04A
:10056500A3F0A3F08B828C838DF0EE120B29AC8265
:10057500AD83AEF0FF8C03C3E49BFBE4C39CE49D19
:10058500FD74019EE49F8D07900024E0FDA3E0FE2D
:10059500ED4E6068A2AF9200C2AF75C7AA75C75588
:1005A500759100A20092AF53C4EF8BC58FC6A2AF61
:1005B5009200C2AF75C7AA75C755759100A2009282
:1005C500AF43C408E5C430E4FBA2AF9200C2AF75E7
:1005D500C7AA75C755759100A20092AF53C4EFA283
:1005E500AF9200C2AF75C7AA75C755759100A20035
:1005F50092AF53C4F71DBDFF011E8094A2AF9200B8
:10060500C2AF75C7AA75C755759100A20092AF53C1
:10061500C4F722E58290002EF0A2AF9200C2AF751A
:10062500C7AA75C755439F01A20092AF7591009067
:10063500002EE0FFBF0602800ABF0702800ABF083E
:100645000F800A75A638800875A630800375A63018
:1006550075A70075AF04A2AF9200C2AF75C7AA75A2
:10066500C75543A401A20092AFAEAEE5A604F5A618
:10067500A2AF9200C2AF75C7AA75C75543A401A220
:100685000092AFADAEBF0802800302071A8E07EFD6
:100695002FFF8D0474015C2FFF74C05FFC743F5FF6
:1006A500FBEF24F2FF90002FF075AF0C75A60175D6
:1006B500A700A2AFC2AFA2AF9200C2AF75C7AA751D
:1006C500C75543AA40A20092AF75C7AA75C755433F
:1006D500A401A20092AF744BB5AE02800C7452B562
:1006E500AE0280057453B5AE24BB0F005018BC4054
:1006F500028008BC80028003BCC0128F04EC24F287
:1007050090002FF08007EF24FC90002FF090002F31
:10071500E0FFC313FE75C7AA75C7558E8475C7AAB2
:1007250075C7558D85A2AF9200C2AF75C7AA75C7AB
:1007350055539FFEA20092AF22E582900030F0E073
:10074500FFBF0202800ABF03028013BF045680293F
:100755007582021207AA75820212081980467582EF
:1007650003120819A2AF9200C2AF75C7AA75C75583
:100775005397DFA20092AF802B7582021207AA75EC
:1007850082021208197582041207AA7582041208DA
:1007950019A2AF9200C2AF75C7AA75C7555397DFA7
:1007A500A20092AF22E582900031F0E0FFBF020285
:1007B5008005BF042A801AA2AF9200C2AF75C7AAEE
:1007C50075C755439720A20092AFE59620E51080A6
:1007D500F975C7AA75C7554397C0E59630E3FB225F
:1007E500E582900032F0759100E0FFBF02028005BE
:1007F500BF04208015A2AF9200C2AF75C7AA75C706
:10080500555397DFA20092AF800975C7AA75C755E2
:1008150053973F22E582900033F0759100A2AF9285
:1008250000C2AF900033E0FFBF0202800ABF03029F
:10083500802DBF04658050A2AF9200C2AF75C7AAD4
:1008450075C7555396FBA20092AFA2AF9200C2AFF7
:1008550075C7AA75C7555396FDA20092AF803BA2F6
:10086500AF9200C2AF75C7AA75C755439604A200DB
:1008750092AFA2AF9200C2AF75C7AA75C75553967E
:10088500FDA20092AF8013A2AF9200C2AF75C7AAB6
:1008950075C755439608A20092AFA20092AF22AF4A
:1008A50082AE83ADF0FC90003BEFF0EEA3F0EDA33C
:1008B500F0ECA3F0900036E0FF600FBF01030209E2
:1008C50058BF0203020A03020A9275985043892011
:1008D500438780438E10A2AF9200C2AF75C7AA7539
:1008E500C755759100A20092AF53C4DF90003BE05D
:1008F500FCA3E0FDA3E0FEA3E0FFEDC4CCC4540FD0
:100905006CCC540FCC6CCCFDEEC454F04DFDEFC453
:10091500CEC4540F6ECE540FCE6ECEFF900037E08E
:10092500F8A3E0F9A3E0FAA3E0FB900043E8F0E9BF
:10093500A3F0EAA3F0EBA3F08C828D838EF0EF1287
:100945000B29AC82AD83AEF0FFC3E49CF58DD28E4E
:10095500020A9275985043878053C4F8A2AF92005B
:10096500C2AF75C7AA75C755759100A20092AF436E
:10097500C42090003BE0FCA3E0FDA3E0FEA3E0FF64
:10098500EDC4CCC4540F6CCC540FCC6CCCFDEEC470
:1009950054F04DFDEFC4CEC4540F6ECE540FCE6E41
:1009A500CEFF900037E0F8A3E0F9A3E0FAA3E0FB5F
:1009B500900043E8F0E9A3F0EAA3F0EBA3F08C8202
:1009C5008D838EF0EF120B29AC82AD83AEF0FFE480
:1009D500C39CF8E49DF974019EFAE49FFB89C6C3A4
:1009E500E49CFC8CC5A2AF9200C2AF75C7AA75C7BF
:1009F50055759100A20092AF43C408020A9275F89A
:100A05005075C48090003BE0FCA3E0FDA3E0FEA38D
:100A1500E0FFEDC4CCC4540F6CCC540FCC6CCCFDB2
:100A2500EEC454F04DFDEFC4CEC4540F6ECE540F3A
:100A3500CE6ECEFF900037E0F8A3E0F9A3E0FAA36D
:100A4500E0FB900043E8F0E9A3F0EAA3F0EBA3F0A4
:100A55008C828D838EF0EF120B29AC82AD83AEF0C4
:100A6500FFE4C39CF8E49DF974019EFAE49FFB89B9
:100A7500C6C3E49CFC8CC5A2AF9200C2AF75C7AAE1
:100A850075C755759100A20092AF43C40822E5824F
:100A950090003FF0900040E4F090003FE0FF6005DB
:100AA500BF011A800D3098FD900040E599F0C2987D
:100AB500800B30F8FD900040E59AF0C2F8900040B8
:100AC500E0F58222E582900042F0E0FF6005BF017B
:100AD500268011C2AC900041E0F59910990280FB87
:100AE500D2AC8013539CFE900041E0F59A10F902B8
:100AF50080FB439C01D2AF2253B1BF53B2BF9000DC
:100B050036E4F0900037F074C2A3F07401A3F0E46A
:100B1500A3F090360075F06E74011208A4D299D234
:100B250001C2AC22AF82AE83ADF0FC900047EFF07E
:100B3500EEA3F0EDA3F0ECA3F090004BE4F0A3F0EE
:100B4500A3F0A3F0900043E0FCA3E0FDA3E0FEA327
:100B5500E0FF7B20C003900047E0F8A3E0F9A3E0A5
:100B6500FAA3E0FB90004F235401F0E828F8E9339D
:100B7500F9EA33FAEB33FB900047E8F0E9A3F0EA32
:100B8500A3F0EBA3F090004BE0F8A3E0F9A3E0FAA3
:100B9500A3E0FBE828F8E933F9EA33FAEB33FB90F5
:100BA500004BE8F0E9A3F0EAA3F0EBA3F0D0039043
:100BB500004FE0600890004BE043E001F090004BEF
:100BC500E0F52CA3E0F52DA3E0F52EA3E0F52FC36A
:100BD500E52C9CE52D9DE52E9EE52F9F401F900061
:100BE5004BE52CC39CF0E52D9DA3F0E52E9EA3F0CF
:100BF500E52F9FA3F0900047E043E001F01BEB6079
:100C050003020B59900047E0FCA3E0FDA3E0FEA31F
:100C1500E08C828D838EF022A882A983AAF0FB88BE
:100C2500F0900050E0A4FCADF089F0E0A42DFDE4C7
:100C350035F0FE88F0A3E0A42DFDE5F03EFEE4339B
:100C4500FF89F0E0A42EFEE5F03FFF88F0A3E0A4C5
:100C55002EFEE5F03FFF8AF0900050E0A42EFEE561
:100C6500F03FFF8BF0E0A42FFF8AF0A3E0A42FFF55
:100C750089F0A3E0A42FFF88F0A3E0A42F8EF08DC8
:080C8500838C8222758200229B
:040000030000008277
:00000001FF
