:1000000002039EE88FF0A4CC8BF0A42CFCE98EF0C8
:10001000A42CFC8AF0EDA42CFCEA8EF0A4CDA8F070
:100020008BF0A42DCC3825F0FDE98FF0A42CCD3534
:10003000F0FCEB8EF0A4FEA9F0EB8FF0A4CFC5F09E
:100040002ECD39FEE43CFCEAA42DCE35F0FDE43C97
:10005000FC2275F008758200EF2FFFEE33FECD33E2
:10006000CDCC33CCC58233C5829BED9AEC99E58229
:1000700098400CF582EE9BFEED9AFDEC99FC0FD5B5
:10008000F0D6E4CEFBE4CDFAE4CCF9A88222B800A5
:10009000C1B90059BA002DEC8BF084CFCECDFCE570
:1000A000F0CBF97818EF2FFFEE33FEED33FDEC3394
:1000B000FCEB33FB10D703994004EB99FB0FD8E519
:1000C000E4F9FA227818EF2FFFEE33FEED33FDEC62
:1000D00033FCC933C910D7059BE99A4007EC9BFC58
:1000E000E99AF90FD8E0E4C9FAE4CCFB2275F010E4
:1000F000EF2FFFEE33FEED33FDCC33CCC833C81009
:10010000D7079BEC9AE899400AED9BFDEC9AFCE836
:1001100099F80FD5F0DAE4CDFBE4CCFAE4C8F92283
:10012000E8600FECC313FCED13FDEE13FEEF13FFBD
:10013000D8F122ECF0A3EDF0A3EEF0A3EFF022D083
:1001400083D082F8E4937012740193700DA3A3938B
:10015000F8740193F5828883E473740293B5F00612
:100160007403936860E9A3A3A3A380D8900000124E
:100170000133538EF75389F04389017B407A4279EA
:100180000F7800900000E0FCA3E0FDA3E0FEA3E0F8
:10019000FF12008EA804A905AA06AB07900006E08E
:1001A000FEA3E0FFE4FCFD120003E47B0CFAF9F887
:1001B00012008EC374FF9FFF74FF9EFEE49DFDE45A
:1001C0009CFCEFE4900008EFF07B407A42790F78D6
:1001D00000900000E0FCA3E0FDA3E0FEA3E0FF121E
:1001E000008EA804A905AA06AB07900006E0FEA3AE
:1001F000E0FFE4FCFD120003E47B0CFAF9F81200C6
:100200008EC374FF9FFF74FF9EFEE49DFDE49CFC83
:100210007808120120900004E07002A3E0602190B1
:100220000008E0F58A8F8CD28C308DFDC28DC28C97
:10023000900005E024FFF0900004E034FFF080D54A
:1002400022E4F591A2AF9200C2AFEF24FD602F141B
:10025000605424027063A2AF9200C2AF75C7AA7542
:10026000C7555396FBA20092AFA2AF9200C2AF75E2
:10027000C7AA75C7555396FDA20092AF803BA2AFA7
:100280009200C2AF75C7AA75C755439604A20092E3
:10029000AFA2AF9200C2AF75C7AA75C7555396FDFE
:1002A000A20092AF8013A2AF9200C2AF75C7AA7529
:1002B000C755439608A20092AFA20092AF22EF2446
:1002C000FD60121460282402704B7F0212036B7FC2
:1002D00002120241227F03120241A2AF9200C2AF7A
:1002E00075C7AA75C7555397DFA20092AF227F0248
:1002F00012036B7F021202417F0412036B7F041210
:100300000241A2AF9200C2AF75C7AA75C7555397F5
:10031000DFA20092AF2253B3FD53B4FD438E0220FF
:1003200097FD7F041202BE900004E4F0A374C8F0AD
:10033000A37403F0A374E8F07F007E247DF47C00B6
:1003400012016C3097FD7F021202BE900004740708
:10035000F0A374D0F0A37403F0A374E8F07F007EE0
:10036000247DF47C0012016C80FE22EF24FC601FCF
:1003700024027029A2AF9200C2AF75C7AA75C755F3
:10038000439720A20092AFE59620E51180F92275EF
:10039000C7AA75C7554397C0E59630E3FB2275C7DA
:1003A000AA75C75575FD5A787FE4F6D8FD90000010
:1003B0007FFF7E03E4F0A3DFFCDEFA7581200203F9
:0103C0001626
:00000001FF
