:1000000002008132000000000000000203B2000084
:10001000000000320000000000000032000000007C
:10002000000000320000000000000032000000006C
:10003000000000320000000000000032000000005C
:10004000000000320000000000000032000000004C
:10005000000000320000000000000032000000003C
:10006000000000320000000000000032000000002C
:1000700000000032000000000000000203510203F3
:01008000F18E
:0300810075813F47
:0A008400120862E582600302007EAC
:10008E007900E94400601B7A00900866788475A0B8
:10009E0000E493F2A308B8000205A0D9F4DAF275D1
:0200AE00A0FFB1
:1000B000E478FFF6D8FD7800E84400600A7901751D
:1000C000A000E4F309D8FC7883E84400600C7901CF
:0A00D000900001E4F0A3D8FCD9FA77
:0300DA0002007EA3
:1000DD0075A63875A70075AF04A2AF9204C2AF75AF
:1000ED00C7AA75C75543A401A20492AF85AE3E754C
:1000FD00A63975A700A2AF9204C2AF75C7AA75C77E
:10010D005543A401A20492AF85AE3F75C7AA75C72A
:10011D0055853E8475C7AA75C755853F852275A639
:10012D003075A70075AF04A2AF9204C2AF75C7AA10
:10013D0075C75543A401A20492AF85AE3E75A63195
:10014D0075A700A2AF9204C2AF75C7AA75C7554374
:10015D00A401A20492AF85AE3F75C7AA75C7558598
:10016D003E8475C7AA75C755853F852275AF0C7539
:10017D00A70075A600A2AF9204C2AF75C7AA75C736
:10018D005543A401A20492AF85AE3575A601A2AF69
:10019D009204C2AF75C7AA75C75543A401A20492B4
:1001AD00AF85AE3475A602A2AF9204C2AF75C7AAD1
:1001BD0075C75543A401A20492AF85AE3375A6034E
:1001CD00A2AF9204C2AF75C7AA75C75543A401A2C9
:1001DD000492AF85AE322275AFC075A60075A7002B
:1001ED00A2AF9204C2AF75C7AA75C75543A401A2A9
:1001FD000492AF85AE3675A601A2AF9204C2AF755B
:10020D00C7AA75C75543A401A20492AF85AE377531
:10021D00A602A2AF9204C2AF75C7AA75C75543A473
:10022D0001A20492AF85AE3875A604A2AF9204C2A6
:10023D00AF75C7AA75C75543A401A20492AF85AE89
:10024D003922758A00758C00D28CA2AF9204C2AF90
:10025D0075C7AA75C755759100A20492AF43B71023
:10026D00D2A92253B3BF53B4BF43B10453B2FB75EC
:10027D00F85075C488A2AF9204C2AF75C7AA75C7EE
:10028D0055759100A20492AF53C4DF75C6FF75C5B5
:10029D00F3A2AF9204C2AF75C7AA75C75575910089
:1002AD00A20492AF43C408439C01D2AF22E4F52AC5
:1002BD00F52BF52CF52DF52774C02527402CE527BA
:1002CD002401F582E43400F583E0FFE4FEFDFCEF4C
:1002DD00252AF52AEE352BF52BED352CF52CEC35A5
:1002ED002DF52DE52704F52780CEAF2A900041EF9F
:1002FD00F0AF2B900042EFF0900005E0FF0F900063
:10030D0045EFF0900006E0900046F0900045E0705B
:10031D000B900046E0FF0F900046EFF02275910024
:10032D0075270074C02527401AC2F9E5272441F529
:10033D0082E43400F583E0F59A30F9FDE52704F504
:10034D002780E022C0E0C082C083C007C006C00580
:10035D00C0D075D00075910030F81D900081E59AE0
:10036D00F0E521FF04F521EF2401FFE43400FEE068
:10037D00FD8F828E83F0C2F810F90280007401B5F2
:10038D002105C20275265A7440B5210AD200752680
:10039D0000C202752100D0D0D005D006D007D08381
:1003AD00D082D0E032C0E0C007C006C0D075D0000A
:1003BD00E52845296016AE28AF29EE24FFF528EF74
:1003CD0034FFF529E52845297002D201E526600B99
:1003DD00E52614F526E5267002D202D0D0D006D03F
:1003ED0007D0E032A2AF9204C2AF75C7AA75C75548
:1003FD00439F01A20492AF1200DD12027012024F50
:10040D00C201752888752913C2032000030208153F
:10041D00C2AF2003030204D975270874C0252750E5
:10042D00030204C575AF218522A68523A7E52724E0
:10043D0001F582E43400F583E0F5AE75C7AA75C702
:10044D005543A40175AF0075C7AA75C75543A401DF
:10045D00E5272401F582E43400F583E0FFB5AE0213
:10046D00800280FE7443B59F0280FEE4FEFDFCEF2A
:10047D00252EF52EEE352FF52FED3530F530EC35EB
:10048D0031F531AE22AF2374012EF522E43FF52371
:10049D00900082E524F0E525A3F0900082E0FEA314
:1004AD00E0FFEEB5220AEFB52306C203D2018008A4
:1004BD00E52704F5270204281202BAAF2E90004951
:1004CD00EFF0AF2F90004AEFF012032A900001E0F9
:1004DD00FFBFA0030206BDBFA1030205F0BFA2032B
:1004ED000205B8BFA3028060BFA4028018BFA60298
:1004FD008023BFAB03020837BFAE028008BFB10235
:10050D00802202080E1202BA12032AE4F528F529F8
:10051D00C20102080E1202BA9000497428F01203AB
:10052D002A02080E1201791202BA900049E535F03F
:10053D0090004AE534F090004BE533F090004CE527
:10054D0032F012032A02080EA2AF9204C2AF75C791
:10055D00AA75C75543A501A20492AF75AEFF75AF3D
:10056D0022E4F522F523C3E5229470E5239400508F
:10057D0031E52275F080A4FF8FA6AE22E52354014C
:10058D00A2E0CE13CE13CEFF8FA775C7AA75C755A0
:10059D0043A401AE22AF2374012EF522E43FF523CF
:1005AD0080C41202BA12032A02080E1201E41202CA
:1005BD00BA900049E536F090004AE537F090004BCF
:1005CD00E538F090004C74FFF090004DE539F09057
:1005DD00004E74FFF090004FF0900050F012032A7F
:1005ED0002080E900009E0F53A90000AE0F53B9004
:1005FD00000BE0F53C90000DE0F53DA2AF9204C27A
:10060D00AF75C7AA75C75543A504A20492AF75AFC0
:10061D00E275A60075A70075AEFF75C7AA75C7551B
:10062D0043A40175AFE175A60075A700853AAE75B7
:10063D00C7AA75C75543A401853BAE75A60175C7FD
:10064D00AA75C75543A40175A602853CAE75C7AA08
:10065D0075C75543A40175A604853DAE75C7AA752A
:10066D00C75543A401A2AF9204C2AF75C7AA75C7FF
:10067D005553A5FBA20492AF1201E41202BA9000E9
:10068D0049E536F090004AE537F090004BE538F03B
:10069D0090004C74FFF090004DE539F090004E74D1
:1006AD00FFF090004FF0900050F012032A02080E58
:1006BD00A2AF9204C2AF75C7AA75C75543A501A2D3
:1006CD000492AF75AEFF75AF22E4F522F523C3E5B5
:1006DD00229470E52394005031E52275F080A4FF3B
:1006ED008FA6AE22E5235401A2E0CE13CE13CEFF8A
:1006FD008FA775C7AA75C75543A401AE22AF237442
:10070D00012EF522E43FF52380C4E4F52EF52FF5F7
:10071D0030F531F522F523F524F52590000DE0FF98
:10072D008F2475250090000EE0FE7F00AC24AD25D2
:10073D00EC4207ED42068F248E25D20375271074E7
:10074D00C0252750030207FA75AF218522A6852300
:10075D00A7E5272401F582E43400F583E0F5AEA288
:10076D00AF9204C2AF75C7AA75C755539FBFA204F8
:10077D0092AF75C7AA75C75543A40175AF0075C76C
:10078D00AA75C75543A401E5272401F582E4340079
:10079D00F583E0FFB5AE02800280FE7443B59F0283
:1007AD0080FEE4FEFDFCEF252EF52EEE352FF52F08
:1007BD00ED3530F530EC3531F531AE22AF23740126
:1007CD002EF522E43FF523900082E524F0E525A3E4
:1007DD00F0900082E0FEA3E0FFEEB52208EFB52316
:1007ED0004C2038008E52704F52702074C1202BA5C
:1007FD00AF2E900049EFF0AF2F90004AEFF01203AB
:10080D002AC200752100D2AF20011F20020302046D
:10081D001774C025214004E5217009E52124BF404E
:10082D000302041775210002041712012BA2AF92C7
:10083D0004C2AF75C7AA75C755539FFEA20492AFE8
:10084D0075C7AA75C755759F0075C7AA75C7557524
:09085D009F8080FE2275820022BA
:04000003000000DA1F
:00000001FF
