:10000000020AFAE508243BF582E43401F583E005B1
:10001000082290013830070390013BE475F001128B
:1000200005000204D52000E97F2ED2008018EF548D
:100030000F2490D43440D4FF30040BEF24BFB41A03
:100040000050032461FFE50960021509050CE50C69
:100050007002050B30070E900138E475F0011205AF
:1000600000EF0204EE020AAE7403D2078003E4C27A
:1000700007F508900138120517E4F509F50BF50CA2
:10008000E50960077F2012004680F5750AFFC2016E
:10009000C200C202C203C205C206C208120012FF99
:1000A000700D3007057F00120057AF0CAE0B22B465
:1000B000255FC2D5C204120012FF24D0B40A00503A
:1000C0001A75F00A780930D50508B6FF0106C6A4EE
:1000D00026F620D5047002D20380D924CFB41A00AA
:1000E000EF5004C2E5D204020258D20180C6D20009
:1000F00080C0D20280BCD2D580BAD20580B47F2025
:100100001200462002077401B5090040F1120003F5
:10011000FF120046020080D208D20680951200032A
:10012000FB120003FA120003F94A4B700679297A90
:10013000037BFF20022EE509602A7E008E827583F4
:100140000012036860060EEE650A70F0C2D5EBC0BF
:10015000E0EAC0E0E9C0E0EE12029FD0E0F9D0E0B2
:10016000FAD0E0FB1204D5FF60AAEBC0E0EAC0E0E1
:10017000E9C0E0120046D0E02401F9D0E03400FAF2
:10018000D0E0FBE50A0460DCD50AD980877BFF7AE2
:1001900002799BD202809C791080027908C206C243
:1001A000088008D2D5790A8004790AC2D5E50A0404
:1001B0007002F50AE4FAFDFEFF120003FC7B082042
:1001C0000113120003FD7B1030000A120003FE121F
:1001D0000003FF7B20EC3382D592D55013C3E4306B
:1001E00000069FFFE49EFEE42001039DFDE49CFCCD
:1001F000E4CBF8C201EC700CCFCECDCCE824F8F8FB
:1002000070F38017C3EF33FFEE33FEED33FDEC33B5
:10021000FCEB33FB994002FB0FD8E9EB300105F80A
:10022000D0E0C448B201C0E00AEC4D4E4F78207BCC
:100230000070C2EAB50A0040BCC0E01202A1D0F0D2
:10024000D0E0200104C4C0E0C4B201C0F012002F0D
:10025000D0F0D5F0EB020080120520011D5301976C
:100260005800EE4C00EA42019B4F01A34401A34910
:1002700001034301A955018D46018D45018D4703B9
:10028000495000F22D00F62E01192B00FA23011718
:100290002003322A00B248000001113F3F3F00799D
:1002A0000AA2D5200314300509B910020404B908C4
:1002B0000104A2D52006025001042002689202B572
:1002C00009005034C0E07F203003197F30A2027251
:1002D000067205500F1202F8C202C206C205C20819
:1002E0007F30800F300503E9C0E01200463005037F
:1002F000D0E0F9D0E0B509CC3005177F30B9100C4B
:100300001200467F583004077F788003B908031233
:1003100000463002057F2D0200467F202008F87F2E
:100320002B2006F322920280CF286E756C6C290078
:10033000D2011200033001F8C201780930D501085A
:10034000F60200B22D504349581200032403B405AD
:10035000004001E490034493120037743A120037CE
:10036000D203750904020197BB010CE58229F582CD
:10037000E5833AF583E0225006E92582F8E622BBC0
:10038000FE06E92582F8E222E58229F582E5833A34
:10039000F583E49322F8BB010DE58229F582E5831C
:1003A0003AF583E8F0225006E92582C8F622BBFE22
:1003B00005E92582C8F22275F008758200EF2FFF4B
:1003C000EE33FECD33CDCC33CCC58233C5829BED2D
:1003D0009AEC99E58298400CF582EE9BFEED9AFD31
:1003E000EC99FC0FD5F0D6E4CEFBE4CDFAE4CCF9E1
:1003F000A88222B800C1B90059BA002DEC8BF08454
:10040000CFCECDFCE5F0CBF97818EF2FFFEE33FE21
:10041000ED33FDEC33FCEB33FB10D703994004EBD9
:1004200099FB0FD8E5E4F9FA227818EF2FFFEE33A5
:10043000FEED33FDEC33FCC933C910D7059BE99AB7
:100440004007EC9BFCE99AF90FD8E0E4C9FAE4CC48
:10045000FB2275F010EF2FFFEE33FEED33FDCC33B2
:10046000CCC833C810D7079BEC9AE899400AED9B9B
:10047000FDEC9AFCE899F80FD5F0DAE4CDFBE4CC7A
:10048000FAE4C8F922E8600FECC313FCED13FDEEAB
:1004900013FEEF13FFD8F122ECF0A3EDF0A3EEF082
:1004A000A3EFF022A8828583F0D083D0821204BB10
:1004B0001204BB1204BB1204BBE473E493A3C58310
:1004C000C5F0C583C8C582C8F0A3C583C5F0C58380
:1004D000C8C582C822BB010689828A83E0225002F5
:1004E000E722BBFE02E32289828A83E49322BB01D6
:1004F0000689828A83F0225002F722BBFE01F32292
:10050000F8E0FBA3A3E0F925F0F0E5821582700284
:100510001583E0FA38F022EBF0A3EAF0A3E9F02229
:10052000D083D082F8E4937012740193700DA3A36A
:1005300093F8740193F5828883E47374029368607E
:10054000EFA3A3A380DF90013EEFF0A3EBF0A3EABB
:10055000F0A3E9F0A2AF920CC2AF75C7AA75C75558
:10056000439F01A20C92AFA2AF920CC2AF75C7AA73
:1005700075C75543A510A20C92AFA2AF920CC2AFA3
:1005800075C7AA75C75543A508A20C92AF90013E46
:10059000E0FF900144E4F0A3EFF0E4A3F090014603
:1005A000E0C3947F74809480501EE0FF7E00120BA5
:1005B0001D900146E02400F582E43400F583EFF05D
:1005C000900146E004F080D5E4900146F0900146A9
:1005D000E0FFD3900143E09F900142E0940040355A
:1005E00090013FE0FBA3E0FAA3E0F9900146E0F5BB
:1005F00082758300120368FF900146E0FE90013E81
:10060000E02E2400F582E43400F583EFF0900146FB
:10061000E004F080B875AFA275A68075A70175AE2D
:10062000FFA2AF920CC2AF75C7AA75C75543A4010C
:10063000A20C92AFE4900146F0900146E0C3947F93
:1006400074809480505D75AFA1E02400F582E4349D
:1006500000F583E0F5AEA2AF920CC2AF75C7AA75E4
:10066000C75543A401A20C92AF75AF8075AEFFA22F
:10067000AF920CC2AF75C7AA75C75543A401A20CAF
:1006800092AFAFAE900146E02400F582E43400F56D
:1006900083E06F6004D20D804A05A6900146E00415
:1006A000F08096E4900146F0900146E0C3947F7498
:1006B000809480502EE0FF900144E0FCA3E02FF5F1
:1006C00082E43CF583E493FF900146E02400F58248
:1006D000E43400F583E0FEEFB50608900146E0043F
:1006E000F080C5A2AF920CC2AF75C7AA75C75553AB
:1006F000A5F7A20C92AFA2AF920CC2AF75C7AA75B4
:10070000C755539FFEA20C92AF2290013812049855
:1007100090013CE014605E14700302082024026023
:10072000030208B2759850438920438780438E1096
:10073000A2AF920CC2AF75C7AA75C755E4F591A2D6
:100740000C92AF53C4DF7B10FAF9F8900138E0FC4B
:10075000A3E0FDA3E0FEA3E0FF1203F390013DE060
:10076000F8A3E0F9A3E0FAA3E0FB1203F3EFF4042B
:10077000F58DD28E2275985043878053C4F8A2AF6E
:10078000920CC2AF75C7AA75C755E4F591A20C9239
:10079000AF43C4207B10FAF9F8900138E0FCA3E0E5
:1007A000FDA3E0FEA3E0FF1203F390013DE0F8A3F8
:1007B000E0F9A3E0FAA3E0FB1203F3C3E49FFFE434
:1007C0009EFE74019DFDE49CFC78081204858FC692
:1007D000E47B10FAF9F8900138E0FCA3E0FDA3E017
:1007E000FEA3E0FF1203F390013DE0F8A3E0F9A3BC
:1007F000E0FAA3E0FB1203F3C3E49FFFE49EFE7460
:10080000019DFDE49CFCEFE48FC5A2AF920CC2AF4A
:1008100075C7AA75C755F591A20C92AF43C40822BB
:1008200075F85075C480E47B10FAF9F8900138E04F
:10083000FCA3E0FDA3E0FEA3E0FF1203F390013D63
:10084000E0F8A3E0F9A3E0FAA3E0FB1203F3C3E4AA
:100850009FFFE49EFE74019DFDE49CFC7808120459
:10086000858FC6E47B10FAF9F8900138E0FCA3E02C
:10087000FDA3E0FEA3E0FF1203F390013DE0F8A327
:10088000E0F9A3E0FAA3E0FB1203F3C3E49FFFE463
:100890009EFE74019DFDE49CFCEFE48FC5A2AF9227
:1008A0000CC2AF75C7AA75C755F591A20C92AF439C
:1008B000C40822A2AF920CC2AF75C7AA75C7554330
:1008C0009F01A20C92AFE4F591EF24F9600C146043
:1008D0000E2402700D75A638800875A63080037549
:1008E000A630E4F5A775AF04A2AF920CC2AF75C7EE
:1008F000AA75C75543A401A20C92AF85AE0805A600
:10090000A2AF920CC2AF75C7AA75C75543A401A286
:100910000C92AF85AE09EF24F860030209A6E50842
:1009200025E0FFE50954012FFF54C0F50BEF543FBC
:10093000F50A74F22FFF75AF0C75A601E4F5A7A2B6
:10094000AF920CC2AFA2AF920CC2AF75C7AA75C767
:100950005543AA40A20C92AF75C7AA75C75543A4C8
:1009600001A20C92AFAEAEEE644B600EAEAEEE6482
:10097000526007AEAEEE64537027E50AC3940F745D
:100980008094805018E50B6440600CE50B64806037
:1009900006E50B64C0700A74F22FFF800474FC2F0C
:1009A000FFEFC313F50875C7AA75C7558508847589
:1009B000C7AA75C755850985A2AF920CC2AF75C786
:1009C000AA75C755539FFEA20C92AF227F0612084C
:1009D000B3120AD57BFF7A0B795812006E53B1DF40
:1009E00053B2DF2085FDE4900137F0900137E0C37A
:1009F0009432748094805015E0FF24FEF582E43434
:100A000000F583EFF0900137E004F080DE900130D4
:100A100074A1F0A304F0A31204A4A3A4A5A69001BA
:100A20003674A7F07B017A0079FE90013CE4F0A3D4
:100A30007432F07F01120B3EEF700B7BFF7A0B7963
:100A40007512006E80097BFF7A0B799112006E7B24
:100A5000017A01793090013CE4F0A37407F07F1033
:100A6000120B3EEF700B7BFF7A0B79AD12006E809C
:100A7000097BFF7A0B799112006E7F167E00120BB4
:100A80001DEF7F00FEC006C0077F177E00120B1D02
:100A9000EFFDD0E02DFFD0E03400FE7BFF7A0B7934
:100AA000D290013BF0A3EFF012006E80FE22EFB473
:100AB0000A07740D120AB9740A309811A899B8136C
:100AC0000CC2983098FDA899C298B811F63099FDDB
:100AD000C299F5992253B1BF53B2BFE490013CF0E3
:100AE000A31204A40001C2007F007E367D6E7C014B
:100AF00012070AD299D209C2AC2275C7AA75C75586
:100B000075FD5A787FE4F6D8FD9000007FFF7E03E4
:100B1000E4F0A3DFFCDEFA7581210209CCA2AF92DA
:100B20000CC2AF75C7AA75C75543A510A20C92AFEA
:100B3000EF2480F582EE34FFF583E493FF22C20DAB
:100B400090013CE0FDA3E0900142CDF0A3EDF01256
:100B50000546A20DE433FF220A0D20546F67676C2F
:100B6000652050303520546573742073746172743D
:100B7000202E2E2E000A0D20205350524F4D205271
:100B80002F572061727261792070617373200A0D92
:100B9000000A0D207772697465205350524F4D2022
:100BA0006572726F7220212121200A0D000A0D202A
:100BB000205350524F4D20522F572073747572633B
:100BC0007475726520646174612070617373200AAA
:100BD0000D000A0D205350524F4D20307831362BE6
:100BE000307831372056616C7565203D203078258E
:020BF0005800AB
:00000001FF
