:060000000200060200628E
:0300060075813AC7
:0A0009001218EFE582600302000305
:100013007900E94400601B7A00901923789875A051
:1000230000E493F2A308B8000205A0D9F4DAF2754C
:02003300A0FF2C
:10003500E478FFF6D8FD7800E84400600A79017598
:10004500A000E4F309D8FC7897E84400600C790136
:0A005500900001E4F0A3D8FCD9FAF2
:03005F0002000399
:1000620053B3FB43B4047582061207C8120CAD7475
:10007200F3C0E07418C0E07480C0E0120E871581EE
:1000820015811581A2AF9200C2AF75C7AA75C75577
:10009200759100A20092AF53E1FE53E8F043E804E9
:1000A20043B12053B2DF75F60043F610A2AF9200BF
:1000B200C2AF75C7AA75C755759100A20092AF432A
:1000C200E1019000067405F07582011201EA9000C8
:1000D2000F74F4F07401A3F090001174E8F074034B
:1000E200A3F090360075F06E74011202FCA2AF927A
:1000F20000C2AF75C7AA75C755759100A20092AF2D
:1001020043E101A2AF9200C2AF75C7AA75C7557588
:100112009100A20092AFC2EFA2AF9200C2AF75C728
:10012200AA75C755759100A20092AFD2EEE5E830EC
:10013200E7FBAEC3E4C454F0CEC4CE6ECE54F0CED0
:100142006EFFACC253040F7D00EE4204EF420590F5
:100152000001ECF0EDA3F0A2AF9200C2AF75C7AA06
:1001620075C755759100A20092AF53E1FEC004C05D
:10017200057404C0E07419C0E07480C0E0120E87F8
:10018200E58124FBF581B2850200D022E582900050
:1001920005F0759100900003E0FEA3E0FF8E057468
:1001A2000F5DF5CEEFC4CEC4540F6ECE540FCE6E9B
:1001B200CE8ECF900005E06018A2AF9200C2AF755C
:1001C200C7AA75C755759100A20092AF43E220807D
:1001D20016A2AF9200C2AF75C7AA75C75575910036
:1001E200A20092AF53E2DF22E582900007F0759100
:1001F2000053E18F900007E05407C454F042E153EA
:10020200E2F1900006E0540725E042E222A2AF921A
:1002120000C2AF75C7AA75C755439F01A20092AF2E
:1002220075AF0475A60D75A700A2AF9200C2AF7597
:10023200C7AA75C75543A401A20092AFE5AE540FF9
:10024200FF75A60C75A700A2AF9200C2AF75C7AA30
:1002520075C75543A401A20092AF900008E5AEF025
:10026200E0FEE4C454F0CEC4CE6ECE54F0CE6EFDA9
:100272007C00EF2EFEEC3DFDA2AF9200C2AF75C72F
:10028200AA75C755539FFEA20092AF8E828D83221C
:10029200AF83E582900009F0EFA3F0900009E0FE41
:1002A200A3E0FF8E828F83E493A3E493F58222E599
:1002B2008290000BF0E04480FF75C7AA75C7558F86
:1002C2009F22E58290000CF0E06005438702000067
:1002D20022E58290000DF0E06005438701000022D4
:1002E2007F007E7F00DEFD0FBF1A0040F522E5820F
:1002F20090000EF0E024FF92AF22AF82AE83ADF009
:10030200FC900013EFF0EEA3F0EDA3F0ECA3F0539A
:100312008EF75389F0438901900013E0FCA3E0FDBE
:10032200A3E0FEA3E0FF90004E7440F07442A3F0FD
:10033200740FA3F0E4A3F08C828D838EF0EF120C85
:10034200D9AC82AD83AEF0FF900011E0FAA3E0FBDE
:1003520090005BEAF0EBA3F0E4A3F0A3F08C828DB3
:10036200838EF0EF120DCDAC82AD83AEF0FF900024
:100372004E740CF0E4A3F0A3F0A3F08C828D838E74
:10038200F0EF120CD9AC82AD83AEF0FF8C0374FF98
:10039200C39BFB74FFC39C74FF9DFDE49EE49F8D91
:1003A2000790000FE0FDA3E0FEED4E60148B8A8FF4
:1003B2008CD28C108D0280FBC28C1DBDFF011E8071
:1003C200E822AF82AE83ADF0FC90001BEFF0EEA30B
:1003D200F0EDA3F0ECA3F0538EEF53890F43891095
:1003E20090001BE0FCA3E0FDA3E0FEA3E0FF900071
:1003F2004E7440F07442A3F0740FA3F0E4A3F08CA7
:10040200828D838EF0EF120CD9AC82AD83AEF0FFF9
:10041200900019E0FAA3E0FB90005BEAF0EBA3F096
:10042200E4A3F0A3F08C828D838EF0EF120DCDAC9D
:1004320082AD83AEF0FF90004E740CF0E4A3F0A303
:10044200F0A3F08C828D838EF0EF120CD9AC82ADCA
:1004520083AEF0FF8C0374FFC39BFB74FFC39C74D9
:10046200FF9DFDE49EE49F8D07900017E0FDA3E051
:10047200FEED4E60148B8B8F8DD28E108F0280FB1F
:10048200C28E1DBDFF011E80E822AF82AE83ADF099
:10049200FC900027EFF0EEA3F0EDA3F0ECA3F075D3
:1004A200910090001FE0FEA3E0FF8E048F05BC01C7
:1004B20005BD00028038BC0405BD00028035BC10B9
:1004C20005BD00028035BC2005BD00028035BC4060
:1004D20005BD00028035BC8005BD00028035BC0030
:1004E20005BD01028035BC0040BD023D803553C9C7
:1004F2008F803653C98F43C910802E53C98F43C989
:1005020020802653C98F43C930801E53C98F43C9E7
:1005120040801653C98F43C950800E53C98F43C9B7
:1005220060800653C98F43C970C2C843C98043C99A
:1005320004900027E0FAA3E0FBA3E0FCA3E0FD9017
:10054200004E7440F07442A3F0740FA3F0E4A3F0E1
:100552008A828B838CF0EDC007C006120CD985828B
:100562002485832585F026F527900023E0F8A3E073
:10057200F9A3E0FCA3E0FD90005BE8F0E9A3F0EC56
:10058200A3F0EDA3F08524828525838526F0E52757
:10059200120DCDAA82AB83ACF0FDD006D00790003D
:1005A2004EEEF0EFA3F0E4A3F0A3F08A828B838CEB
:1005B200F0ED120CD9AC82AD83AEF0FF8C03C3E434
:1005C2009BFBE4C39CE49DFD74019EE49F8D079018
:1005D2000021E0FDA3E0FEED4E60148BCC8FCDD266
:1005E200CA10CF0280FBC2CA1DBDFF011E80E822D5
:1005F200AF82AE83ADF0FC900032EFF0EEA3F0EDEF
:10060200A3F0ECA3F075910090002BE0FFBF010274
:100612008023BF02028023BF04028026BF0802801B
:1006220029BF1002802CBF2002802FBF40028032DF
:10063200BF803D803553C4F8803653C4F843C401AB
:10064200802E53C4F843C402802653C4F843C40323
:10065200801E53C4F843C404801653C4F843C4052F
:10066200800E53C4F843C406800653C4F843C4073B
:10067200900032E0FBA3E0FCA3E0FDA3E0FE9000CB
:100682004E7440F07442A3F0740FA3F0E4A3F08B15
:10069200828C838DF0EEC007120CD9858228858367
:1006A2002985F02AF52B90002EE0F8A3E0F9A3E0CB
:1006B200FAA3E0FE90005BE8F0E9A3F0EAA3F0EE13
:1006C200A3F0852882852983852AF0E52B120DCD9A
:1006D200AB82AC83ADF0FED00790004EEFF0E4A306
:1006E200F0A3F0A3F08B828C838DF0EE120CD9ACC8
:1006F20082AD83AEF0FF8C03C3E49BFBE4C39CE4B6
:100702009DFD74019EE49F8D0790002CE0FDA3E007
:10071200FEED4E6068A2AF9200C2AF75C7AA75C760
:1007220055759100A20092AF53C4EF8BC58FC6A23C
:10073200AF9200C2AF75C7AA75C755759100A200E6
:1007420092AF43C408E5C430E4FBA2AF9200C2AF4B
:1007520075C7AA75C755759100A20092AF53C4EF31
:10076200A2AF9200C2AF75C7AA75C755759100A214
:100772000092AF53C4F71DBDFF011E8094A2AF9239
:1007820000C2AF75C7AA75C755759100A20092AF96
:1007920053C4F722AF83E582900036F0EFA3F01046
:1007A200990280FB900036E0FEA3E08E997F008ED6
:1007B200828F83223098FD900038E599F0C298909C
:1007C2000038E0F58222E582900039F0A2AF920073
:1007D200C2AF75C7AA75C755439F01A20092AF75F4
:1007E2009100900039E0FFBF0602800ABF07028035
:1007F2000ABF080F800A75A638800875A6308003E4
:1008020075A63075A70075AF04A2AF9200C2AF758E
:10081200C7AA75C75543A401A20092AFAEAEE5A622
:1008220004F5A6A2AF9200C2AF75C7AA75C7554319
:10083200A401A20092AFADAEBF080280030208CAB3
:100842008E07EF2FFF8D0474015C2FFF74C05FFCD5
:10085200743F5FFBEF24F2FF90003AF075AF0C7526
:10086200A60175A700A2AFC2AFA2AF9200C2AF7538
:10087200C7AA75C75543AA40A20092AF75C7AA7509
:10088200C75543A401A20092AF744BB5AE02800CCF
:100892007452B5AE0280057453B5AE24BB0F00503E
:1008A20018BC40028008BC80028003BCC0128F04C6
:1008B200EC24F290003AF08007EF24FC90003AF02A
:1008C20090003AE0FFC313FE75C7AA75C7558E8420
:1008D20075C7AA75C7558D85A2AF9200C2AF75C7FD
:1008E200AA75C755539FFEA20092AF22E5829000DF
:1008F2003BF0E0FFBF0202800ABF03028013BF0485
:1009020056802975820212095A7582021209C9801B
:10091200467582031209C9A2AF9200C2AF75C7AA77
:1009220075C7555397DFA20092AF802B75820212D2
:10093200095A7582021209C975820412095A75820E
:10094200041209C9A2AF9200C2AF75C7AA75C755F2
:100952005397DFA20092AF22E58290003CF0E0FFC5
:10096200BF02028005BF042A801AA2AF9200C2AF62
:1009720075C7AA75C755439720A20092AFE5962086
:10098200E51080F975C7AA75C7554397C0E596303B
:10099200E3FB22E58290003DF0759100E0FFBF028B
:1009A200028005BF04208015A2AF9200C2AF75C7B6
:1009B200AA75C7555397DFA20092AF800975C7AADF
:1009C20075C75553973F22E58290003EF07591001E
:1009D200A2AF9200C2AF90003EE0FFBF0202800AC7
:1009E200BF0302802DBF04658050A2AF9200C2AF48
:1009F20075C7AA75C7555396FBA20092AFA2AF92D4
:100A020000C2AF75C7AA75C7555396FDA20092AF33
:100A1200803BA2AF9200C2AF75C7AA75C755439675
:100A220004A20092AFA2AF9200C2AF75C7AA75C767
:100A3200555396FDA20092AF8013A2AF9200C2AFAF
:100A420075C7AA75C755439608A20092AFA2009235
:100A5200AF22AF82AE83ADF0FC900046EFF0EEA382
:100A6200F0EDA3F0ECA3F0900041E0FF600FBF01B6
:100A720003020B08BF0203020BB3020C427598502B
:100A8200438920438780438E10A2AF9200C2AF7584
:100A9200C7AA75C755759100A20092AF53C4DF90E3
:100AA2000046E0FCA3E0FDA3E0FEA3E0FFEDC4CC22
:100AB200C4540F6CCC540FCC6CCCFDEEC454F04D2E
:100AC200FDEFC4CEC4540F6ECE540FCE6ECEFF9047
:100AD2000042E0F8A3E0F9A3E0FAA3E0FB90004EA5
:100AE200E8F0E9A3F0EAA3F0EBA3F08C828D838E09
:100AF200F0EF120CD9AC82AD83AEF0FFC3E49CF5EB
:100B02008DD28E020C4275985043878053C4F8A24E
:100B1200AF9200C2AF75C7AA75C755759100A20002
:100B220092AF43C420900046E0FCA3E0FDA3E0FEA8
:100B3200A3E0FFEDC4CCC4540F6CCC540FCC6CCCEE
:100B4200FDEEC454F04DFDEFC4CEC4540F6ECE542E
:100B52000FCE6ECEFF900042E0F8A3E0F9A3E0FAD8
:100B6200A3E0FB90004EE8F0E9A3F0EAA3F0EBA3C8
:100B7200F08C828D838EF0EF120CD9AC82AD83AEF5
:100B8200F0FFE4C39CF8E49DF974019EFAE49FFB34
:100B920089C6C3E49CFC8CC5A2AF9200C2AF75C7E4
:100BA200AA75C755759100A20092AF43C408020C02
:100BB2004275F85075C480900046E0FCA3E0FDA3A6
:100BC200E0FEA3E0FFEDC4CCC4540F6CCC540FCCB8
:100BD2006CCCFDEEC454F04DFDEFC4CEC4540F6E88
:100BE200CE540FCE6ECEFF900042E0F8A3E0F9A300
:100BF200E0FAA3E0FB90004EE8F0E9A3F0EAA3F0EC
:100C0200EBA3F08C828D838EF0EF120CD9AC82AD07
:100C120083AEF0FFE4C39CF8E49DF974019EFAE40C
:100C22009FFB89C6C3E49CFC8CC5A2AF9200C2AFF5
:100C320075C7AA75C755759100A20092AF43C40843
:100C420022E58290004AF090004BE4F090004AE0E6
:100C5200FF6005BF011A800D3098FD90004BE599A9
:100C6200F0C298800B30F8FD90004BE59AF0C2F884
:100C720090004BE0F58222E58290004DF0E0FF60AB
:100C820005BF01268011C2AC90004CE0F599109985
:100C92000280FBD2AC8013539CFE90004CE0F59A8C
:100CA20010F90280FB439C01D2AF2253B1BF53B271
:100CB200BF900041E4F0900042F074C2A3F07401CE
:100CC200A3F0E4A3F090360075F06E7401120A549A
:100CD200D299D201C2AC22AF82AE83ADF0FC9000B9
:100CE20052EFF0EEA3F0EDA3F0ECA3F0900056E487
:100CF200F0A3F0A3F0A3F090004EE0FCA3E0FDA36C
:100D0200E0FEA3E0FF7B20C003900052E0F8A3E0E6
:100D1200F9A3E0FAA3E0FB90005A235401F0E8287B
:100D2200F8E933F9EA33FAEB33FB900052E8F0E9E1
:100D3200A3F0EAA3F0EBA3F0900056E0F8A3E0F9E9
:100D4200A3E0FAA3E0FBE828F8E933F9EA33FAEB87
:100D520033FB900056E8F0E9A3F0EAA3F0EBA3F02E
:100D6200D00390005AE06008900056E043E001F0A2
:100D7200900056E0F537A3E0F538A3E0F539A3E09B
:100D8200F53AC3E5379CE5389DE5399EE53A9F4043
:100D92001F900056E537C39CF0E5389DA3F0E53976
:100DA2009EA3F0E53A9FA3F0900052E043E001F0E9
:100DB2001BEB6003020D09900052E0FCA3E0FDA3CF
:100DC200E0FEA3E08C828D838EF022A882A983AA02
:100DD200F0FB88F090005BE0A4FCADF089F0E0A4A9
:100DE2002DFDE435F0FE88F0A3E0A42DFDE5F03EF4
:100DF200FEE433FF89F0E0A42EFEE5F03FFF88F029
:100E0200A3E0A42EFEE5F03FFF8AF090005BE0A491
:100E12002EFEE5F03FFF8BF0E0A42FFF8AF0A3E067
:100E2200A42FFF89F0A3E0A42FFF88F0A3E0A42F52
:100E32008EF08D838C8222C0368581367E008E8331
:100E4200120796D03622AFF0AE83E582900060F0B2
:100E5200EEA3F0EFA3F0900060E0FDA3E0FEA3E0BC
:100E6200FF90005FE0FC900074E4F0A3F0A3F09028
:100E72000077EDF0EEA3F0EFA3F090007AECF090A3
:100E82000E39020F8DC036E581F53624FBFF900046
:100E920074E4F0A3F0A3F0E53624FBF8900077E6C3
:100EA200F008E6A3F008E6A3F090007AEFF0900EC7
:100EB20039120F8DD03622E582900070F0E0FF905B
:100EC2000066E0C0E0A3E0C0E0A3E0C0E0120ED400
:100ED200800D900064E0C0E0A3E0C0E08F822215A4
:100EE200811581158190006EE02401F0A3E03400A9
:100EF200F022E582900071F0E02430FF24C6500D0C
:100F020074072FFF900063E060034307208F820283
:100F12000EB9E582900072F0E0FFC4540FF582C072
:100F220007120EF4D00753070F8F82020EF4E582E8
:100F3200900073F0900069E0FCA3E0FDA3E0FEA343
:100F4200E0FF90006DE0FB900073E0FA79208B00E7
:100F5200E828F537EF2354014537FBEC2CFCED3341
:100F6200FDEE33FEEF33FFC3EB9A4007EBC39AFB70
:100F720043040119E970D7900069ECF0EDA3F0EE9B
:100F8200A3F0EFA3F090006DEBF022AF83E5829027
:100F9200007BF0EFA3F090007BE0FEA3E0FF900067
:100FA20064EEF0EFA3F0900074E0FDA3E0FEA3E096
:100FB200FF900066EDF0EEA3F0EFA3F090006EE478
:100FC200F0A3F0900077E0FDA3E0FEA3E0FF8D82A6
:100FD2008E838FF01218D3FC90007774012DF0E409
:100FE2003EA3F0EFA3F0EC700302188FBC25028041
:100FF2000302188790007DE4F090007EF090007F5D
:10100200F0900080F0900081F0900082F0900083D8
:10101200F0900084F0900086F0900087F0A3F090AA
:10102200008914F0A3F0900077E0FDA3E0FEA3E0B6
:10103200FF8D828E838FF01218D3FBA3AD82AE8315
:10104200900077EDF0EEA3F0EFA3F090008DEBF0BF
:10105200BB25088B82120EB9020FC5BB30005003AC
:10106200021126EB24C65003021126900089E0F5F6
:101072002CA3E0F52D74FFB52C63B52D60C005C01F
:1010820006C007900087E0FAA3E0FF900096EAF01E
:10109200EFA3F090000AC005C0031218B3AE82AFEE
:1010A20083D003D0058B027D00EA2EFEED3FFFEEDA
:1010B20024D0FEEF34FFFF900087EEF0EFA3F0D0D4
:1010C20007D006D005900087E0F5F0A3E045F06078
:1010D2000302103390007E7401F0021033C005C089
:1010E20006C007900096E52CF0E52DA3F090000ACB
:1010F200C006C005C0031218B3AA82AF83D003D0C2
:1011020005D0067E00EB2AFAEE3FFFEA24D0FAEF82
:1011120034FFFF900089EAF0EFA3F0D007D006D0A9
:101122000502103390008DE0FBBB2E2FC005C006D8
:10113200C007900089E0FAA3E0FFBAFF05BFFF02F3
:101142008009D007D006D005021033D007D006D0D0
:1011520005900089E4F0A3F0021033BB6100401453
:10116200EB2485400F90008D74DF5BF09000637478
:1011720001F08005900063E4F090008DE0FBBB205D
:10118200028075BB2B028067BB2D028059BB4202D5
:10119200806FBB4302807CBB440302141DBB460329
:1011A200021443BB4803021033BB490302141DBBA4
:1011B2004A03021033BB4C028050BB4F0302142B74
:1011C200BB500302138BBB53028077BB5403021044
:1011D20033BB5503021433BB580302143BBB5A03FF
:1011E20002103302144B90007D7401F00210339010
:1011F200007F7401F00210339000807401F002103D
:10120200339000827401F00210339000837401F075
:10121200021033900082E0600E90007AE014F9F040
:1012220090008DE7F0800F90007AE024FEFFF08FAF
:101232000190008DE7F090008DE0F582120EB90268
:10124200145A90007AE024FDFFF08F018705098788
:10125200060987071919900069EDF0EEA3F0EFA3D4
:10126200F08D828E838FF012189B85822C85832DC0
:10127200900089E0FAA3E0FDBAFF0DBDFF0A9000DD
:1012820089E52CF0E52DA3F090007DE0704B9000F5
:1012920087E0FAA3E0FDC3E52C9AE52D9D503A9034
:1012A2000087EAC3952CF0ED952DA3F0900087E01E
:1012B200FAA3E0FD8A068D071ABAFF011DEE4F6000
:1012C20010758220C005C002120EB9D002D005806E
:1012D200E3900087EAF0EDA3F0900089E0F52FA3F8
:1012E200E0F530900069E0FAA3E0FDA3E0FF8A8216
:1012F2008D838FF01218D3F52E603CC3E4952F74C2
:10130200808530F063F08095F0502C152F74FFB576
:101312002F021530852E82120EB9900069E0FAA3D1
:10132200E0FDA3E0FF0ABA00010D900069EAF0EDCA
:10133200A3F0EFA3F080AC90007DE0700302145A9A
:10134200900087E0FEA3E0FFC3E52C9EE52D9F40C1
:101352000302145A900087EEC3952CF0EF952DA34B
:10136200F0900087E0FEA3E0FF8E028F051EBEFF15
:10137200011FEA4D7003021452758220C007C00695
:10138200120EB9D006D00780E090007AE024FDFD6D
:10139200F08D018731098732098733191990006965
:1013A200E531F0E532A3F0E533A3F090006BE0FD08
:1013B200BD8000400890008D7443F08020BD600025
:1013C200400890008D7450F08013BD40004008909A
:1013D200008D7449F0800690008D7458F090008D55
:1013E200E0FDF582C005120EB975823A120EB9758A
:1013F2008230120EB9758278120EB9D005BD49023B
:10140200800EBD5002800990006AE0F582120F142E
:10141200900069E0F582120F14803D900081740102
:10142200F0900086740AF0802F9000867408F08095
:1014320027900086740AF0801F9000867410F08056
:10144200179000847401F0800F8B82120EB980080D
:10145200900087EEF0EFA3F0900084E060719000BE
:101462007AE024FCFFF08F018703098705098706CC
:10147200098707191919900069EBF0EDA3F0EEA3A3
:10148200F0EFA3F09000697418F07419A3F074805F
:10149200A3F0900069E0F531A3E0F532A3E0F53363
:1014A20074012531FAE43532FBAF33900069EAF07A
:1014B200EBA3F0EFA3F08531828532838533F012FE
:1014C20018D3FF7003020FC58F82120EB980C3902A
:1014D2000086E07003020FC5900082E06047900032
:1014E2007AE014F9F087077E007D007B00900069A6
:1014F200EFF0EEA3F0EDA3F0EBA3F0900081E0603B
:101502000302159D900069E0FBA3E0A3E0A3E07D48
:10151200007E007F00900069EBF0EDA3F0EEA3F0F7
:10152200EFA3F08076900083E0602890007AE024B8
:10153200FCFFF08F018703098705098706098707E2
:10154200191919900069EBF0EDA3F0EEA3F0EFA3E7
:10155200F0804890007AE024FEFFF08F01870609B0
:10156200870719EF3395E0FDFB900069EEF0EFA3DA
:10157200F0EDA3F0EBA3F0900081E0701E90006903
:10158200E0FBA3E0FDA3E0A3E07E007F0090006902
:10159200EBF0EDA3F0EEA3F0EFA3F0900081E0609A
:1015A20041900069E0FBA3E0FDA3E0FEA3E0FF3071
:1015B200E72B900069E0FBA3E0FDA3E0FEA3E0FFC0
:1015C200C3E49BFBE49DFDE49EFEE49FFF90006963
:1015D200EBF0EDA3F0EEA3F0EFA3F0800590008115
:1015E200E4F09000857401F0900086E0F52F7534E8
:1015F20093753500E4F52CF52D90006DE4F0852F00
:1016020082120F30900085E0703390006DE0C45478
:10161200F0F53190006DE0C4540F4531F531853459
:1016220082853583E0FFE531420785348285358343
:10163200EFF0153474FFB534021535800C90006D4F
:10164200E0FF853482853583F0052CE4B52C020554
:101652002D900085E0B40100E433F0900069E0FAD7
:10166200A3E0FBA3E0FEA3E0FFEA4B4E4F708A909B
:101672000094E534F0E535A3F090008BE52CF0E51D
:101682002DA3F0900087E0F5F0A3E045F0700990FB
:1016920000877401F0E4A3F090007EE0FFE0704761
:1016A20090007DE07041852C34852D35900087E0D7
:1016B200FAA3E0FBC007AF340F8F067F00C3EE9A98
:1016C200EF9BD0075019758220C007C003C00212D9
:1016D2000EB9D002D003D0071ABAFF011B80D590F1
:1016E2000087EAF0EBA3F0900081E0602075822D84
:1016F200C007120EB9D007900087E024FFFDA3E0D7
:1017020034FFFE900087EDF0EEA3F0805690008B40
:10171200E0F5F0A3E045F0604A90007FE0602075BC
:10172200822BC007120EB9D007900087E024FFFD7C
:10173200A3E034FFFE900087EDF0EEA3F08024904A
:101742000080E0601E758220C007120EB9D007909B
:101752000087E024FFFDA3E034FFFE900087EDF058
:10176200EEA3F090007DE0704890008BE0F534A38A
:10177200E0F535900087E0FAA3E0FBC0078A068B0C
:10178200071ABAFF011BC3E5349EE5359FD0075007
:1017920053EF60067D307E0080047D207E008D82C6
:1017A200C007C003C002120EB9D002D003D0078016
:1017B200CA900087E0FEA3E0FF90008BE0F534A31F
:1017C200E0F535C3E5349EE5359F500F900087EE76
:1017D200C39534F0EF9535A3F08011900087E4F0C3
:1017E200A3F08008900087EAF0EBA3F0900094E069
:1017F200FEA3E0FF90008BE0F534A3E0F535AA34B8
:10180200AD35153474FFB534021535EA4D60459097
:101812000085E0B40100E433F0900085E070140E1E
:10182200BE00010F8E828F83E0C4540FFD90006DC5
:10183200F0800E8E828F83E0FD53050F90006DEDD8
:10184200F090006DE0F582C007C006120EF4D006DB
:10185200D00780AA90007DE07003020FC590008738
:10186200E0FEA3E0FF8E038F051EBEFF011FEB4DBE
:101872007003020FC5758220C007C006120EB9D0D0
:1018820006D00780E08C82120EB9020FC590006E5E
:10189200E0FEA3E08E82F58322AA82AB831218D3E4
:1018A2006003A380F8C3E5829AF582E5839BF58302
:1018B20022AA83AB828BF0900096E0A4F8A9F08A6A
:1018C200F0E0A429F98BF0A3E0A429F58388822211
:1018D2002220F71430F6148883A88220F507E6A8A0
:1018E2008375830022E280F7E49322E0227582006E
:0118F20022D3
:1018F3000A2054657374207374617274202E2E2E23
:10190300000A2041444320726573756C74203D20A6
:1019130030782578003C4E4F20464C4F41543E00D2
:040000030000005F9A
:00000001FF
