:06000000020006020326C7
:03000600758132CF
:0A000900121546E5826003020003B1
:100013007900E94400601B7A00901592787475A00A
:1000230000E493F2A308B8000205A0D9F4DAF2754C
:02003300A0FF2C
:10003500E478FFF6D8FD7800E84400600A79017598
:10004500A000E4F309D8FC7873E84400600C79015A
:0A005500900001E4F0A3D8FCD9FAF2
:03005F0002000399
:10006200744AC0E07415C0E07480C0E0120ADE1564
:10007200811581158180FE22C29575820512044088
:100082007582FF120452AF825307017E00BF010541
:10009200BE000280E5D29522C29575820612044006
:1000A200D29522C295758204120440D29522AFF0F5
:1000B200AE83E582900004F0EEA3F0EFA3F0C295C8
:1000C20075829012044075820012044075820012FB
:1000D2000440758200120440900004E0FDA3E0FE9B
:1000E200A3E0FF7582FFC007C006C005120452AC30
:1000F20082D005D006D0078D828E838FF0EC120A53
:1001020075900001E0FDA3E0FEA3E0FF7582FFC051
:1001120007C006C005120452AC82D005D006D00733
:100122008D828E838FF0EC120A75D2952212009A7C
:10013200C2957582C7120440D29512007A1200A5A8
:1001420022E582900009F012009AC295758220126F
:100152000440900009E0F582120440900007E0F5A7
:1001620082120440900008E0F582120440D29512F7
:10017200007A1200A52253B3DF53B4DF53B3FE5308
:10018200B4FE53B1FE53B2FE53B1FD53B2FDA2AF62
:100192009200C2AF75C7AA75C755759100A20092A9
:1001A200AF43F302A2AF9200C2AF75C7AA75C7559B
:1001B200759100A20092AF53F3FE43F408A2AF92EE
:1001C20000C2AF75C7AA75C755759100A20092AF5C
:1001D20053F37FA2AF9200C2AF75C7AA75C7557518
:1001E2009100A20092AF43F310A2AF9200C2AF758A
:1001F200C7AA75C755759100A20092AF53F3DFA24B
:10020200AF9200C2AF75C7AA75C755759100A2001B
:1002120092AF53F3F7A2AF9200C2AF75C7AA75C7E8
:1002220055759100A20092AF53F3FBA2AF9200C2A8
:10023200AF75C7AA75C755759100A20092AF43F377
:100242004022C29575820312044075820012044056
:100252007582001204407582001204407E007F0005
:10026200758200C007C006120452AD82D006D007C4
:10027200BDFF02800BC007C006120062D006D00785
:100282000EBE00010F8F0574FF2D50D4D29522129D
:10029200009AC295758202120440758200120440CF
:1002A2007582001204407582001204407E007F00B5
:1002B2008E058D82C007C006120440D006D0070EFC
:1002C200BE00010F8F0574FF2D50E5D29512007A02
:1002D2001200A522C2957582031204407582001293
:1002E20004407582001204407582001204407E00B0
:1002F2007F00758200C007C006120452AD82D0068C
:10030200D0078E04EDB50402800BC007C0061200B0
:1003120062D006D0070EBE00010F8F0574FF2D506C
:10032200D1D295227582061204701209557460C0EA
:10033200E07415C0E07480C0E0120ADE15811581F8
:100342001581120178900001740BF07400A3F0E49F
:10035200A3F090000A75F0001200B090000AE0FFCE
:10036200BFEF02800D90000BE0FFBF14028003126A
:100372000062900007E4F0900008F075820012011C
:10038200431202441202911202D67471C0E0741533
:10039200C0E07480C0E0120ADE15811581158180EB
:1003A200FE22AF83E58290000CF0EFA3F090000CE8
:1003B200E0FEA3E0FF8E828F83E493A3E493F582B1
:1003C20022E58290000EF0E04480FF75C7AA75C74F
:1003D200558F9F22E58290000FF0E060054387026F
:1003E200000022E582900010F0E0600543870100E2
:1003F20000227F007E7F00DEFD0FBF1A0040F52243
:10040200E582900011F0E024FF92AF22AF83E582F3
:10041200900012F0EFA3F010990280FB900012E01E
:10042200FEA3E08E997F008E828F83223098FD900A
:100432000014E599F0C298900014E0F58222E5825A
:10044200900015F0E0F5F5E5F430E7FB53F47F2278
:10045200E582900016F0E0F5F5E5F430E7FB900058
:1004620017E5F5F053F47F900017E0F58222E5825C
:10047200900018F0A2AF9200C2AF75C7AA75C75517
:10048200439F01A20092AF759100900018E0FFBF58
:100492000602800ABF0702800ABF080F800A75A6FB
:1004A20038800875A630800375A63075A70075AF31
:1004B20004A2AF9200C2AF75C7AA75C75543A40183
:1004C200A20092AFAEAEE5A604F5A6A2AF9200C21C
:1004D200AF75C7AA75C75543A401A20092AFADAECE
:1004E200BF080280030205728E07EF2FFF8D04748E
:1004F200015C2FFF74C05FFC743F5FFBEF24F2FFCF
:10050200900019F075AF0C75A60175A700A2AFC2D5
:10051200AFA2AF9200C2AF75C7AA75C75543AA4032
:10052200A20092AF75C7AA75C75543A401A2009253
:10053200AF744BB5AE02800C7452B5AE0280057436
:1005420053B5AE24BB0F005018BC40028008BC80DB
:10055200028003BCC0128F04EC24F2900019F080D8
:1005620007EF24FC900019F0900019E0FFC313FE7E
:1005720075C7AA75C7558E8475C7AA75C7558D8567
:10058200A2AF9200C2AF75C7AA75C755539FFEA20C
:100592000092AF22E58290001AF0E0FFBF020280D3
:1005A2000ABF03028013BF04568029758202120615
:1005B200027582021206718046758203120671A2CA
:1005C200AF9200C2AF75C7AA75C7555397DFA20095
:1005D20092AF802B75820212060275820212067198
:1005E200758204120602758204120671A2AF92008D
:1005F200C2AF75C7AA75C7555397DFA20092AF2243
:10060200E58290001BF0E0FFBF02028005BF042AD2
:10061200801AA2AF9200C2AF75C7AA75C755439799
:1006220020A20092AFE59620E51080F975C7AA7561
:10063200C7554397C0E59630E3FB22E58290001C44
:10064200F0759100E0FFBF02028005BF0420801513
:10065200A2AF9200C2AF75C7AA75C7555397DFA262
:100662000092AF800975C7AA75C75553973F22E517
:100672008290001DF0759100A2AF9200C2AF90006F
:100682001DE0FFBF0202800ABF0302802DBF046586
:100692008050A2AF9200C2AF75C7AA75C7555396D4
:1006A200FBA20092AFA2AF9200C2AF75C7AA75C7F4
:1006B200555396FDA20092AF803BA2AF9200C2AF0B
:1006C20075C7AA75C755439604A20092AFA2AF920E
:1006D20000C2AF75C7AA75C7555396FDA20092AF67
:1006E2008013A2AF9200C2AF75C7AA75C7554396D1
:1006F20008A20092AFA20092AF22AF82AE83ADF009
:10070200FC900025EFF0EEA3F0EDA3F0ECA3F09047
:100712000020E0FF600FBF01030207B0BF02030227
:10072200085B0208EA759850438920438780438E0C
:1007320010A2AF9200C2AF75C7AA75C755759100D6
:10074200A20092AF53C4DF900025E0FCA3E0FDA31A
:10075200E0FEA3E0FFEDC4CCC4540F6CCC540FCC2C
:100762006CCCFDEEC454F04DFDEFC4CEC4540F6EFC
:10077200CE540FCE6ECEFF900021E0F8A3E0F9A395
:10078200E0FAA3E0FB90002DE8F0E9A3F0EAA3F081
:10079200EBA3F08C828D838EF0EF120981AC82ADD7
:1007A20083AEF0FFC3E49CF58DD28E0208EA759801
:1007B2005043878053C4F8A2AF9200C2AF75C7AA54
:1007C20075C755759100A20092AF43C420900025D1
:1007D200E0FCA3E0FDA3E0FEA3E0FFEDC4CCC45423
:1007E2000F6CCC540FCC6CCCFDEEC454F04DFDEF2D
:1007F200C4CEC4540F6ECE540FCE6ECEFF900021E5
:10080200E0F8A3E0F9A3E0FAA3E0FB90002DE8F002
:10081200E9A3F0EAA3F0EBA3F08C828D838EF0EFD4
:10082200120981AC82AD83AEF0FFE4C39CF8E49D73
:10083200F974019EFAE49FFB89C6C3E49CFC8CC553
:10084200A2AF9200C2AF75C7AA75C755759100A233
:100852000092AF43C4080208EA75F85075C480904C
:100862000025E0FCA3E0FDA3E0FEA3E0FFEDC4CC85
:10087200C4540F6CCC540FCC6CCCFDEEC454F04D70
:10088200FDEFC4CEC4540F6ECE540FCE6ECEFF9089
:100892000021E0F8A3E0F9A3E0FAA3E0FB90002D29
:1008A200E8F0E9A3F0EAA3F0EBA3F08C828D838E4B
:1008B200F0EF120981AC82AD83AEF0FFE4C39CF885
:1008C200E49DF974019EFAE49FFB89C6C3E49CFC93
:1008D2008CC5A2AF9200C2AF75C7AA75C7557591F4
:1008E20000A20092AF43C40822E582900029F09052
:1008F200002AE4F0900029E0FF6005BF011A800D94
:100902003098FD90002AE599F0C298800B30F8FDEE
:1009120090002AE59AF0C2F890002AE0F58222E5DA
:100922008290002CF0E0FF6005BF01268011C2AC6E
:1009320090002BE0F59910990280FBD2AC80135302
:100942009CFE90002BE0F59A10F90280FB439C017B
:10095200D2AF2253B1BF53B2BF900020E4F0900057
:1009620021F074C2A3F07401A3F0E4A3F090360066
:1009720075F06E74011206FCD299D201C2AC22AF9C
:1009820082AE83ADF0FC900031EFF0EEA3F0EDA368
:10099200F0ECA3F0900035E4F0A3F0A3F0A3F09004
:1009A200002DE0FCA3E0FDA3E0FEA3E0FF7B20C05E
:1009B20003900031E0F8A3E0F9A3E0FAA3E0FB9092
:1009C2000039235401F0E828F8E933F9EA33FAEB65
:1009D20033FB900031E8F0E9A3F0EAA3F0EBA3F0D7
:1009E200900035E0F8A3E0F9A3E0FAA3E0FBE828E1
:1009F200F8E933F9EA33FAEB33FB900035E8F0E932
:100A0200A3F0EAA3F0EBA3F0D003900039E0600872
:100A1200900035E043E001F0900035E0F52FA3E0CF
:100A2200F530A3E0F531A3E0F532C3E52F9CE530C4
:100A32009DE5319EE5329F401F900035E52FC39C16
:100A4200F0E5309DA3F0E5319EA3F0E5329FA3F0DF
:100A5200900031E043E001F01BEB60030209B1902A
:100A62000031E0FCA3E0FDA3E0FEA3E08C828D83D5
:100A72008EF02220F71130F6138883A88220F50920
:100A8200F6A8837583002280FEF280F5F022C02E44
:100A920085812E7E008E8312040ED02E22AFF0AE00
:100AA20083E58290003CF0EEA3F0EFA3F090003CCF
:100AB200E0FDA3E0FEA3E0FF90003BE0FC900050CD
:100AC200E4F0A3F0A3F0900053EDF0EEA3F0EFA357
:100AD200F0900056ECF0900A90020BE4C02EE581F3
:100AE200F52E24FBFF900050E4F0A3F0A3F0E52ED6
:100AF20024FBF8900053E6F008E6A3F008E6A3F022
:100B0200900056EFF0900A90120BE4D02E22E5826C
:100B120090004CF0E0FF900042E0C0E0A3E0C0E0B3
:100B2200A3E0C0E0120B2B800D900040E0C0E0A3D8
:100B3200E0C0E08F822215811581158190004AE084
:100B42002401F0A3E03400F022E58290004DF0E0B1
:100B52002430FF24C6500D74072FFF90003FE06041
:100B6200034307208F82020B10E58290004EF0E0D3
:100B7200FFC4540FF582C007120B4BD00753070F67
:100B82008F82020B4BE58290004FF0900045E0FC13
:100B9200A3E0FDA3E0FEA3E0FF900049E0FB90008C
:100BA2004FE0FA79208B00E828F52FEF2354014516
:100BB2002FFBEC2CFCED33FDEE33FEEF33FFC3EBEA
:100BC2009A4007EBC39AFB43040119E970D79000DE
:100BD20045ECF0EDA3F0EEA3F0EFA3F0900049EBAB
:100BE200F022AF83E582900057F0EFA3F090005718
:100BF200E0FEA3E0FF900040EEF0EFA3F090005083
:100C0200E0FDA3E0FEA3E0FF900042EDF0EEA3F0D2
:100C1200EFA3F090004AE4F0A3F0900053E0FDA3AC
:100C2200E0FEA3E0FF8D828E838FF012152AFC90E6
:100C3200005374012DF0E43EA3F0EFA3F0EC700337
:100C42000214E6BC250280030214DE900059E4F08F
:100C520090005AF090005BF090005CF090005DF024
:100C620090005EF090005FF0900060F0900062F003
:100C7200900063F0A3F090006514F0A3F09000538D
:100C8200E0FDA3E0FEA3E0FF8D828E838FF01215BC
:100C92002AFBA3AD82AE83900053EDF0EEA3F0EFFA
:100CA200A3F0900069EBF0BB25088B82120B1002B7
:100CB2000C1CBB30005003020D7DEB24C650030216
:100CC2000D7D900065E0F524A3E0F52574FFB524C1
:100CD20063B52560C005C006C007900063E0FAA3B3
:100CE200E0FF900072EAF0EFA3F090000AC005C0A6
:100CF2000312150AAE82AF83D003D0058B027D00AA
:100D0200EA2EFEED3FFFEE24D0FEEF34FFFF90000F
:100D120063EEF0EFA3F0D007D006D005900063E0B9
:100D2200F5F0A3E045F06003020C8A90005A7401CA
:100D3200F0020C8AC005C006C007900072E524F0DC
:100D4200E525A3F090000AC006C005C00312150AEB
:100D5200AA82AF83D003D005D0067E00EB2AFAEE3A
:100D62003FFFEA24D0FAEF34FFFF900065EAF0EF8C
:100D7200A3F0D007D006D005020C8A900069E0FBF0
:100D8200BB2E2FC005C006C007900065E0FAA3E0A5
:100D9200FFBAFF05BFFF028009D007D006D00502C7
:100DA2000C8AD007D006D005900065E4F0A3F002CB
:100DB2000C8ABB61004014EB2485400F90006974DB
:100DC200DF5BF090003F7401F0800590003FE4F09B
:100DD200900069E0FBBB20028075BB2B028067BBE1
:100DE2002D028059BB4202806FBB4302807CBB4410
:100DF20003021074BB460302109ABB4803020C8A1A
:100E0200BB4903021074BB4A03020C8ABB4C02802A
:100E120050BB4F03021082BB5003020FE2BB5302CE
:100E22008077BB5403020C8ABB550302108ABB585D
:100E320003021092BB5A03020C8A0210A2900059BC
:100E42007401F0020C8A90005B7401F0020C8A902B
:100E5200005C7401F0020C8A90005E7401F0020CD6
:100E62008A90005F7401F0020C8A90005EE0600ECE
:100E7200900056E014F9F0900069E7F0800F9000BE
:100E820056E024FEFFF08F01900069E7F0900069C0
:100E9200E0F582120B100210B1900056E024FDFF23
:100EA200F08F018705098706098707191990004500
:100EB200EDF0EEA3F0EFA3F08D828E838FF012148B
:100EC200F2858224858325900065E0FAA3E0FDBACD
:100ED200FF0DBDFF0A900065E524F0E525A3F09023
:100EE2000059E0704B900063E0FAA3E0FDC3E524F3
:100EF2009AE5259D503A900063EAC39524F0ED955A
:100F020025A3F0900063E0FAA3E0FD8A068D071A9C
:100F1200BAFF011DEE4F6010758220C005C002129B
:100F22000B10D002D00580E3900063EAF0EDA3F04D
:100F3200900065E0F527A3E0F528900045E0FAA3CC
:100F4200E0FDA3E0FF8A828D838FF012152AF52639
:100F5200603CC3E4952774808528F063F08095F0A7
:100F6200502C152774FFB527021528852682120BEF
:100F720010900045E0FAA3E0FDA3E0FF0ABA0001E9
:100F82000D900045EAF0EDA3F0EFA3F080AC9000E5
:100F920059E070030210B1900063E0FEA3E0FFC3CA
:100FA200E5249EE5259F40030210B1900063EEC345
:100FB2009524F0EF9525A3F0900063E0FEA3E0FFF7
:100FC2008E028F051EBEFF011FEA4D70030210A99B
:100FD200758220C007C006120B10D006D00780E031
:100FE200900056E024FDFDF08D01872909872A092A
:100FF200872B1919900045E529F0E52AA3F0E52B86
:10100200A3F0900047E0FDBD8000400890006974A5
:1010120043F08020BD600040089000697450F08069
:1010220013BD400040089000697449F080069000AA
:10103200697458F0900069E0FDF582C005120B104A
:1010420075823A120B10758230120B10758278126B
:101052000B10D005BD4902800EBD500280099000E0
:1010620046E0F582120B6B900045E0F582120B6BA5
:10107200803D90005D7401F0900062740AF0802F50
:101082009000627408F08027900062740AF0801F5A
:101092009000627410F080179000607401F0800F6D
:1010A2008B82120B108008900063EEF0EFA3F09099
:1010B2000060E06071900056E024FCFFF08F018731
:1010C2000309870509870609870719191990004539
:1010D200EBF0EDA3F0EEA3F0EFA3F09000457487E0
:1010E200F07415A3F07480A3F0900045E0F529A3F5
:1010F200E0F52AA3E0F52B74012529FAE4352AFB51
:10110200AF2B900045EAF0EBA3F0EFA3F085298224
:10111200852A83852BF012152AFF7003020C1C8F7F
:1011220082120B1080C3900062E07003020C1C90CC
:10113200005EE06047900056E014F9F087077E00F9
:101142007D007B00900045EFF0EEA3F0EDA3F0EB05
:10115200A3F090005DE060030211F4900045E0FB13
:10116200A3E0A3E0A3E07D007E007F00900045EBBA
:10117200F0EDA3F0EEA3F0EFA3F0807690005FE035
:101182006028900056E024FCFFF08F018703098756
:1011920005098706098707191919900045EBF0ED33
:1011A200A3F0EEA3F0EFA3F08048900056E024FEF7
:1011B200FFF08F01870609870719EF3395E0FDFBE2
:1011C200900045EEF0EFA3F0EDA3F0EBA3F090005A
:1011D2005DE0701E900045E0FBA3E0FDA3E0A3E00C
:1011E2007E007F00900045EBF0EDA3F0EEA3F0EF60
:1011F200A3F090005DE06041900045E0FBA3E0FDBC
:10120200A3E0FEA3E0FF30E72B900045E0FBA3E064
:10121200FDA3E0FEA3E0FFC3E49BFBE49DFDE49E8F
:10122200FEE49FFF900045EBF0EDA3F0EEA3F0EF9C
:10123200A3F0800590005DE4F09000617401F090ED
:101242000062E0F527752C6F752D00E4F524F52575
:10125200900049E4F0852782120B87900061E070CC
:1012620033900049E0C454F0F529900049E0C45499
:101272000F4529F529852C82852D83E0FFE529423A
:1012820007852C82852D83EFF0152C74FFB52C0277
:10129200152D800C900049E0FF852C82852D83F06E
:1012A2000524E4B524020525900061E0B40100E4C0
:1012B20033F0900045E0FAA3E0FBA3E0FEA3E0FFD9
:1012C200EA4B4E4F708A900070E52CF0E52DA3F0AA
:1012D200900067E524F0E525A3F0900063E0F5F0C7
:1012E200A3E045F070099000637401F0E4A3F0906C
:1012F200005AE0FFE07047900059E0704185242CCD
:1013020085252D900063E0FAA3E0FBC007AF2C0F08
:101312008F067F00C3EE9AEF9BD00750197582208B
:10132200C007C003C002120B10D002D003D0071AAC
:10133200BAFF011B80D5900063EAF0EBA3F09000A6
:101342005DE0602075822DC007120B10D00790005F
:1013520063E024FFFDA3E034FFFE900063EDF0EEB6
:10136200A3F08056900067E0F5F0A3E045F0604AF4
:1013720090005BE0602075822BC007120B10D00733
:10138200900063E024FFFDA3E034FFFE900063EDD4
:10139200F0EEA3F0802490005CE0601E758220C015
:1013A20007120B10D007900063E024FFFDA3E03486
:1013B200FFFE900063EDF0EEA3F0900059E070485C
:1013C200900067E0F52CA3E0F52D900063E0FAA30E
:1013D200E0FBC0078A068B071ABAFF011BC3E52C84
:1013E2009EE52D9FD0075053EF60067D307E008032
:1013F200047D207E008D82C007C003C002120B1044
:10140200D002D003D00780CA900063E0FEA3E0FFC1
:10141200900067E0F52CA3E0F52DC3E52C9EE52DA9
:101422009F500F900063EEC3952CF0EF952DA3F023
:101432008011900063E4F0A3F08008900063EAF06A
:10144200EBA3F0900070E0FEA3E0FF900067E0F5F0
:101452002CA3E0F52DAA2CAD2D152C74FFB52C0272
:10146200152DEA4D6045900061E0B40100E433F0CF
:10147200900061E070140EBE00010F8E828F83E037
:10148200C4540FFD900049F0800E8E828F83E0FDE0
:1014920053050F900049EDF0900049E0F582C00736
:1014A200C006120B4BD006D00780AA900059E070FC
:1014B20003020C1C900063E0FEA3E0FF8E038F0585
:1014C2001EBEFF011FEB4D7003020C1C758220C073
:1014D20007C006120B10D006D00780E08C82120BD8
:1014E20010020C1C90004AE0FEA3E08E82F58322DB
:1014F200AA82AB8312152A6003A380F8C3E5829AFD
:10150200F582E5839BF58322AA83AB828BF0900060
:1015120072E0A4F8A9F08AF0E0A429F98BF0A3E024
:10152200A429F5838882222220F71430F6148883B6
:10153200A88220F507E6A88375830022E280F7E4FB
:081542009322E02275820022D1
:10154A000A20535049207472616E73666572206571
:10155A0072726F7221000A0D2054657374207374BD
:10156A006172742E2E2E000A0D2053504920747277
:10157A00616E7366657220646F6E6521003C4E4F22
:08158A0020464C4F41543E0085
:040000030000005F9A
:00000001FF
