:100000000200613200000000000000320000000029
:10001000000000320000000000000032000000007C
:10002000000000320000000000000032000000006C
:10003000000000320000000000000032000000005C
:10004000000000320000000000000032000000004C
:1000500000000032000000000000000200BD0200AD
:01006000F7A8
:0300610075813A6C
:0A006400121828E582600302005E16
:10006E007900E94400601B7A00901857789075A0CB
:10007E0000E493F2A308B8000205A0D9F4DAF275F1
:02008E00A0FFD1
:10009000E478FFF6D8FD7800E84400600A7901753D
:1000A000A000E4F309D8FC788FE84400600C7901E3
:0A00B000900001E4F0A3D8FCD9FA97
:0300BA0002005EE3
:1000BD00C0E0C0D0859123A2AF9201C2AF75C7AA8F
:1000CD0075C755759100A20192AFC2EFD200E5231D
:1000DD006013A2AF9201C2AF75C7AA75C7557591CE
:1000ED0001A20192AFD0D0D0E032C20075820612CB
:1000FD000701120BE6742CC0E07418C0E07480C0C8
:10010D00E0120DC0158115811581A2AF9201C2AF0C
:10011D0075C7AA75C755759100A20192AF53E1FE3F
:10012D0053E8F085E8E843B38053B47F75F6004398
:10013D00F601A2AF9201C2AF75C7AA75C7557591E9
:10014D0000A20192AF43E10153B1EF53B2EF43E887
:10015D003053E1BF53E1F385E1E143E102D2AED289
:10016D00AF300038AEC3E4C454F0CEC4CE6ECE541E
:10017D00F0CE6EFFACC253040F7D00EE4204EF4291
:10018D0005C004C005743DC0E07418C0E07480C0A3
:10019D00E0120DC0E58124FBF581C20090000774CB
:1001AD00F4F07401A3F090000974E8F07403A3F067
:1001BD0090360075F06E740112023580A422AF8363
:1001CD00E582900001F0EFA3F0900001E0FEA3E0C6
:1001DD00FF8E828F83E493A3E493F58222E58290D0
:1001ED000003F0E04480FF75C7AA75C7558F9F22A5
:1001FD00E582900004F0E06005438702000022E5EF
:10020D0082900005F0E060054387010000227F0029
:10021D007E7F00DEFD0FBF1A0040F522E5829000C3
:10022D0006F0E024FF92AF22AF82AE83ADF0FC90DA
:10023D00000BEFF0EEA3F0EDA3F0ECA3F0538EF76F
:10024D005389F043890190000BE0FCA3E0FDA3E08E
:10025D00FEA3E0FF9000467440F07442A3F0740FCB
:10026D00A3F0E4A3F08C828D838EF0EF120C12AC10
:10027D0082AD83AEF0FF900009E0FAA3E0FB9000A1
:10028D0053EAF0EBA3F0E4A3F0A3F08C828D838E00
:10029D00F0EF120D06AC82AD83AEF0FF9000467408
:1002AD000CF0E4A3F0A3F0A3F08C828D838EF0EF1D
:1002BD00120C12AC82AD83AEF0FF8C0374FFC39BA6
:1002CD00FB74FFC39C74FF9DFDE49EE49F8D07901E
:1002DD000007E0FDA3E0FEED4E60148B8A8F8CD2FB
:1002ED008C108D0280FBC28C1DBDFF011E80E8228B
:1002FD00AF82AE83ADF0FC900013EFF0EEA3F0ED06
:10030D00A3F0ECA3F0538EEF53890F4389109000A7
:10031D0013E0FCA3E0FDA3E0FEA3E0FF9000467414
:10032D0040F07442A3F0740FA3F0E4A3F08C828D1F
:10033D00838EF0EF120C12AC82AD83AEF0FF900005
:10034D0011E0FAA3E0FB900053EAF0EBA3F0E4A375
:10035D00F0A3F08C828D838EF0EF120D06AC82AD82
:10036D0083AEF0FF900046740CF0E4A3F0A3F0A36D
:10037D00F08C828D838EF0EF120C12AC82AD83AEB9
:10038D00F0FF8C0374FFC39BFB74FFC39C74FF9D34
:10039D00FDE49EE49F8D0790000FE0FDA3E0FEEDD0
:1003AD004E60148B8B8F8DD28E108F0280FBC28E80
:1003BD001DBDFF011E80E822AF82AE83ADF0FC9023
:1003CD00001FEFF0EEA3F0EDA3F0ECA3F07591009C
:1003DD00900017E0FEA3E0FF8E048F05BC0105BD64
:1003ED0000028038BC0405BD00028035BC1005BD7F
:1003FD0000028035BC2005BD00028035BC4005BD26
:10040D0000028035BC8005BD00028035BC0005BDF5
:10041D0001028035BC0040BD023D803553C98F803F
:10042D003653C98F43C910802E53C98F43C92080BD
:10043D002653C98F43C930801E53C98F43C940808D
:10044D001653C98F43C950800E53C98F43C960805D
:10045D000653C98F43C970C2C843C98043C90490AC
:10046D00001FE0FAA3E0FBA3E0FCA3E0FD90004633
:10047D007440F07442A3F0740FA3F0E4A3F08A82E9
:10048D008B838CF0EDC007C006120C12858224857B
:10049D00832585F026F52790001BE0F8A3E0F9A34E
:1004AD00E0FCA3E0FD900053E8F0E9A3F0ECA3F02D
:1004BD00EDA3F08524828525838526F0E527120D91
:1004CD0006AA82AB83ACF0FDD006D007900046EEB5
:1004DD00F0EFA3F0E4A3F0A3F08A828B838CF0ED10
:1004ED00120C12AC82AD83AEF0FF8C03C3E49BFB08
:1004FD00E4C39CE49DFD74019EE49F8D079000195B
:10050D00E0FDA3E0FEED4E60148BCC8FCDD2CA1072
:10051D00CF0280FBC2CA1DBDFF011E80E822AF8243
:10052D00AE83ADF0FC90002AEFF0EEA3F0EDA3F05A
:10053D00ECA3F0759100900023E0FFBF0102802332
:10054D00BF02028023BF04028026BF08028029BF9C
:10055D001002802CBF2002802FBF40028032BF804E
:10056D003D803553C4F8803653C4F843C401802E02
:10057D0053C4F843C402802653C4F843C403801EF9
:10058D0053C4F843C404801653C4F843C405800E05
:10059D0053C4F843C406800653C4F843C4079000FF
:1005AD002AE0FBA3E0FCA3E0FDA3E0FE900046746F
:1005BD0040F07442A3F0740FA3F0E4A3F08B828C8F
:1005CD00838DF0EEC007120C128582288583298554
:1005DD00F02AF52B900026E0F8A3E0F9A3E0FAA3AA
:1005ED00E0FE900053E8F0E9A3F0EAA3F0EEA3F0EB
:1005FD00852882852983852AF0E52B120D06AB828D
:10060D00AC83ADF0FED007900046EFF0E4A3F0A36D
:10061D00F0A3F08B828C838DF0EE120C12AC82ADB8
:10062D0083AEF0FF8C03C3E49BFBE4C39CE49DFD10
:10063D0074019EE49F8D07900024E0FDA3E0FEED84
:10064D004E6068A2AF9201C2AF75C7AA75C7557546
:10065D009100A20192AF53C4EF8BC58FC6A2AF928A
:10066D0001C2AF75C7AA75C755759100A20192AFAA
:10067D0043C408E5C430E4FBA2AF9201C2AF75C715
:10068D00AA75C755759100A20192AF53C4EFA2AFE1
:10069D009201C2AF75C7AA75C755759100A2019297
:1006AD00AF53C4F71DBDFF011E8094A2AF9201C2CE
:1006BD00AF75C7AA75C755759100A20192AF53C406
:1006CD00F722AF83E58290002EF0EFA3F010990290
:1006DD0080FB90002EE0FEA3E08E997F008E828F2E
:1006ED0083223098FD900030E599F0C2989000304B
:1006FD00E0F58222E582900031F0A2AF9201C2AF07
:10070D0075C7AA75C755439F01A20192AF75910098
:10071D00900031E0FFBF0602800ABF0702800ABFCA
:10072D00080F800A75A638800875A630800375A657
:10073D003075A70075AF04A2AF9201C2AF75C7AAFD
:10074D0075C75543A401A20192AFAEAEE5A604F55F
:10075D00A6A2AF9201C2AF75C7AA75C75543A40132
:10076D00A20192AFADAEBF080280030208038E074F
:10077D00EF2FFF8D0474015C2FFF74C05FFC743F7D
:10078D005FFBEF24F2FF900032F075AF0C75A60100
:10079D0075A700A2AFC2AFA2AF9201C2AF75C7AA33
:1007AD0075C75543AA40A20192AF75C7AA75C75523
:1007BD0043A401A20192AF744BB5AE02800C7452EA
:1007CD00B5AE0280057453B5AE24BB0F005018BCF6
:1007DD0040028008BC80028003BCC0128F04EC2450
:1007ED00F2900032F08007EF24FC900032F0900080
:1007FD0032E0FFC313FE75C7AA75C7558E8475C742
:10080D00AA75C7558D85A2AF9201C2AF75C7AA75DE
:10081D00C755539FFEA20192AF22E582900033F09F
:10082D00E0FFBF0202800ABF03028013BF0456809F
:10083D00297582021208937582021209028046758B
:10084D008203120902A2AF9201C2AF75C7AA75C782
:10085D00555397DFA20192AF802B75820212089338
:10086D0075820212090275820412089375820412B0
:10087D000902A2AF9201C2AF75C7AA75C7555397AA
:10088D00DFA20192AF22E582900034F0E0FFBF02BB
:10089D00028005BF042A801AA2AF9201C2AF75C7AC
:1008AD00AA75C755439720A20192AFE59620E51092
:1008BD0080F975C7AA75C7554397C0E59630E3FB18
:1008CD0022E582900035F0759100E0FFBF020280B5
:1008DD0005BF04208015A2AF9201C2AF75C7AA75DE
:1008ED00C7555397DFA20192AF800975C7AA75C787
:1008FD005553973F22E582900036F0759100A2AFD7
:10090D009201C2AF900036E0FFBF0202800ABF0322
:10091D0002802DBF04658050A2AF9201C2AF75C792
:10092D00AA75C7555396FBA20192AFA2AF9201C211
:10093D00AF75C7AA75C7555396FDA20192AF803BFF
:10094D00A2AF9201C2AF75C7AA75C755439604A24F
:10095D000192AFA2AF9201C2AF75C7AA75C7555329
:10096D0096FDA20192AF8013A2AF9201C2AF75C7DF
:10097D00AA75C755439608A20192AFA20192AF2264
:10098D00AF82AE83ADF0FC90003EEFF0EEA3F0ED44
:10099D00A3F0ECA3F0900039E0FF600FBF0103025C
:1009AD000A41BF0203020AEC020B7B759850438982
:1009BD0020438780438E10A2AF9201C2AF75C7AAA4
:1009CD0075C755759100A20192AF53C4DF90003EDB
:1009DD00E0FCA3E0FDA3E0FEA3E0FFEDC4CCC45416
:1009ED000F6CCC540FCC6CCCFDEEC454F04DFDEF20
:1009FD00C4CEC4540F6ECE540FCE6ECEFF90003ABF
:100A0D00E0F8A3E0F9A3E0FAA3E0FB900046E8F0DC
:100A1D00E9A3F0EAA3F0EBA3F08C828D838EF0EFC7
:100A2D00120C12AC82AD83AEF0FFC3E49CF58DD2F7
:100A3D008E020B7B75985043878053C4F8A2AF92FA
:100A4D0001C2AF75C7AA75C755759100A20192AFC6
:100A5D0043C42090003EE0FCA3E0FDA3E0FEA3E034
:100A6D00FFEDC4CCC4540F6CCC540FCC6CCCFDEE4C
:100A7D00C454F04DFDEFC4CEC4540F6ECE540FCE02
:100A8D006ECEFF90003AE0F8A3E0F9A3E0FAA3E000
:100A9D00FB900046E8F0E9A3F0EAA3F0EBA3F08C9D
:100AAD00828D838EF0EF120C12AC82AD83AEF0FF0F
:100ABD00E4C39CF8E49DF974019EFAE49FFB89C69A
:100ACD00C3E49CFC8CC5A2AF9201C2AF75C7AA75D9
:100ADD00C755759100A20192AF43C408020B7B75F7
:100AED00F85075C48090003EE0FCA3E0FDA3E0FE4D
:100AFD00A3E0FFEDC4CCC4540F6CCC540FCC6CCC24
:100B0D00FDEEC454F04DFDEFC4CEC4540F6ECE5463
:100B1D000FCE6ECEFF90003AE0F8A3E0F9A3E0FA15
:100B2D00A3E0FB900046E8F0E9A3F0EAA3F0EBA305
:100B3D00F08C828D838EF0EF120C12AC82AD83AEF1
:100B4D00F0FFE4C39CF8E49DF974019EFAE49FFB69
:100B5D0089C6C3E49CFC8CC5A2AF9201C2AF75C718
:100B6D00AA75C755759100A20192AF43C40822E53D
:100B7D0082900042F0900043E4F0900042E0FF606C
:100B8D0005BF011A800D3098FD900043E599F0C224
:100B9D0098800B30F8FD900043E59AF0C2F8900074
:100BAD0043E0F58222E582900045F0E0FF6005BF4D
:100BBD0001268011C2AC900044E0F5991099028095
:100BCD00FBD2AC8013539CFE900044E0F59A10F9D3
:100BDD000280FB439C01D2AF2253B1BF53B2BF90F1
:100BED000039E4F090003AF074C2A3F07401A3F060
:100BFD00E4A3F090360075F06E740112098DD29950
:100C0D00D202C2AC22AF82AE83ADF0FC90004AEFAF
:100C1D00F0EEA3F0EDA3F0ECA3F090004EE4F0A302
:100C2D00F0A3F0A3F0900046E0FCA3E0FDA3E0FEEE
:100C3D00A3E0FF7B20C00390004AE0F8A3E0F9A3F6
:100C4D00E0FAA3E0FB900052235401F0E828F8E904
:100C5D0033F9EA33FAEB33FB90004AE8F0E9A3F0FD
:100C6D00EAA3F0EBA3F090004EE0F8A3E0F9A3E0C7
:100C7D00FAA3E0FBE828F8E933F9EA33FAEB33FBA2
:100C8D0090004EE8F0E9A3F0EAA3F0EBA3F0D00357
:100C9D00900052E0600890004EE043E001F09000BB
:100CAD004EE0F537A3E0F538A3E0F539A3E0F53ACA
:100CBD00C3E5379CE5389DE5399EE53A9F401F9089
:100CCD00004EE537C39CF0E5389DA3F0E5399EA3B2
:100CDD00F0E53A9FA3F090004AE043E001F01BEBF2
:100CED006003020C4290004AE0FCA3E0FDA3E0FE8D
:100CFD00A3E08C828D838EF022A882A983AAF0FBBB
:100D0D0088F0900053E0A4FCADF089F0E0A42DFD37
:100D1D00E435F0FE88F0A3E0A42DFDE5F03EFEE401
:100D2D0033FF89F0E0A42EFEE5F03FFF88F0A3E04D
:100D3D00A42EFEE5F03FFF8AF0900053E0A42EFEB6
:100D4D00E5F03FFF8BF0E0A42FFF8AF0A3E0A42F86
:100D5D00FF89F0A3E0A42FFF88F0A3E0A42F8EF06D
:100D6D008D838C8222C0368581367E008E8312065D
:100D7D00CFD03622AFF0AE83E582900058F0EEA3CF
:100D8D00F0EFA3F0900058E0FDA3E0FEA3E0FF908C
:100D9D000057E0FC90006CE4F0A3F0A3F090006F1E
:100DAD00EDF0EEA3F0EFA3F0900072ECF0900D7269
:100DBD00020EC6C036E581F53624FBFF90006CE4CB
:100DCD00F0A3F0A3F0E53624FBF890006FE6F008F1
:100DDD00E6A3F008E6A3F0900072EFF0900D72120A
:100DED000EC6D03622E582900068F0E0FF90005EDE
:100DFD00E0C0E0A3E0C0E0A3E0C0E0120E0D800D66
:100E0D0090005CE0C0E0A3E0C0E08F822215811568
:100E1D00811581900066E02401F0A3E03400F022FA
:100E2D00E582900069F0E02430FF24C6500D740770
:100E3D002FFF90005BE060034307208F82020DF2CD
:100E4D00E58290006AF0E0FFC4540FF582C00712EE
:100E5D000E2DD00753070F8F82020E2DE5829000C5
:100E6D006BF0900061E0FCA3E0FDA3E0FEA3E0FFCA
:100E7D00900065E0FB90006BE0FA79208B00E8288C
:100E8D00F537EF2354014537FBEC2CFCED33FDEE2C
:100E9D0033FEEF33FFC3EB9A4007EBC39AFB4304DA
:100EAD000119E970D7900061ECF0EDA3F0EEA3F01D
:100EBD00EFA3F0900065EBF022AF83E58290007315
:100ECD00F0EFA3F0900073E0FEA3E0FF90005CEE66
:100EDD00F0EFA3F090006CE0FDA3E0FEA3E0FF9027
:100EED00005EEDF0EEA3F0EFA3F0900066E4F0A34A
:100EFD00F090006FE0FDA3E0FEA3E0FF8D828E83F6
:100F0D008FF012180CFC90006F74012DF0E43EA3CD
:100F1D00F0EFA3F0EC70030217C8BC2502800302AA
:100F2D0017C0900075E4F0900076F0900077F09087
:100F3D000078F0900079F090007AF090007BF090BE
:100F4D00007CF090007EF090007FF0A3F090008187
:100F5D0014F0A3F090006FE0FDA3E0FEA3E0FF8D81
:100F6D00828E838FF012180CFBA3AD82AE8390009E
:100F7D006FEDF0EEA3F0EFA3F0900085EBF0BB2545
:100F8D00088B82120DF2020EFEBB300050030210D0
:100F9D005FEB24C6500302105F900081E0F52CA397
:100FAD00E0F52D74FFB52C63B52D60C005C006C0EE
:100FBD000790007FE0FAA3E0FF90008EEAF0EFA328
:100FCD00F090000AC005C0031217ECAE82AF83D0BB
:100FDD0003D0058B027D00EA2EFEED3FFFEE24D0FF
:100FED00FEEF34FFFF90007FEEF0EFA3F0D007D0BF
:100FFD0006D00590007FE0F5F0A3E045F060030218
:10100D000F6C9000767401F0020F6CC005C006C025
:10101D000790008EE52CF0E52DA3F090000AC00698
:10102D00C005C0031217ECAA82AF83D003D005D040
:10103D00067E00EB2AFAEE3FFFEA24D0FAEF34FFEA
:10104D00FF900081EAF0EFA3F0D007D006D00502A3
:10105D000F6C900085E0FBBB2E2FC005C006C007AE
:10106D00900081E0FAA3E0FFBAFF05BFFF028009FF
:10107D00D007D006D005020F6CD007D006D0059052
:10108D000081E4F0A3F0020F6CBB61004014EB246F
:10109D0085400F90008574DF5BF090005B7401F06C
:1010AD00800590005BE4F0900085E0FBBB200280A2
:1010BD0075BB2B028067BB2D028059BB4202806F2E
:1010CD00BB4302807CBB4403021356BB4603021391
:1010DD007CBB4803020F6CBB4903021356BB4A038A
:1010ED00020F6CBB4C028050BB4F03021364BB500C
:1010FD00030212C4BB53028077BB5403020F6CBBB7
:10110D00550302136CBB5803021374BB5A03020F31
:10111D006C0213849000757401F0020F6C900077CF
:10112D007401F0020F6C9000787401F0020F6C9056
:10113D00007A7401F0020F6C90007B7401F0020FC5
:10114D006C90007AE0600E900072E014F9F090005F
:10115D0085E7F0800F900072E024FEFFF08F019084
:10116D000085E7F0900085E0F582120DF2021393F1
:10117D00900072E024FDFFF08F01870509870609B5
:10118D0087071919900061EDF0EEA3F0EFA3F08D34
:10119D00828E838FF01217D485822C85832D90003B
:1011AD0081E0FAA3E0FDBAFF0DBDFF0A900081E5D5
:1011BD002CF0E52DA3F0900075E0704B90007FE0D2
:1011CD00FAA3E0FDC3E52C9AE52D9D503A90007FE2
:1011DD00EAC3952CF0ED952DA3F090007FE0FAA3D6
:1011ED00E0FD8A068D071ABAFF011DEE4F601075DE
:1011FD008220C005C002120DF2D002D00580E3900E
:10120D00007FEAF0EDA3F0900081E0F52FA3E0F56B
:10121D0030900061E0FAA3E0FDA3E0FF8A828D83A8
:10122D008FF012180CF52E603CC3E4952F74808559
:10123D0030F063F08095F0502C152F74FFB52F0210
:10124D001530852E82120DF2900061E0FAA3E0FDBB
:10125D00A3E0FF0ABA00010D900061EAF0EDA3F0E2
:10126D00EFA3F080AC900075E07003021393900033
:10127D007FE0FEA3E0FFC3E52C9EE52D9F4003021A
:10128D00139390007FEEC3952CF0EF952DA3F09066
:10129D00007FE0FEA3E0FF8E028F051EBEFF011F43
:1012AD00EA4D700302138B758220C007C006120D24
:1012BD00F2D006D00780E0900072E024FDFDF08DA5
:1012CD000187310987320987331919900061E5319A
:1012DD00F0E532A3F0E533A3F0900063E0FDBD80AF
:1012ED000040089000857443F08020BD60004008E8
:1012FD009000857450F08013BD400040089000852B
:10130D007449F080069000857458F0900085E0FDDA
:10131D00F582C005120DF275823A120DF27582300A
:10132D00120DF2758278120DF2D005BD4902800EB4
:10133D00BD50028009900062E0F582120E4D9000C2
:10134D0061E0F582120E4D803D9000797401F090B0
:10135D00007E740AF0802F90007E7408F080279034
:10136D00007E740AF0801F90007E7410F08017903C
:10137D00007C7401F0800F8B82120DF280089000BA
:10138D007FEEF0EFA3F090007CE06071900072E0D2
:10139D0024FCFFF08F01870309870509870609875C
:1013AD0007191919900061EBF0EDA3F0EEA3F0EF22
:1013BD00A3F0900061744CF07418A3F07480A3F046
:1013CD00900061E0F531A3E0F532A3E0F53374014F
:1013DD002531FAE43532FBAF33900061EAF0EBA32F
:1013ED00F0EFA3F08531828532838533F012180C2E
:1013FD00FF7003020EFE8F82120DF280C390007EED
:10140D00E07003020EFE90007AE06047900072E0FB
:10141D0014F9F087077E007D007B00900061EFF0EE
:10142D00EEA3F0EDA3F0EBA3F0900079E0600302E2
:10143D0014D6900061E0FBA3E0A3E0A3E07D007E65
:10144D00007F00900061EBF0EDA3F0EEA3F0EFA3B1
:10145D00F0807690007BE06028900072E024FCFF25
:10146D00F08F018703098705098706098707191971
:10147D0019900061EBF0EDA3F0EEA3F0EFA3F08077
:10148D0048900072E024FEFFF08F01870609870760
:10149D0019EF3395E0FDFB900061EEF0EFA3F0ED59
:1014AD00A3F0EBA3F0900079E0701E900061E0FBDB
:1014BD00A3E0FDA3E0A3E07E007F00900061EBF0D0
:1014CD00EDA3F0EEA3F0EFA3F0900079E060419072
:1014DD000061E0FBA3E0FDA3E0FEA3E0FF30E72BFE
:1014ED00900061E0FBA3E0FDA3E0FEA3E0FFC3E4F9
:1014FD009BFBE49DFDE49EFEE49FFF900061EBF0FD
:10150D00EDA3F0EEA3F0EFA3F08005900079E4F0E9
:10151D0090007D7401F090007EE0F52F75348B7591
:10152D003500E4F52CF52D900065E4F0852F821241
:10153D000E6990007DE07033900065E0C454F0F5C5
:10154D0031900065E0C4540F4531F5318534828505
:10155D003583E0FFE5314207853482853583EFF031
:10156D00153474FFB534021535800C900065E0FF1D
:10157D00853482853583F0052CE4B52C02052D903C
:10158D00007DE0B40100E433F0900061E0FAA3E0E7
:10159D00FBA3E0FEA3E0FFEA4B4E4F708A90008C58
:1015AD00E534F0E535A3F0900083E52CF0E52DA3AF
:1015BD00F090007FE0F5F0A3E045F0700990007F1A
:1015CD007401F0E4A3F0900076E0FFE07047900026
:1015DD0075E07041852C34852D3590007FE0FAA3A0
:1015ED00E0FBC007AF340F8F067F00C3EE9AEF9B71
:1015FD00D0075019758220C007C003C002120DF22A
:10160D00D002D003D0071ABAFF011B80D590007FFE
:10161D00EAF0EBA3F0900079E0602075822DC00711
:10162D00120DF2D00790007FE024FFFDA3E034FF00
:10163D00FE90007FEDF0EEA3F08056900083E0F574
:10164D00F0A3E045F0604A900077E0602075822BB2
:10165D00C007120DF2D00790007FE024FFFDA3E03C
:10166D0034FFFE90007FEDF0EEA3F0802490007823
:10167D00E0601E758220C007120DF2D00790007F2A
:10168D00E024FFFDA3E034FFFE90007FEDF0EEA31C
:10169D00F0900075E07048900083E0F534A3E0F51C
:1016AD003590007FE0FAA3E0FBC0078A068B071A8E
:1016BD00BAFF011BC3E5349EE5359FD0075053EFAC
:1016CD0060067D307E0080047D207E008D82C00707
:1016DD00C003C002120DF2D002D003D00780CA9011
:1016ED00007FE0FEA3E0FF900083E0F534A3E0F57A
:1016FD0035C3E5349EE5359F500F90007FEEC395C1
:10170D0034F0EF9535A3F0801190007FE4F0A3F055
:10171D00800890007FEAF0EBA3F090008CE0FEA330
:10172D00E0FF900083E0F534A3E0F535AA34AD3544
:10173D00153474FFB534021535EA4D604590007DC2
:10174D00E0B40100E433F090007DE070140EBE00B3
:10175D00010F8E828F83E0C4540FFD900065F080E1
:10176D000E8E828F83E0FD53050F900065EDF09096
:10177D000065E0F582C007C006120E2DD006D00719
:10178D0080AA900075E07003020EFE90007FE0FECF
:10179D00A3E0FF8E038F051EBEFF011FEB4D7003EF
:1017AD00020EFE758220C007C006120DF2D006D0C3
:1017BD000780E08C82120DF2020EFE900066E0FEB4
:1017CD00A3E08E82F58322AA82AB8312180C6003EC
:1017DD00A380F8C3E5829AF582E5839BF58322AA5F
:1017ED0083AB828BF090008EE0A4F8A9F08AF0E034
:1017FD00A429F98BF0A3E0A429F583888222222065
:10180D00F71430F6148883A88220F507E6A88375AF
:0F181D00830022E280F7E49322E022758200220A
:10182C000A2054657374207374617274202E2E2EEA
:10183C00000A2056616C7565203D203078257800B3
:0B184C003C4E4F20464C4F41543E00E4
:04000003000000BA3F
:00000001FF
