:060000000200060200628E
:0300060075813EC3
:0A000900121A3AE5826003020003B8
:100013007900E94400601B7A00901BC4787875A0CE
:1000230000E493F2A308B8000205A0D9F4DAF2754C
:02003300A0FF2C
:10003500E478FFF6D8FD7800E84400600A79017598
:10004500A000E4F309D8FC7877E84400600C790156
:0A005500900001E4F0A3D8FCD9FAF2
:03005F0002000399
:10006200758206120913120DF8743EC0E0741AC0AC
:10007200E07480C0E0120FD2158115811581745091
:10008200C0E0741AC0E07480C0E0120FD21581156E
:1000920081158174A1C0E0741AC0E07480C0E012BE
:1000A2000FD215811581158174DCC0E0741AC0E08D
:1000B2007480C0E0120FD21581158115817417C0AA
:1000C200E0741BC0E07480C0E0120FD2158115816C
:1000D200158153B3FB53B4FB53B3FD53B4FD53B17A
:1000E200FD53B2FD53B3DF53B4DF43DE0143DE02FF
:1000F20043DE10A2AF9200C2AF75C7AA75C755758D
:100102009101A20092AF43C620A2AF9200C2AF7586
:10011200C7AA75C755759100A20092AF53DF3F433E
:10012200DF4053DFF843DF0375D10775D9CF75D2AE
:100132000375DACFA2AF9200C2AF75C7AA75C755D1
:10014200759101A20092AF75C40175CCCFA2AF9296
:1001520000C2AF75C7AA75C755759100A20092AFCC
:10016200747AC0E0741BC0E07480C0E0120FD21534
:100172008115811581900013E4F004A3F0758200CB
:10018200120861D2DED2DF80FE22AF83E5829000C8
:1001920001F0EFA3F0900001E0FEA3E0FF8E828F5A
:1001A20083E493A3E493F58222E582900003F0E0D6
:1001B2004480FF75C7AA75C7558F9F22E5829000BC
:1001C20004F0E06005438702000022E5829000050A
:1001D200F0E060054387010000227F007E7F00DEA1
:1001E200FD0FBF1A0040F522E582900006F0E024E0
:1001F200FF92AF22E582900008F0E0FF6005BF01A8
:100202000A8005538EBF8003438E40900007E0FFB3
:10021200BF01028023BF02028026BF04028029BFE1
:100222000802802CBF1002802FBF20028032BF4004
:10023200028035BF8040803853DFF885DFDF8036AB
:1002420053DFF843DF01802E53DFF843DF028026BD
:1002520053DFF843DF03801E53DFF843DF048016C9
:1002620053DFF843DF05800E53DFF843DF068006D5
:1002720053DFF843DF0722E58290000FF0A2AF922E
:1002820000C2AF75C7AA75C755759101A20092AF9A
:10029200900009E0FF600ABF0102800ABF021580D8
:1002A2000D53DF3F800E53DF3F43DF40800653DFB5
:1002B2003F43DF8090000AE0FF6005BF010A80052E
:1002C20053DFEF800343DF1090000FE0FF24FA506A
:1002D20003020585EF2F2F9002DD730202EF020366
:1002E2005E0203CD02043C0204AB02051990000B2E
:1002F200E0FEA3E0FF7D007C0090002E7464F0E439
:10030200A3F0A3F0A3F08E828F838DF0EC120E2463
:10031200AC82AD83AEF0FF90000DE0F524A3E0F5D2
:100322002590003BE524F0E525A3F0E4A3F0A3F03B
:100332008C828D838EF0EFC007C006C005C0041208
:100342000F18A882A983FBD004D005D006D0078954
:10035200D2AA248CF0EAA4F5DA02058590000BE01B
:10036200FEA3E0FF7D007C0090002E7464F0E4A305
:10037200F0A3F0A3F08E828F838DF0EC120E24ACEA
:1003820082AD83AEF0FF90000DE0F524A3E0F525E9
:1003920090003BE524F0E525A3F0E4A3F0A3F08C64
:1003A200828D838EF0EFC007C006C005C004120F15
:1003B20018A882A983FBD004D005D006D00789D320
:1003C200AA248CF0EAA4F5DB02058590000BE0FE7E
:1003D200A3E0FF7D007C0090002E7464F0E4A3F0A3
:1003E200A3F0A3F08E828F838DF0EC120E24AC82E8
:1003F200AD83AEF0FF90000DE0F524A3E0F525906B
:10040200003BE524F0E525A3F0E4A3F0A3F08C8201
:100412008D838EF0EFC007C006C005C004120F180E
:10042200A882A983FBD004D005D006D00789D4AA1C
:10043200248CF0EAA4F5DC02058590000BE0FEA313
:10044200E0FF7D007C0090002E7464F0E4A3F0A332
:10045200F0A3F08E828F838DF0EC120E24AC82AD6D
:1004620083AEF0FF90000DE0F524A3E0F5259000A7
:100472003BE524F0E525A3F0E4A3F0A3F08C828D04
:10048200838EF0EFC007C006C005C004120F18A883
:1004920082A983FBD004D005D006D00789D5AA242F
:1004A2008CF0EAA4F5DD02058590000BE0FEA3E0E6
:1004B200FF7D007C0090002E7464F0E4A3F0A3F0B2
:1004C200A3F08E828F838DF0EC120E24AC82AD836A
:1004D200AEF0FF90000DE0F524A3E0F52590003B7F
:1004E200E524F0E525A3F0E4A3F0A3F08C828D834C
:1004F2008EF0EFC007C006C005C004120F18A88214
:10050200A983FBD004D005D006D00789C4AA248CC5
:10051200F0EAA4F5CC806C90000BE0FEA3E0FF7D36
:10052200007C0090002E7464F0E4A3F0A3F0A3F02A
:100532008E828F838DF0EC120E24AC82AD83AEF0EE
:10054200FF90000DE0F524A3E0F52590003BE524A3
:10055200F0E525A3F0E4A3F0A3F08C828D838EF066
:10056200EFC007C006C005C004120F18A882A983F5
:10057200FBD004D005D006D00789C5AA248CF0EAA6
:10058200A4F5CD90000BE0FEA3E0FF8FD18ED9A29F
:10059200AF9200C2AF75C7AA75C755759100A20088
:1005A20092AF22E582900012F0AFD17E00ACD97DED
:1005B20000EC4206ED4207A2AF9200C2AF75C7AA95
:1005C20075C755759101A20092AF900012E0FD240B
:1005D200FA500302084DED2D2D9005DF730205F14F
:1005E2000206560206BB0207200207850207E98EB1
:1005F200028F037C007D0090002E7464F0E4A3F06F
:10060200A3F0A3F08A828B838CF0ED120E248582F4
:100612002885832985F02AF52B900010E0F526A382
:10062200E0F52790003BE526F0E527A3F0E4A3F0F0
:10063200A3F0852882852983852AF0E52B120F18DD
:10064200A983ACF0FD89D2AA28A8268AF0E8A4F5ED
:10065200DA02084D8E028F037C007D0090002E741A
:1006620064F0E4A3F0A3F0A3F08A828B838CF0ED14
:10067200120E2485822C85832D85F02EF52F900075
:1006820010E0F528A3E0F52990003BE528F0E529E4
:10069200A3F0E4A3F0A3F0852C82852D83852EF0B0
:1006A200E52F120F18A983ACF0FD89D3AA2CA82834
:1006B2008AF0E8A4F5DB02084D8E028F037C007DF0
:1006C2000090002E7464F0E4A3F0A3F0A3F08A82F9
:1006D2008B838CF0ED120E2485822885832985F088
:1006E2002AF52B900010E0F52CA3E0F52D90003BAD
:1006F200E52CF0E52DA3F0E4A3F0A3F08528828594
:100702002983852AF0E52B120F18A983ACF0FD8905
:10071200D4AA28A82C8AF0E8A4F5DC02084D8E029F
:100722008F037C007D0090002E7464F0E4A3F0A39C
:10073200F0A3F08A828B838CF0ED120E248582283E
:1007420085832985F02AF52B900010E0F52CA3E093
:10075200F52D90003BE52CF0E52DA3F0E4A3F0A3EA
:10076200F0852882852983852AF0E52B120F18A9A6
:1007720083ACF0FD89D5AA28A82C8AF0E8A4F5DD7F
:1007820002084D8E028F037C007D0090002E74645F
:10079200F0E4A3F0A3F0A3F08A828B838CF0ED1235
:1007A2000E2485822885832985F02AF52B90001056
:1007B200E0F52CA3E0F52D90003BE52CF0E52DA310
:1007C200F0E4A3F0A3F0852882852983852AF0E549
:1007D2002B120F18A983ACF0FD89C4AA28A82C8A71
:1007E200F0E8A4F5CC80647D007C0090002E746457
:1007F200F0E4A3F0A3F0A3F08E828F838DF0EC12CD
:100802000E24AC82AD83AEF0FF900010E0F52CA375
:10081200E0F52D90003BE52CF0E52DA3F0E4A3F0EC
:10082200A3F08C828D838EF0EFC007C006C005C096
:1008320004120F18A882A983FBD004D005D006D0D9
:100842000789C5AA2C8CF0EAA4F5CDA2AF9200C20A
:10085200AF75C7AA75C755759100A20092AF22E580
:1008620082900015F0759101900013E0FEA3E0FF65
:100872008E0574105DF522900015E0FD24FC4020E9
:10088200ED2D9008887380068009800C800F43222A
:1008920001800D4322028008432204800343220781
:1008A200A2AF9200C2AF75C7AA75C7558522F98E4D
:1008B2002275C7AA75C7558522FAA20092AF227582
:1008C2009101A2AF9200C2AF75C7AA75C75575F95B
:1008D20000A20092AF22D2DF22C2DF22D2DE22AFFA
:1008E20083E582900016F0EFA3F010990280FB904E
:1008F2000016E0FEA3E08E997F008E828F83223065
:1009020098FD900018E599F0C298900018E0F582E1
:1009120022E582900019F0A2AF9200C2AF75C7AA79
:1009220075C755439F01A20092AF759100900019BF
:10093200E0FFBF0602800ABF0702800ABF080F80DD
:100942000A75A638800875A630800375A63075A78B
:100952000075AF04A2AF9200C2AF75C7AA75C755A2
:1009620043A401A20092AFAEAEE5A604F5A6A2AFE3
:100972009200C2AF75C7AA75C75543A401A20092DF
:10098200AFADAEBF08028003020A158E07EF2FFF3C
:100992008D0474015C2FFF74C05FFC743F5FFBEF3A
:1009A20024F2FF90001AF075AF0C75A60175A7002E
:1009B200A2AFC2AFA2AF9200C2AF75C7AA75C755A8
:1009C20043AA40A20092AF75C7AA75C75543A401B6
:1009D200A20092AF744BB5AE02800C7452B5AE0257
:1009E20080057453B5AE24BB0F005018BC40028082
:1009F20008BC80028003BCC0128F04EC24F2900079
:100A02001AF08007EF24FC90001AF090001AE0FF21
:100A1200C313FE75C7AA75C7558E8475C7AA75C755
:100A2200558D85A2AF9200C2AF75C7AA75C755533F
:100A32009FFEA20092AF22E58290001BF0E0FFBF72
:100A42000202800ABF03028013BF04568029758206
:100A520002120AA5758202120B14804675820312D5
:100A62000B14A2AF9200C2AF75C7AA75C7555397B0
:100A7200DFA20092AF802B758202120AA575820254
:100A8200120B14758204120AA5758204120B14A2A9
:100A9200AF9200C2AF75C7AA75C7555397DFA200C0
:100AA20092AF22E58290001CF0E0FFBF02028005B7
:100AB200BF042A801AA2AF9200C2AF75C7AA75C737
:100AC20055439720A20092AFE59620E51080F97574
:100AD200C7AA75C7554397C0E59630E3FB22E58266
:100AE20090001DF0759100E0FFBF02028005BF0477
:100AF200208015A2AF9200C2AF75C7AA75C7555321
:100B020097DFA20092AF800975C7AA75C7555397A0
:100B12003F22E58290001EF0759100A2AF9200C2C2
:100B2200AF90001EE0FFBF0202800ABF0302802DC9
:100B3200BF04658050A2AF9200C2AF75C7AA75C745
:100B4200555396FBA20092AFA2AF9200C2AF75C7F7
:100B5200AA75C7555396FDA20092AF803BA2AF92F1
:100B620000C2AF75C7AA75C755439604A20092AFDB
:100B7200A2AF9200C2AF75C7AA75C7555396FDA220
:100B82000092AF8013A2AF9200C2AF75C7AA75C719
:100B920055439608A20092AFA20092AF22AF82AE56
:100BA20083ADF0FC900026EFF0EEA3F0EDA3F0ECA5
:100BB200A3F0900021E0FF600FBF0103020C53BFBE
:100BC2000203020CFE020D8D759850438920438763
:100BD20080438E10A2AF9200C2AF75C7AA75C755E7
:100BE200759100A20092AF53C4DF900026E0FCA3EF
:100BF200E0FDA3E0FEA3E0FFEDC4CCC4540F6CCC37
:100C0200540FCC6CCCFDEEC454F04DFDEFC4CEC4F9
:100C1200540F6ECE540FCE6ECEFF900022E0F8A39A
:100C2200E0F9A3E0FAA3E0FB90002EE8F0E9A3F0DC
:100C3200EAA3F0EBA3F08C828D838EF0EF120E24E8
:100C4200AC82AD83AEF0FFC3E49CF58DD28E020D73
:100C52008D75985043878053C4F8A2AF9200C2AFFB
:100C620075C7AA75C755759100A20092AF43C420FB
:100C7200900026E0FCA3E0FDA3E0FEA3E0FFEDC4AC
:100C8200CCC4540F6CCC540FCC6CCCFDEEC454F0DD
:100C92004DFDEFC4CEC4540F6ECE540FCE6ECEFFB8
:100CA200900022E0F8A3E0F9A3E0FAA3E0FB9000B1
:100CB2002EE8F0E9A3F0EAA3F0EBA3F08C828D8397
:100CC2008EF0EF120E24AC82AD83AEF0FFE4C39C33
:100CD200F8E49DF974019EFAE49FFB89C6C3E49C83
:100CE200FC8CC5A2AF9200C2AF75C7AA75C7557575
:100CF2009100A20092AF43C408020D8D75F85075A1
:100D0200C480900026E0FCA3E0FDA3E0FEA3E0FF88
:100D1200EDC4CCC4540F6CCC540FCC6CCCFDEEC4DF
:100D220054F04DFDEFC4CEC4540F6ECE540FCE6EB0
:100D3200CEFF900022E0F8A3E0F9A3E0FAA3E0FBE3
:100D420090002EE8F0E9A3F0EAA3F0EBA3F08C8286
:100D52008D838EF0EF120E24AC82AD83AEF0FFE4F1
:100D6200C39CF8E49DF974019EFAE49FFB89C6C313
:100D7200E49CFC8CC5A2AF9200C2AF75C7AA75C72E
:100D820055759100A20092AF43C40822E5829000FB
:100D92002AF090002BE4F090002AE0FF6005BF01EA
:100DA2001A800D3098FD90002BE599F0C298800BC7
:100DB20030F8FD90002BE59AF0C2F890002BE0F598
:100DC2008222E58290002DF0E0FF6005BF012680BF
:100DD20011C2AC90002CE0F59910990280FBD2ACC4
:100DE2008013539CFE90002CE0F59A10F90280FBD0
:100DF200439C01D2AF2253B1BF53B2BF900021E452
:100E0200F0900022F074C2A3F07401A3F0E4A3F006
:100E120090360075F06E7401120B9FD299D201C206
:100E2200AC22AF82AE83ADF0FC900032EFF0EEA3C5
:100E3200F0EDA3F0ECA3F0900036E4F0A3F0A3F001
:100E4200A3F090002EE0FCA3E0FDA3E0FEA3E0FFF0
:100E52007B20C003900032E0F8A3E0F9A3E0FAA3FC
:100E6200E0FB90003A235401F0E828F8E933F9EA6C
:100E720033FAEB33FB900032E8F0E9A3F0EAA3F097
:100E8200EBA3F0900036E0F8A3E0F9A3E0FAA3E0C8
:100E9200FBE828F8E933F9EA33FAEB33FB90003642
:100EA200E8F0E9A3F0EAA3F0EBA3F0D00390003A54
:100EB200E06008900036E043E001F0900036E0F593
:100EC2003BA3E0F53CA3E0F53DA3E0F53EC3E53BE3
:100ED2009CE53C9DE53D9EE53E9F401F900036E52A
:100EE2003BC39CF0E53C9DA3F0E53D9EA3F0E53EAF
:100EF2009FA3F0900032E043E001F01BEB6003029D
:100F02000E54900032E0FCA3E0FDA3E0FEA3E08CCF
:100F1200828D838EF022A882A983AAF0FB88F090AA
:100F2200003BE0A4FCADF089F0E0A42DFDE435F037
:100F3200FE88F0A3E0A42DFDE5F03EFEE433FF8938
:100F4200F0E0A42EFEE5F03FFF88F0A3E0A42EFE21
:100F5200E5F03FFF8AF090003BE0A42EFEE5F03F73
:100F6200FF8BF0E0A42FFF8AF0A3E0A42FFF89F00B
:100F7200A3E0A42FFF88F0A3E0A42F8EF08D838C32
:100F82008222C03A85813A7E008E831208E1D03AED
:100F920022AFF0AE83E582900040F0EEA3F0EFA323
:100FA200F0900040E0FDA3E0FEA3E0FF90003FE0F0
:100FB200FC900054E4F0A3F0A3F0900057EDF0EEA3
:100FC200A3F0EFA3F090005AECF0900F840210D837
:100FD200C03AE581F53A24FBFF900054E4F0A3F017
:100FE200A3F0E53A24FBF8900057E6F008E6A3F0F8
:100FF20008E6A3F090005AEFF0900F841210D8D0B8
:101002003A22E582900050F0E0FF900046E0C0E016
:10101200A3E0C0E0A3E0C0E012101F800D900044E6
:10102200E0C0E0A3E0C0E08F822215811581158126
:1010320090004EE02401F0A3E03400F022E582901B
:101042000051F0E02430FF24C6500D74072FFF90AA
:101052000043E060034307208F82021004E5829080
:101062000052F0E0FFC4540FF582C00712103FD0C7
:101072000753070F8F8202103FE582900053F090D2
:101082000049E0FCA3E0FDA3E0FEA3E0FF90004DD9
:10109200E0FB900053E0FA79208B00E828F53BEF63
:1010A200235401453BFBEC2CFCED33FDEE33FEEF0C
:1010B20033FFC3EB9A4007EBC39AFB43040119E9E0
:1010C20070D7900049ECF0EDA3F0EEA3F0EFA3F09F
:1010D20090004DEBF022AF83E58290005BF0EFA32E
:1010E200F090005BE0FEA3E0FF900044EEF0EFA37F
:1010F200F0900054E0FDA3E0FEA3E0FF900046ED77
:10110200F0EEA3F0EFA3F090004EE4F0A3F0900015
:1011120057E0FDA3E0FEA3E0FF8D828E838FF012E5
:101122001A1EFC90005774012DF0E43EA3F0EFA3C9
:10113200F0EC70030219DABC250280030219D29086
:10114200005DE4F090005EF090005FF0900060F0CF
:10115200900061F0900062F0900063F0900064F003
:10116200900066F0900067F0A3F090006914F0A37D
:10117200F0900057E0FDA3E0FEA3E0FF8D828E8396
:101182008FF0121A1EFBA3AD82AE83900057EDF0D2
:10119200EEA3F0EFA3F090006DEBF0BB25088B827D
:1011A200121004021110BB30005003021271EB2422
:1011B200C65003021271900069E0F530A3E0F531E8
:1011C20074FFB53063B53160C005C006C00790003A
:1011D20067E0FAA3E0FF900076EAF0EFA3F0900058
:1011E2000AC005C0031219FEAE82AF83D003D00538
:1011F2008B027D00EA2EFEED3FFFEE24D0FEEF349F
:10120200FFFF900067EEF0EFA3F0D007D006D00505
:10121200900067E0F5F0A3E045F0600302117E90D4
:10122200005E7401F002117EC005C006C007900086
:1012320076E530F0E531A3F090000AC006C005C0A3
:10124200031219FEAA82AF83D003D005D0067E0016
:10125200EB2AFAEE3FFFEA24D0FAEF34FFFF9000C8
:1012620069EAF0EFA3F0D007D006D00502117E9014
:10127200006DE0FBBB2E2FC005C006C007900069C1
:10128200E0FAA3E0FFBAFF05BFFF028009D007D052
:1012920006D00502117ED007D006D005900069E481
:1012A200F0A3F002117EBB61004014EB2485400FD5
:1012B20090006D74DF5BF09000437401F080059044
:1012C2000043E4F090006DE0FBBB20028075BB2B75
:1012D200028067BB2D028059BB4202806FBB430272
:1012E200807CBB4403021568BB460302158EBB48D3
:1012F2000302117EBB4903021568BB4A0302117E39
:10130200BB4C028050BB4F03021576BB5003021444
:10131200D6BB53028077BB540302117EBB55030236
:10132200157EBB5803021586BB5A0302117E0215B5
:101332009690005D7401F002117E90005F7401F0DE
:1013420002117E9000607401F002117E90006274BE
:1013520001F002117E9000637401F002117E900090
:1013620062E0600E90005AE014F9F090006DE7F030
:10137200800F90005AE024FEFFF08F0190006DE78D
:10138200F090006DE0F5821210040215A590005A4B
:10139200E024FDFFF08F01870509870609870719F9
:1013A20019900049EDF0EEA3F0EFA3F08D828E8349
:1013B2008FF01219E6858230858331900069E0FA58
:1013C200A3E0FDBAFF0DBDFF0A900069E530F0E52C
:1013D20031A3F090005DE0704B900067E0FAA3E06B
:1013E200FDC3E5309AE5319D503A900067EAC39516
:1013F20030F0ED9531A3F0900067E0FAA3E0FD8AAA
:10140200068D071ABAFF011DEE4F6010758220C0CB
:1014120005C002121004D002D00580E3900067EAF2
:10142200F0EDA3F0900069E0F533A3E0F53490000D
:1014320049E0FAA3E0FDA3E0FF8A828D838FF012D8
:101442001A1EF532603CC3E4953374808534F06330
:10145200F08095F0502C153374FFB53302153485A6
:101462003282121004900049E0FAA3E0FDA3E0FFEB
:101472000ABA00010D900049EAF0EDA3F0EFA3F0E3
:1014820080AC90005DE070030215A5900067E0FE5D
:10149200A3E0FFC3E5309EE5319F40030215A5900E
:1014A2000067EEC39530F0EF9531A3F0900067E04E
:1014B200FEA3E0FF8E028F051EBEFF011FEA4D70E4
:1014C2000302159D758220C007C006121004D006C3
:1014D200D00780E090005AE024FDFDF08D018735B1
:1014E2000987360987371919900049E535F0E5363D
:1014F200A3F0E537A3F090004BE0FDBD800040086B
:1015020090006D7443F08020BD6000400890006D33
:101512007450F08013BD4000400890006D7449F093
:10152200800690006D7458F090006DE0FDF582C069
:101532000512100475823A121004758230121004DA
:10154200758278121004D005BD4902800EBD50028A
:10155200800990004AE0F58212105F900049E0F5A0
:101562008212105F803D9000617401F090006674F9
:101572000AF0802F9000667408F08027900066744D
:101582000AF0801F9000667410F080179000647457
:1015920001F0800F8B821210048008900067EEF039
:1015A200EFA3F0900064E0607190005AE024FCFF29
:1015B200F08F01870309870509870609870719192B
:1015C20019900049EBF0EDA3F0EEA3F0EFA3F09039
:1015D200004974B9F0741BA3F07480A3F090004921
:1015E200E0F535A3E0F536A3E0F53774012535FAC9
:1015F200E43536FBAF37900049EAF0EBA3F0EFA3F6
:10160200F08535828536838537F0121A1EFF700306
:101612000211108F8212100480C3900066E07003E2
:10162200021110900062E0604790005AE014F9F055
:1016320087077E007D007B00900049EFF0EEA3F06B
:10164200EDA3F0EBA3F0900061E060030216E890D6
:101652000049E0FBA3E0A3E0A3E07D007E007F0061
:10166200900049EBF0EDA3F0EEA3F0EFA3F080764B
:10167200900063E0602890005AE024FCFFF08F01A4
:101682008703098705098706098707191919900031
:1016920049EBF0EDA3F0EEA3F0EFA3F08048900049
:1016A2005AE024FEFFF08F01870609870719EF33FE
:1016B20095E0FDFB900049EEF0EFA3F0EDA3F0EB17
:1016C200A3F0900061E0701E900049E0FBA3E0FDF2
:1016D200A3E0A3E07E007F00900049EBF0EDA3F0D1
:1016E200EEA3F0EFA3F0900061E06041900049E0CA
:1016F200FBA3E0FDA3E0FEA3E0FF30E72B9000494F
:10170200E0FBA3E0FDA3E0FEA3E0FFC3E49BFBE458
:101712009DFDE49EFEE49FFF900049EBF0EDA3F0F7
:10172200EEA3F0EFA3F08005900061E4F090006575
:101732007401F0900066E0F533753873753900E492
:10174200F530F53190004DE4F085338212107B9034
:101752000065E0703390004DE0C454F0F535900020
:101762004DE0C4540F4535F535853882853983E01F
:10177200FFE5354207853882853983EFF0153874E5
:10178200FFB538021539800C90004DE0FF85388294
:10179200853983F00530E4B530020531900065E00B
:1017A200B40100E433F0900049E0FAA3E0FBA3E0C7
:1017B200FEA3E0FFEA4B4E4F708A900074E538F0CA
:1017C200E539A3F090006BE530F0E531A3F090002D
:1017D20067E0F5F0A3E045F070099000677401F04E
:1017E200E4A3F090005EE0FFE0704790005DE070DF
:1017F20041853038853139900067E0FAA3E0FBC0BB
:1018020007AF380F8F067F00C3EE9AEF9BD00750C9
:1018120019758220C007C003C002121004D002D082
:1018220003D0071ABAFF011B80D5900067EAF0EBDC
:10183200A3F0900061E0602075822DC007121004B1
:10184200D007900067E024FFFDA3E034FFFE900084
:1018520067EDF0EEA3F0805690006BE0F5F0A3E0A8
:1018620045F0604A90005FE0602075822BC007124D
:101872001004D007900067E024FFFDA3E034FFFED0
:10188200900067EDF0EEA3F08024900060E0601E0F
:10189200758220C007121004D007900067E024FF71
:1018A200FDA3E034FFFE900067EDF0EEA3F09000A0
:1018B2005DE0704890006BE0F538A3E0F5399000E8
:1018C20067E0FAA3E0FBC0078A068B071ABAFF019A
:1018D2001BC3E5389EE5399FD0075053EF60067D64
:1018E200307E0080047D207E008D82C007C003C050
:1018F20002121004D002D003D00780CA900067E021
:10190200FEA3E0FF90006BE0F538A3E0F539C3E5F4
:10191200389EE5399F500F900067EEC39538F0EF7F
:101922009539A3F08011900067E4F0A3F08008904D
:101932000067EAF0EBA3F0900074E0FEA3E0FF90F2
:10194200006BE0F538A3E0F539AA38AD39153874E3
:10195200FFB538021539EA4D6045900065E0B401E3
:1019620000E433F0900065E070140EBE00010F8EAB
:10197200828F83E0C4540FFD90004DF0800E8E8262
:101982008F83E0FD53050F90004DEDF090004DE088
:10199200F582C007C00612103FD006D00780AA9079
:1019A200005DE07003021110900067E0FEA3E0FF0B
:1019B2008E038F051EBEFF011FEB4D700302111037
:1019C200758220C007C006121004D006D00780E03E
:1019D2008C8212100402111090004EE0FEA3E08EE1
:1019E20082F58322AA82AB83121A1E6003A380F8B7
:1019F200C3E5829AF582E5839BF58322AA83AB82B3
:101A02008BF0900076E0A4F8A9F08AF0E0A429F91E
:101A12008BF0A3E0A429F5838882222220F71430D8
:101A2200F6148883A88220F507E6A883758300222E
:0C1A3200E280F7E49322E022758200229B
:101A3E000A0D2054657374207374617274202E2EF7
:101A4E002E000A0D2050574D206672657175656E19
:101A5E0063792020203D204670776D2F282850571F
:101A6E004D50482C50574D504C292B3129203D209C
:101A7E002832344D487A2F38292F2830783743466C
:101A8E002B3129203D20312E354B487A2028316DBF
:101A9E007329000A0D2050574D342068696768205D
:101AAE006475747920203D2050574D34482C505782
:101ABE004D344C203D20307830314346203D20318E
:101ACE002F342050574D20706572696F64000A0DD7
:101ADE002050574D302068696768206475747920EE
:101AEE00203D2050574D30482C504D57304C203D06
:101AFE0020307830334346203D20312F322050574E
:101B0E004D20706572696F64000A0D204465616432
:101B1E002074696D65202020202020203D20307803
:101B2E00314646203C504454454E2E342B5044549E
:101B3E00434E545B373A305D3E2F46737973203DEA
:101B4E002030783146462F46737973203D2035314B
:101B5E00322F32344D203D2032312E3320757320FA
:101B6E00286D61782076616C756529000A0D20500C
:101B7E006C6561736520616C776179732073657430
:101B8E0074696E6720446561642074696D652069AF
:101B9E0066206E6565646564206265666F72652099
:101BAE0050574D2072756E2E2020003C4E4F204611
:061BBE004C4F41543E00B3
:040000030000005F9A
:00000001FF
