:060000000200060200628E
:0300060075813AC7
:0A000900122293E582600302000357
:100013007900E94400601B7A009023D8785675A0D4
:1000230001E493F2A308B8000205A0D9F4DAF2754B
:02003300A0FF2C
:10003500E478FFF6D8FD7800E84400600A79017598
:10004500A000E4F309D8FC7855E84401600C790276
:0A005500900001E4F0A3D8FCD9FAF2
:03005F0002000399
:1000620075820612116C1216517497C0E07422C088
:10007200E07480C0E012182B15811581158174A8D7
:10008200C0E07422C0E07480C0E012182B15811504
:10009200811581120F5274D3C0E07422C0E07480C3
:1000A200C0E012182B1581158115817F00EF24CA3B
:1000B200F582E43400F583E0FE7D00C007C006C08F
:1000C2000574EFC0E07422C0E07480C0E012182B07
:1000D200E58124FBF581D0070FBF050040CF74F7FF
:1000E200C0E07422C0E07480C0E012182B158115A4
:1000F20081158153B1DF53B2DF2085FD9000077473
:10010200C8F0E4A3F090000974E8F07403A3F0903F
:10011200360075F06E740112020F9000EF74FBF05E
:100122009000F0746BF09000F174FFF09000F2F028
:100132007582EF120C1775910030013775910074BA
:10014200FBC0E07422C0E07480C0E012182B15815D
:1001520015811581742CC0E07423C0E07480C0E066
:1001620012182B158115811581C2017582001201A9
:10017200C4802D7591007450C0E07423C0E0748077
:10018200C0E012182B158115811581748EC0E074A0
:1001920023C0E07480C0E012182B158115811581EF
:1001A20080FE22AF83E582900001F0EFA3F0900081
:1001B20001E0FEA3E0FF8E828F83E493A3E493F534
:1001C2008222E582900003F0E04480FF75C7AA75A1
:1001D200C7558F9F22E582900004F0E060054387B7
:1001E20002000022E582900005F0E06005438701ED
:1001F2000000227F007E7F00DEFD0FBF1A0040F567
:1002020022E582900006F0E024FF92AF22AF82AE98
:1002120083ADF0FC90000BEFF0EEA3F0EDA3F0EC59
:10022200A3F0538EF75389F043890190000BE0FC51
:10023200A3E0FDA3E0FEA3E0FF90010C7440F07484
:1002420042A3F0740FA3F0E4A3F08C828D838EF0AE
:10025200EF12167DAC82AD83AEF0FF900009E0FA9A
:10026200A3E0FB900119EAF0EBA3F0E4A3F0A3F002
:100272008C828D838EF0EF121771AC82AD83AEF05B
:10028200FF90010C740CF0E4A3F0A3F0A3F08C82B5
:100292008D838EF0EF12167DAC82AD83AEF0FF8CB3
:1002A2000374FFC39BFB74FFC39C74FF9DFDE49E1C
:1002B200E49F8D07900007E0FDA3E0FEED4E601481
:1002C2008B8A8F8CD28C108D0280FBC28C1DBDFF5D
:1002D200011E80E822AF82AE83ADF0FC900013EFE6
:1002E200F0EEA3F0EDA3F0ECA3F0538EEF53890FE1
:1002F200438910900013E0FCA3E0FDA3E0FEA3E01D
:10030200FF90010C7440F07442A3F0740FA3F0E468
:10031200A3F08C828D838EF0EF12167DAC82AD83BA
:10032200AEF0FF900011E0FAA3E0FB900119EAF0B1
:10033200EBA3F0E4A3F0A3F08C828D838EF0EF1296
:100342001771AC82AD83AEF0FF90010C740CF0E437
:10035200A3F0A3F0A3F08C828D838EF0EF12167DB2
:10036200AC82AD83AEF0FF8C0374FFC39BFB74FFC2
:10037200C39C74FF9DFDE49EE49F8D0790000FE0F7
:10038200FDA3E0FEED4E60148B8B8F8DD28E108F0D
:100392000280FBC28E1DBDFF011E80E822AF82AE2D
:1003A20083ADF0FC90001FEFF0EEA3F0EDA3F0ECB4
:1003B200A3F0759100900017E0FEA3E0FF8E048F7A
:1003C20005BC0105BD00028038BC0405BD000280E9
:1003D20035BC1005BD00028035BC2005BD00028081
:1003E20035BC4005BD00028035BC8005BD000280E1
:1003F20035BC0005BD01028035BC0040BD023D8018
:100402003553C98F803653C98F43C910802E53C9C3
:100412008F43C920802653C98F43C930801E53C9D8
:100422008F43C940801653C98F43C950800E53C9A8
:100432008F43C960800653C98F43C970C2C843C97C
:100442008043C90490001FE0FAA3E0FBA3E0FCA3F1
:10045200E0FD90010C7440F07442A3F0740FA3F01D
:10046200E4A3F08A828B838CF0EDC007C0061216DB
:100472007D85822485832585F026F52790001BE063
:10048200F8A3E0F9A3E0FCA3E0FD900119E8F0E98C
:10049200A3F0ECA3F0EDA3F08524828525838526C5
:1004A200F0E527121771AA82AB83ACF0FDD006D01B
:1004B2000790010CEEF0EFA3F0E4A3F0A3F08A8220
:1004C2008B838CF0ED12167DAC82AD83AEF0FF8C87
:1004D20003C3E49BFBE4C39CE49DFD74019EE49F83
:1004E2008D07900019E0FDA3E0FEED4E60148BCC69
:1004F2008FCDD2CA10CF0280FBC2CA1DBDFF011E22
:1005020080E822AF82AE83ADF0FC90002AEFF0EEDD
:10051200A3F0EDA3F0ECA3F0759100900023E0FFAF
:10052200BF01028023BF02028023BF04028026BFD4
:1005320008028029BF1002802CBF2002802FBF40FA
:10054200028032BF803D803553C4F8803653C4F8F0
:1005520043C401802E53C4F843C402802653C4F816
:1005620043C403801E53C4F843C404801653C4F822
:1005720043C405800E53C4F843C406800653C4F82E
:1005820043C40790002AE0FBA3E0FCA3E0FDA3E044
:10059200FE90010C7440F07442A3F0740FA3F0E4D7
:1005A200A3F08B828C838DF0EEC00712167D8582BC
:1005B2002885832985F02AF52B900026E0F8A3E010
:1005C200F9A3E0FAA3E0FE900119E8F0E9A3F0EA4A
:1005D200A3F0EEA3F0852882852983852AF0E52BF6
:1005E200121771AB82AC83ADF0FED00790010CEF15
:1005F200F0E4A3F0A3F0A3F08B828C838DF0EE12D3
:10060200167DAC82AD83AEF0FF8C03C3E49BFBE4AA
:10061200C39CE49DFD74019EE49F8D07900024E03D
:10062200FDA3E0FEED4E6068A2AF9200C2AF75C7B7
:10063200AA75C755759100A20092AF53C4EF8BC53E
:100642008FC6A2AF9200C2AF75C7AA75C755759182
:1006520000A20092AF43C408E5C430E4FBA2AF920B
:1006620000C2AF75C7AA75C755759100A20092AFB7
:1006720053C4EFA2AF9200C2AF75C7AA75C7557532
:100682009100A20092AF53C4F71DBDFF011E8094DA
:10069200A2AF9200C2AF75C7AA75C755759100A2E5
:1006A2000092AF53C4F722AF83E5829000D1F0EFFE
:1006B200A3F0A2AF9200C2AF75C7AA75C755439FF8
:1006C20001A20092AFA2AF9200C2AF75C7AA75C7CE
:1006D2005543A502A20092AF75AEFF75AF629000BE
:1006E200D1E0FEA3E0FF9000CFE0FCA3E0FD7A00A2
:1006F2007B008C008D01E9A2E7C833C833C85401DE
:10070200F98A378B38C3E53798E53899504F8A0113
:10071200E975F080A4F98E00E829F989A6A837E5E1
:10072200385401A2E0C813C813C8F9EE28EF39F90A
:1007320089A7A2AFC2AFA2AF9200C2AF75C7AA7516
:10074200C75543AA40A20092AF75C7AA75C75543C1
:10075200A401A20092AF0ABA00980B8095A2AF92B0
:1007620000C2AF75C7AA75C75553A5FDA20092AFC7
:10077200A2AF9200C2AF75C7AA75C755539FFEA21A
:100782000092AF22AF83E5829000D5F0EFA3F0A2F2
:10079200AF9200C2AF75C7AA75C755439F01A200A9
:1007A20092AF9000D5E0FEA3E0FF8EA68FA775AFB3
:1007B200409000D3E0FEA3E0FF7C007D00C3EC9EEE
:1007C200ED9F503475AE00A2AF9200C2AF75C7AABA
:1007D20075C75543A401A20092AF74FFB5AE028063
:1007E2000280FEE5A604F5A6E5A67005E5A704F5D8
:1007F200A70CBC00C80D80C5A2AF9200C2AF75C7DE
:10080200AA75C755539FFEA20092AF22AF83E5821D
:100812009000D9F0EFA3F0A2AF9200C2AF75C7AAC1
:1008220075C755439F01A20092AFA2AF9200C2AF1B
:1008320075C7AA75C75543A502A20092AF9000D909
:10084200E0FEA3E0FF8EA68FA775AF619000D7E010
:10085200FEA3E0FF7C007D00C3EC9EED9F5046ECC2
:10086200244AF582ED3400F583E0F5AEA2AFC2AFC3
:10087200A2AF9200C2AF75C7AA75C75543AA40A2DC
:100882000092AF75C7AA75C75543A401A20092AFE3
:10089200E5A604F5A6E5A67005E5A704F5A70CBC38
:1008A20000B60D80B3A2AF9200C2AF75C7AA75C7DA
:1008B2005553A5FDA20092AFA2AF9200C2AF75C779
:1008C200AA75C755539FFEA20092AF22AF83E5825D
:1008D2009000DDF0EFA3F0A2AF9200C2AF75C7AAFD
:1008E20075C755439F01A20092AF9000DDE0FEA3C1
:1008F200E0FF8EA68FA775AF409000DBE0FEA3E07D
:10090200FF7C007D00C3EC9EED9F503E75AE00A2C1
:10091200AF9200C2AF75C7AA75C75543A401A20022
:1009220092AFEC244AF582ED3400F583E0FBB5AEDC
:1009320002800280FEE5A604F5A6E5A67005E5A7FD
:1009420004F5A70CBC00BE0D80BBA2AF9200C2AFE3
:1009520075C7AA75C755539FFEA20092AF22AF83F7
:10096200E5829000E1F0EFA3F0A2AF9200C2AF7572
:10097200C7AA75C755439F01A20092AFA2AF9200CA
:10098200C2AF75C7AA75C75543A501A20092AF753C
:10099200AEFF75AF229000E1E0FEA3E0FF9000DF22
:1009A200E0FCA3E0FD7A007B008C008D01E9A2E768
:1009B200C833C833C85401F98A378B38C3E537982E
:1009C200E53899504F8A01E975F080A4F98E00E864
:1009D20029F989A6A837E5385401A2E0C813C8133B
:1009E200C8F9EE28EF39F989A7A2AFC2AFA2AF9238
:1009F20000C2AF75C7AA75C75543AA40A20092AFFD
:100A020075C7AA75C75543A401A20092AF0ABA00DE
:100A1200980B8095A2AF9200C2AF75C7AA75C75551
:100A220053A5FEA20092AFA2AF9200C2AF75C7AAB1
:100A320075C755539FFEA20092AF22AF83E5829005
:100A420000E5F0EFA3F0A2AF9200C2AF75C7AA759E
:100A5200C755439F01A20092AF9000E5E0FEA3E0DC
:100A6200FF8EA68FA775AF009000E3E0FEA3E0FF24
:100A72007C007D00C3EC9EED9F503475AE00A2AFAA
:100A82009200C2AF75C7AA75C75543A401A20092CE
:100A9200AF74FFB5AE02800280FEE5A604F5A6E5BE
:100AA200A67005E5A704F5A70CBC00C80D80C5A279
:100AB200AF9200C2AF75C7AA75C755539FFEA20079
:100AC20092AF22AF83E5829000E9F0EFA3F0A2AFEC
:100AD2009200C2AF75C7AA75C755439F01A2009283
:100AE200AFA2AF9200C2AF75C7AA75C75543A501A1
:100AF200A20092AF9000E9E0FEA3E0FF8EA68FA7CE
:100B020075AF219000E7E0FEA3E0FF7C007D00C30B
:100B1200EC9EED9F5046EC244AF582ED3400F583BD
:100B2200E0F5AEA2AFC2AFA2AF9200C2AF75C7AA44
:100B320075C75543AA40A20092AF75C7AA75C7559B
:100B420043A401A20092AFE5A604F5A6E5A67005AE
:100B5200E5A704F5A70CBC00B60D80B3A2AF9200C6
:100B6200C2AF75C7AA75C75553A5FEA20092AFA220
:100B7200AF9200C2AF75C7AA75C755539FFEA200B8
:100B820092AF22AF83E5829000EDF0EFA3F0A2AF27
:100B92009200C2AF75C7AA75C755439F01A20092C2
:100BA200AF9000EDE0FEA3E0FF8EA68FA775AF0029
:100BB2009000EBE0FEA3E0FF7C007D00C3EC9EED25
:100BC2009F503E75AE00A2AF9200C2AF75C7AA7524
:100BD200C75543A401A20092AFEC244AF582ED343A
:100BE20000F583E0FBB5AE02800280FEE5A604F5C7
:100BF200A6E5A67005E5A704F5A70CBC00BE0D800E
:100C0200BBA2AF9200C2AF75C7AA75C755539FFE6C
:100C1200A20092AF22E5829000F3F0E58720E40380
:100C2200020F51A2AFC2AFA2AF9200C2AF75C7AA64
:100C320075C755439F01A20092AF75AFC075A7005B
:100C420075A600A2AF9200C2AF75C7AA75C7554379
:100C5200A401A20092AF9000F3E0FFB5AE028003C0
:100C6200020CE8E5A604F5A6A2AF9200C2AF75C7D2
:100C7200AA75C75543A401A20092AF9000EFE0FF0E
:100C8200B5AE63E5A604F5A6A2AF9200C2AF75C7E2
:100C9200AA75C75543A401A20092AF9000F0E0FFED
:100CA200B5AE43E5A604F5A6A2AF9200C2AF75C7E2
:100CB200AA75C75543A401A20092AF9000F1E0FFCC
:100CC200B5AE23E5A604F5A6A2AF9200C2AF75C7E2
:100CD200AA75C75543A401A20092AF9000F2E0FFAB
:100CE200B5AE03020F24D2017F008FA6A2AF9200FD
:100CF200C2AF75C7AA75C75543A401A20092AFEF50
:100D020024CAF582E43400F583E5AEF00FBF050096
:100D120040D8A2AF9200C2AF75C7AA75C75543A506
:100D220004A20092AF75AEFF75AFE275A600A2AF46
:100D3200C2AFA2AF9200C2AF75C7AA75C75543AA88
:100D420040A20092AF75C7AA75C75543A401A2007D
:100D520092AF75AFE19000F3E0FF8FAEA2AFC2AFEA
:100D6200A2AF9200C2AF75C7AA75C75543AA40A2E7
:100D72000092AF75C7AA75C75543A401A20092AFEE
:100D8200E5A604F5A69000EFE0FE8EAEA2AFC2AFDC
:100D9200A2AF9200C2AF75C7AA75C75543AA40A2B7
:100DA2000092AF75C7AA75C75543A401A20092AFBE
:100DB200E5A604F5A69000F0E0FD8DAEA2AFC2AFAD
:100DC200A2AF9200C2AF75C7AA75C75543AA40A287
:100DD2000092AF75C7AA75C75543A401A20092AF8E
:100DE200E5A604F5A69000F1E0FC8CAEA2AFC2AF7E
:100DF200A2AF9200C2AF75C7AA75C75543AA40A257
:100E02000092AF75C7AA75C75543A401A20092AF5D
:100E1200E5A604F5A69000F2E0FB8BAEA2AFC2AF4E
:100E2200A2AF9200C2AF75C7AA75C75543AA40A226
:100E32000092AF75C7AA75C75543A401A20092AF2D
:100E4200A2AF9200C2AF75C7AA75C75553A5FBA240
:100E52000092AF75AFC075A600A2AF9200C2AF7587
:100E6200C7AA75C75543A401A20092AFEFB5AE025F
:100E72008003020EE9E5A604F5A6A2AF9200C2AF76
:100E820075C7AA75C75543A401A20092AFEEB5AECD
:100E920056E5A604F5A6A2AF9200C2AF75C7AA7521
:100EA200C75543A401A20092AFEDB5AE3AE5A60440
:100EB200F5A6A2AF9200C2AF75C7AA75C75543A4E3
:100EC20001A20092AFECB5AE1EE5A604F5A6A2AF54
:100ED2009200C2AF75C7AA75C75543A401A200927A
:100EE200AFEBB5AE02803B7F00EFF5A624CAF582D8
:100EF200E43400F583E0F5AEA2AFC2AFA2AF920038
:100F0200C2AF75C7AA75C75543AA40A20092AF7572
:100F1200C7AA75C75543A401A20092AF0FBF05002F
:100F220040C7A2AF9200C2AF75C7AA75C75553A5F5
:100F3200FBA20092AFA2AF9200C2AF75C7AA75C75B
:100F420055539FFEA20092AFA20092AF5387EF22A9
:100F5200A2AF9200C2AF75C7AA75C755439F01A23F
:100F62000092AF75AFC075A7007F008FA6A2AFC277
:100F7200AFA2AF9200C2AF75C7AA75C75543AA40C8
:100F8200A20092AF75C7AA75C75543A401A20092E9
:100F9200AFEF24CAF582E43400F583E5AEF00FBF6B
:100FA200050040C7A2AF9200C2AF75C7AA75C75568
:100FB200539FFEA20092AF22A2AF9200C2AF75C7AA
:100FC200AA75C755439F01A20092AF75A60075A7E7
:100FD2000075AF047F0075AE00A2AF9200C2AF757C
:100FE200C7AA75C75543A401A20092AFEF2432F5F8
:100FF20082E43400F583E5AEF0E5A604F5A60FBF62
:101002000C0040D2A2AF9200C2AF75C7AA75C755F5
:10101200539FFEA20092AF22A2AF9200C2AF75C749
:10102200AA75C755439F01A20092AF75A62075A766
:101032000075AF047F0075AE00A2AF9200C2AF751B
:10104200C7AA75C75543A401A20092AFEF243EF58B
:1010520082E43400F583E5AEF0E5A604F5A60FBF01
:101062000C0040D2A2AF9200C2AF75C7AA75C75595
:10107200539FFEA20092AF22A2AF9200C2AF75C7E9
:10108200AA75C755439F01A20092AF75A60075A726
:101092000075AF0C7F0075AE00A2AF9200C2AF75B3
:1010A200C7AA75C75543A401A20092AFEF242EF53B
:1010B20082E43400F583E5AEF0E5A604F5A60FBFA1
:1010C200020040D2A2AF9200C2AF75C7AA75C7553F
:1010D200539FFEA20092AF22A2AF9200C2AF75C789
:1010E200AA75C755439F01A20092AF75A60275A7C4
:1010F2000075AF0C7F0075AE00A2AF9200C2AF7553
:10110200C7AA75C75543A401A20092AFEF2430F5D8
:1011120082E43400F583E5AEF0E5A604F5A60FBF40
:10112200020040D2A2AF9200C2AF75C7AA75C755DE
:10113200539FFEA20092AF22AF83E5829000F4F0AB
:10114200EFA3F010990280FB9000F4E0FEA3E08E82
:10115200997F008E828F83223098FD9000F6E59968
:10116200F0C2989000F6E0F58222E5829000F7F056
:10117200A2AF9200C2AF75C7AA75C755439F01A21D
:101182000092AF7591009000F7E0FFBF0602800A5F
:10119200BF0702800ABF080F800A75A6388008754B
:1011A200A630800375A63075A70075AF04A2AF9272
:1011B20000C2AF75C7AA75C75543A401A20092AF7A
:1011C200AEAEE5A604F5A6A2AF9200C2AF75C7AA5D
:1011D20075C75543A401A20092AFADAEBF0802800D
:1011E2000302126E8E07EF2FFF8D0474015C2FFF36
:1011F20074C05FFC743F5FFBEF24F2FF9000F8F0D5
:1012020075AF0C75A60175A700A2AFC2AFA2AF92CF
:1012120000C2AF75C7AA75C75543AA40A20092AFD4
:1012220075C7AA75C75543A401A20092AF744BB506
:10123200AE02800C7452B5AE0280057453B5AE2472
:10124200BB0F005018BC40028008BC80028003BC67
:10125200C0128F04EC24F29000F8F08007EF24FC17
:101262009000F8F09000F8E0FFC313FE75C7AA756E
:10127200C7558E8475C7AA75C7558D85A2AF9200D2
:10128200C2AF75C7AA75C755539FFEA20092AF227F
:10129200E5829000F9F0E0FFBF0202800ABF03027C
:1012A2008013BF045680297582021212FE758202D3
:1012B20012136D804675820312136DA2AF9200C2A3
:1012C200AF75C7AA75C7555397DFA20092AF802B9F
:1012D2007582021212FE75820212136D7582041259
:1012E20012FE75820412136DA2AF9200C2AF75C7CF
:1012F200AA75C7555397DFA20092AF22E5829000EC
:10130200FAF0E0FFBF02028005BF042A801AA2AFF2
:101312009200C2AF75C7AA75C755439720A2009223
:10132200AFE59620E51080F975C7AA75C7554397B2
:10133200C0E59630E3FB22E5829000FBF075910058
:10134200E0FFBF02028005BF04208015A2AF920019
:10135200C2AF75C7AA75C7555397DFA20092AF8077
:101362000975C7AA75C75553973F22E5829000FCBD
:10137200F0759100A2AF9200C2AF9000FCE0FFBFF7
:101382000202800ABF0302802DBF04658050A2AF13
:101392009200C2AF75C7AA75C7555396FBA20092B9
:1013A200AFA2AF9200C2AF75C7AA75C7555396FDDB
:1013B200A20092AF803BA2AF9200C2AF75C7AA75DE
:1013C200C755439604A20092AFA2AF9200C2AF7576
:1013D200C7AA75C7555396FDA20092AF8013A2AF5C
:1013E2009200C2AF75C7AA75C755439608A200926C
:1013F200AFA20092AF22AF82AE83ADF0FC900104A7
:10140200EFF0EEA3F0EDA3F0ECA3F09000FFE0FF0D
:10141200600FBF01030214ACBF020302155702158D
:10142200E6759850438920438780438E10A2AF927D
:1014320000C2AF75C7AA75C755759100A20092AFD9
:1014420053C4DF900104E0FCA3E0FDA3E0FEA3E0AF
:10145200FFEDC4CCC4540F6CCC540FCC6CCCFDEE5D
:10146200C454F04DFDEFC4CEC4540F6ECE540FCE13
:101472006ECEFF900100E0F8A3E0F9A3E0FAA3E04A
:10148200FB90010CE8F0E9A3F0EAA3F0EBA3F08CE7
:10149200828D838EF0EF12167DAC82AD83AEF0FFAB
:1014A200C3E49CF58DD28E0215E675985043878071
:1014B20053C4F8A2AF9200C2AF75C7AA75C75575DB
:1014C2009100A20092AF43C420900104E0FCA3E08B
:1014D200FDA3E0FEA3E0FFEDC4CCC4540F6CCC54DA
:1014E2000FCC6CCCFDEEC454F04DFDEFC4CEC45411
:1014F2000F6ECE540FCE6ECEFF900100E0F8A3E047
:10150200F9A3E0FAA3E0FB90010CE8F0E9A3F0EA0A
:10151200A3F0EBA3F08C828D838EF0EF12167DACDC
:1015220082AD83AEF0FFE4C39CF8E49DF974019EA2
:10153200FAE49FFB89C6C3E49CFC8CC5A2AF92006F
:10154200C2AF75C7AA75C755759100A20092AF4385
:10155200C4080215E675F85075C480900104E0FCD9
:10156200A3E0FDA3E0FEA3E0FFEDC4CCC4540F6CE6
:10157200CC540FCC6CCCFDEEC454F04DFDEFC4CE78
:10158200C4540F6ECE540FCE6ECEFF900100E0F821
:10159200A3E0F9A3E0FAA3E0FB90010CE8F0E9A3D1
:1015A200F0EAA3F0EBA3F08C828D838EF0EF12169B
:1015B2007DAC82AD83AEF0FFE4C39CF8E49DF97488
:1015C200019EFAE49FFB89C6C3E49CFC8CC5A2AFD2
:1015D2009200C2AF75C7AA75C755759100A2009255
:1015E200AF43C40822E582900108F0900109E4F0BB
:1015F200900108E0FF6005BF011A800D3098FD9050
:101602000109E599F0C298800B30F8FD900109E5D7
:101612009AF0C2F8900109E0F58222E58290010B6E
:10162200F0E0FF6005BF01268011C2AC90010AE024
:10163200F59910990280FBD2AC8013539CFE900165
:101642000AE0F59A10F90280FB439C01D2AF2253C3
:10165200B1BF53B2BF9000FFE4F0900100F074C23A
:10166200A3F07401A3F0E4A3F090360075F06E7459
:10167200011213F8D299D202C2AC22AF82AE83AD6C
:10168200F0FC900110EFF0EEA3F0EDA3F0ECA3F06C
:10169200900114E4F0A3F0A3F0A3F090010CE0FC9D
:1016A200A3E0FDA3E0FEA3E0FF7B20C003900110B6
:1016B200E0F8A3E0F9A3E0FAA3E0FB9001182354B9
:1016C20001F0E828F8E933F9EA33FAEB33FB900149
:1016D20010E8F0E9A3F0EAA3F0EBA3F0900114E024
:1016E200F8A3E0F9A3E0FAA3E0FBE828F8E933F96C
:1016F200EA33FAEB33FB900114E8F0E9A3F0EAA332
:10170200F0EBA3F0D003900118E06008900114E020
:1017120043E001F0900114E0F537A3E0F538A3E0CF
:10172200F539A3E0F53AC3E5379CE5389DE5399EE6
:10173200E53A9F401F900114E537C39CF0E5389DC0
:10174200A3F0E5399EA3F0E53A9FA3F0900110E0E3
:1017520043E001F01BEB60030216AD900110E0FCC8
:10176200A3E0FDA3E0FEA3E08C828D838EF022A88D
:1017720082A983AAF0FB88F0900119E0A4FCADF0E5
:1017820089F0E0A42DFDE435F0FE88F0A3E0A42D5D
:10179200FDE5F03EFEE433FF89F0E0A42EFEE5F025
:1017A2003FFF88F0A3E0A42EFEE5F03FFF8AF09011
:1017B2000119E0A42EFEE5F03FFF8BF0E0A42FFF1D
:1017C2008AF0A3E0A42FFF89F0A3E0A42FFF88F002
:1017D200A3E0A42F8EF08D838C8222C036858136C1
:1017E2007E008E8312113AD03622AFF0AE83E582AC
:1017F20090011EF0EEA3F0EFA3F090011EE0FDA316
:10180200E0FEA3E0FF90011DE0FC900132E4F0A3B2
:10181200F0A3F0900135EDF0EEA3F0EFA3F090010C
:1018220038ECF09017DD021931C036E581F5362427
:10183200FBFF900132E4F0A3F0A3F0E53624FBF8BD
:10184200900135E6F008E6A3F008E6A3F09001382F
:10185200EFF09017DD121931D03622E58290012E79
:10186200F0E0FF900124E0C0E0A3E0C0E0A3E0C00C
:10187200E0121878800D900122E0C0E0A3E0C0E001
:101882008F822215811581158190012CE02401F0AF
:10189200A3E03400F022E58290012FF0E02430FF33
:1018A20024C6500D74072FFF900121E06003430707
:1018B200208F8202185DE582900130F0E0FFC4546F
:1018C2000FF582C007121898D00753070F8F8202B4
:1018D2001898E582900131F0900127E0FCA3E0FD29
:1018E200A3E0FEA3E0FF90012BE0FB900131E0FAC0
:1018F20079208B00E828F537EF2354014537FBECBC
:101902002CFCED33FDEE33FEEF33FFC3EB9A4007C1
:10191200EBC39AFB43040119E970D7900127ECF05D
:10192200EDA3F0EEA3F0EFA3F090012BEBF022AFCA
:1019320083E582900139F0EFA3F0900139E0FEA334
:10194200E0FF900122EEF0EFA3F0900132E0FDA360
:10195200E0FEA3E0FF900124EDF0EEA3F0EFA3F090
:1019620090012CE4F0A3F0900135E0FDA3E0FEA38A
:10197200E0FF8D828E838FF0122277FC9001357406
:10198200012DF0E43EA3F0EFA3F0EC70030222334A
:10199200BC2502800302222B90013BE4F090013C23
:1019A200F090013DF090013EF090013FF090014037
:1019B200F0900141F0900142F0900144F090014515
:1019C200F0A3F090014714F0A3F0900135E0FDA3DD
:1019D200E0FEA3E0FF8D828E838FF0122277FBA3BD
:1019E200AD82AE83900135EDF0EEA3F0EFA3F0905F
:1019F200014BEBF0BB25088B8212185D021969BB03
:101A020030005003021ACAEB24C65003021ACA90CD
:101A12000147E0F52CA3E0F52D74FFB52C63B52D3D
:101A220060C005C006C007900145E0FAA3E0FF9040
:101A32000154EAF0EFA3F090000AC005C00312229D
:101A420057AE82AF83D003D0058B027D00EA2EFE13
:101A5200ED3FFFEE24D0FEEF34FFFF900145EEF0A4
:101A6200EFA3F0D007D006D005900145E0F5F0A332
:101A7200E045F060030219D790013C7401F00219AD
:101A8200D7C005C006C007900154E52CF0E52DA390
:101A9200F090000AC006C005C003122257AA82AF06
:101AA20083D003D005D0067E00EB2AFAEE3FFFEA90
:101AB20024D0FAEF34FFFF900147EAF0EFA3F0D011
:101AC20007D006D0050219D790014BE0FBBB2E2FA1
:101AD200C005C006C007900147E0FAA3E0FFBAFFC5
:101AE20005BFFF028009D007D006D0050219D7D062
:101AF20007D006D005900147E4F0A3F00219D7BB46
:101B020061004014EB2485400F90014B74DF5BF0C1
:101B12009001217401F08005900121E4F090014BC5
:101B2200E0FBBB20028075BB2B028067BB2D0280CD
:101B320059BB4202806FBB4302807CBB4403021D3F
:101B4200C1BB4603021DE7BB48030219D7BB4903C9
:101B5200021DC1BB4A030219D7BB4C028050BB4FC6
:101B620003021DCFBB5003021D2FBB53028077BB64
:101B720054030219D7BB5503021DD7BB5803021DDC
:101B8200DFBB5A030219D7021DEF90013B7401F02B
:101B92000219D790013D7401F00219D790013E74E9
:101BA20001F00219D79001407401F00219D7900197
:101BB200417401F00219D7900140E0600E900138A3
:101BC200E014F9F090014BE7F0800F900138E02427
:101BD200FEFFF08F0190014BE7F090014BE0F582A0
:101BE20012185D021DFE900138E024FDFFF08F0106
:101BF20087050987060987071919900127EDF0EE75
:101C0200A3F0EFA3F08D828E838FF012223F8582A4
:101C12002C85832D900147E0FAA3E0FDBAFF0DBDAC
:101C2200FF0A900147E52CF0E52DA3F090013BE07F
:101C3200704B900145E0FAA3E0FDC3E52C9AE52D37
:101C42009D503A900145EAC3952CF0ED952DA3F0F5
:101C5200900145E0FAA3E0FD8A068D071ABAFF015A
:101C62001DEE4F6010758220C005C00212185DD0B3
:101C720002D00580E3900145EAF0EDA3F090014720
:101C8200E0F52FA3E0F530900127E0FAA3E0FDA3F1
:101C9200E0FF8A828D838FF0122277F52E603CC39B
:101CA200E4952F74808530F063F08095F0502C1508
:101CB2002F74FFB52F021530852E8212185D900108
:101CC20027E0FAA3E0FDA3E0FF0ABA00010D9001AC
:101CD20027EAF0EDA3F0EFA3F080AC90013BE070B7
:101CE20003021DFE900145E0FEA3E0FFC3E52C9E2A
:101CF200E52D9F4003021DFE900145EEC3952CF099
:101D0200EF952DA3F0900145E0FEA3E0FF8E028F38
:101D1200051EBEFF011FEA4D7003021DF6758220EB
:101D2200C007C00612185DD006D00780E0900138C7
:101D3200E024FDFDF08D01873109873209873319CF
:101D420019900127E531F0E532A3F0E533A3F090D5
:101D52000129E0FDBD8000400890014B7443F080F2
:101D620020BD6000400890014B7450F08013BD40CC
:101D720000400890014B7449F0800690014B745862
:101D8200F090014BE0FDF582C00512185D75823AB4
:101D920012185D75823012185D75827812185DD046
:101DA20005BD4902800EBD50028009900128E0F570
:101DB200821218B8900127E0F5821218B8803D907F
:101DC200013F7401F0900144740AF0802F900144A5
:101DD2007408F08027900144740AF0801F90014437
:101DE2007410F080179001427401F0800F8B821200
:101DF200185D8008900145EEF0EFA3F0900142E0FB
:101E02006071900138E024FCFFF08F01870309879D
:101E120005098706098707191919900127EBF0EDC3
:101E2200A3F0EEA3F0EFA3F090012774CDF074239A
:101E3200A3F07480A3F0900127E0F531A3E0F5321E
:101E4200A3E0F53374012531FAE43532FBAF339068
:101E52000127EAF0EBA3F0EFA3F08531828532830C
:101E62008533F0122277FF70030219698F821218EC
:101E72005D80C3900144E07003021969900140E063
:101E82006047900138E014F9F087077E007D007BFF
:101E920000900127EFF0EEA3F0EDA3F0EBA3F0909A
:101EA200013FE06003021F41900127E0FBA3E0A392
:101EB200E0A3E07D007E007F00900127EBF0EDA320
:101EC200F0EEA3F0EFA3F08076900141E06028905D
:101ED2000138E024FCFFF08F018703098705098799
:101EE20006098707191919900127EBF0EDA3F0EE07
:101EF200A3F0EFA3F08048900138E024FEFFF08FBA
:101F020001870609870719EF3395E0FDFB9001274A
:101F1200EEF0EFA3F0EDA3F0EBA3F090013FE07041
:101F22001E900127E0FBA3E0FDA3E0A3E07E007F7B
:101F320000900127EBF0EDA3F0EEA3F0EFA3F090F9
:101F4200013FE06041900127E0FBA3E0FDA3E0FE3A
:101F5200A3E0FF30E72B900127E0FBA3E0FDA3E025
:101F6200FEA3E0FFC3E49BFBE49DFDE49EFEE49F31
:101F7200FF900127EBF0EDA3F0EEA3F0EFA3F080CA
:101F82000590013FE4F09001437401F0900144E0B8
:101F9200F52F753451753501E4F52CF52D90012B93
:101FA200E4F0852F821218D4900143E0703390013F
:101FB2002BE0C454F0F53190012BE0C4540F4531AD
:101FC200F531853482853583E0FFE531420785347A
:101FD20082853583EFF0153474FFB53402153580F0
:101FE2000C90012BE0FF853482853583F0052CE4CB
:101FF200B52C02052D900143E0B40100E433F090CA
:102002000127E0FAA3E0FBA3E0FEA3E0FFEA4B4EC8
:102012004F708A900152E534F0E535A3F090014902
:10202200E52CF0E52DA3F0900145E0F5F0A3E045A5
:10203200F070099001457401F0E4A3F090013CE0D6
:10204200FFE0704790013BE07041852C34852D35CF
:10205200900145E0FAA3E0FBC007AF340F8F067F83
:1020620000C3EE9AEF9BD0075019758220C007C0BB
:1020720003C00212185DD002D003D0071ABAFF01C2
:102082001B80D5900145EAF0EBA3F090013FE060A0
:102092002075822DC00712185DD007900145E024FB
:1020A200FFFDA3E034FFFE900145EDF0EEA3F080CA
:1020B20056900149E0F5F0A3E045F0604A90013DF9
:1020C200E0602075822BC00712185DD00790014591
:1020D200E024FFFDA3E034FFFE900145EDF0EEA306
:1020E200F0802490013EE0601E758220C007121825
:1020F2005DD007900145E024FFFDA3E034FFFE9090
:102102000145EDF0EEA3F090013BE07048900149EB
:10211200E0F534A3E0F535900145E0FAA3E0FBC019
:10212200078A068B071ABAFF011BC3E5349EE53501
:102132009FD0075053EF60067D307E0080047D20E3
:102142007E008D82C007C003C00212185DD002D08B
:1021520003D00780CA900145E0FEA3E0FF90014949
:10216200E0F534A3E0F535C3E5349EE5359F500F25
:10217200900145EEC39534F0EF9535A3F0801190B0
:102182000145E4F0A3F08008900145EAF0EBA3F0EA
:10219200900152E0FEA3E0FF900149E0F534A3E094
:1021A200F535AA34AD35153474FFB534021535EA68
:1021B2004D6045900143E0B40100E433F0900143E7
:1021C200E070140EBE00010F8E828F83E0C4540FA4
:1021D200FD90012BF0800E8E828F83E0FD53050F60
:1021E20090012BEDF090012BE0F582C007C00612A2
:1021F2001898D006D00780AA90013BE0700302191C
:1022020069900145E0FEA3E0FF8E038F051EBEFF2D
:10221200011FEB4D7003021969758220C007C006C9
:1022220012185DD006D00780E08C8212185D021968
:102232006990012CE0FEA3E08E82F58322AA82AB94
:10224200831222776003A380F8C3E5829AF582E5C0
:10225200839BF58322AA83AB828BF0900154E0A486
:10226200F8A9F08AF0E0A429F98BF0A3E0A429F5FB
:10227200838882222220F71430F6148883A88220D1
:10228200F507E6A88375830022E280F7E49322E053
:0522920022758200220C
:102297000A0D204D43552052657365742E2020206A
:1022A700000A0D20546F67676C652050302E35206B
:1022B700746F206C6F7720746F2073746172742051
:1022C700746573742E2E2E200A0D20000A0D204EE1
:1022D7006F7720636F6E6669672076616C7565201E
:1022E7006973203A202020000D203078256258009D
:1022F7000A0D20000A0D20434F4E464947204D4FF7
:102307004449465920746F20307845462C3078462A
:10231700422C307836422C307846462C3078464668
:1023270020212121000A0D205265736574204D4339
:102337005520746F2074616B6520656666656374EC
:102347002E2E2E20200A0D20000A0D20434F4E4628
:1023570049472073616D65206173206C6173742038
:1023670074696D65206D6F646966792076616C7537
:1023770065202E2E2E206E6F74204D6F646966794E
:1023870020616761696E000A0D206F72204D6F64CE
:102397006966795F434F4E46494720415049204F70
:1023A7006E6C7920616C6C6F776564204F4E434586
:1023B70020616674657220506F776572204F4E20DA
:1023C7007265736574003C4E4F20464C4F41543E36
:0123D7000005
:040000030000005F9A
:00000001FF
