:1000000002091FEFB40A07740D12000E740A30982B
:1000100011A899B8130CC2983098FDA899C298B845
:0A00200011F63099FDC299F59922FE
:10003B000208A6E5082403F582E43400F583E00505
:10004B000822900000300703900003E475F00112C2
:10005B0005190204C12000E97F2ED2008018EF544D
:10006B000F2490D43440D4FF30040BEF24BFB41AC8
:10007B000050032461FFE50960021509050CE50C2E
:10008B007002050B30070E900000E475F0011205AD
:10009B0019EF0205070200037403D2078003E4C2C1
:1000AB0007F508900000120530E4F509F50BF50C87
:1000BB00E50960077F2012008180F5750AFFC201F8
:1000CB00C200C202C203C205C206C20812004DFF23
:1000DB00700D3007057F00120092AF0CAE0B22B4EF
:1000EB00255FC2D5C20412004DFF24D0B40A0050C4
:1000FB001A75F00A780930D50508B6FF0106C6A4B3
:10010B0026F620D5047002D20380D924CFB41A006E
:10011B00EF5004C2E5D204020293D20180C6D20092
:10012B0080C0D20280BCD2D580BAD20580B47F20E9
:10013B001200812002077401B5090040F112003E44
:10014B00FF1200810200BBD208D206809512003E3E
:10015B00FB12003EFA12003EF94A4B700679647AA4
:10016B00037BFF20022EE509602A7E008E827583B9
:10017B00001204DA60060EEE650A70F0C2D5EBC011
:10018B00E0EAC0E0E9C0E0EE1202DAD0E0F9D0E03C
:10019B00FAD0E0FB1204C1FF60AAEBC0E0EAC0E0BA
:1001AB00E9C0E0120081D0E02401F9D0E03400FA7C
:1001BB00D0E0FBE50A0460DCD50AD980877BFF7AA7
:1001CB000279D6D202809C791080027908C206C2CD
:1001DB00088008D2D5790A8004790AC2D5E50A04C9
:1001EB007002F50AE4FAFDFEFF12003EFC7B0820CC
:1001FB00011312003EFD7B1030000A12003EFE126E
:10020B00003EFF7B20EC3382D592D55013C3E430F4
:10021B0000069FFFE49EFEE42001039DFDE49CFC91
:10022B00E4CBF8C201EC700CCFCECDCCE824F8F8BF
:10023B0070F38017C3EF33FFEE33FEED33FDEC337A
:10024B00FCEB33FB994002FB0FD8E9EB300105F8CF
:10025B00D0E0C448B201C0E00AEC4D4E4F78207B91
:10026B000070C2EAB50A0040BCC0E01202DCD0F05C
:10027B00D0E0200104C4C0E0C4B201C0F012006A97
:10028B00D0F0D5F0EB0200BB12053901585301D267
:10029B005801294C01254201D64F01DE4401DE49AC
:1002AB00013E4301E45501C84601C84501C8470357
:1002BB008450012D2D01312E01542B013523015278
:1002CB0020036D2A00ED480000014C3F3F3F0079B1
:1002DB000AA2D5200314300509B910020404B90889
:1002EB000104A2D52006025001042002689202B537
:1002FB0009005034C0E07F203003197F30A2027216
:10030B00067205500F120333C202C206C205C208A1
:10031B007F30800F300503E9C0E012008130050308
:10032B00D0E0F9D0E0B509CC3005177F30B9100C0F
:10033B001200817F583004077F788003B9080312BD
:10034B0000813002057F2D0200817F202008F87F7D
:10035B002B2006F322920280CF286E756C6C29003D
:10036B00D20112003E3001F8C201780930D50108E4
:10037B00F60200ED2D5043495812003E2403B405FC
:10038B00004001E490037F93120072743A120072E2
:10039B00D2037509040201D275F008758200EF2FA4
:1003AB00FFEE33FECD33CDCC33CCC58233C5829B30
:1003BB00ED9AEC99E58298400CF582EE9BFEED9A56
:1003CB00FDEC99FC0FD5F0D6E4CEFBE4CDFAE4CCF2
:1003DB00F9A88222B800C1B90059BA002DEC8BF0F4
:1003EB0084CFCECDFCE5F0CBF97818EF2FFFEE33B1
:1003FB00FEED33FDEC33FCEB33FB10D703994004DC
:10040B00EB99FB0FD8E5E4F9FA227818EF2FFFEE02
:10041B0033FEED33FDEC33FCC933C910D7059BE933
:10042B009A4007EC9BFCE99AF90FD8E0E4C9FAE48F
:10043B00CCFB2275F010EF2FFFEE33FEED33FDCC2E
:10044B0033CCC833C810D7079BEC9AE899400AED18
:10045B009BFDEC9AFCE899F80FD5F0DAE4CDFBE4C0
:10046B00CCFAE4C8F922E8600FECC313FCED13FDE2
:10047B00EE13FEEF13FFD8F122ECF0A3EDF0A3EE99
:10048B00F0A3EFF022A8828583F0D083D0821204F0
:10049B00A71204A71204A71204A7E473E493A3C53D
:1004AB0083C5F0C583C8C582C8F0A3C583C5F0C595
:1004BB0083C8C582C822BB010689828A83E0225089
:1004CB0002E722BBFE02E32289828A83E49322BBEA
:1004DB00010CE58229F582E5833AF583E02250068B
:1004EB00E92582F8E622BBFE06E92582F8E222E541
:1004FB008229F582E5833AF583E49322BB010689D1
:10050B00828A83F0225002F722BBFE01F322F8E02D
:10051B00FBA3A3E0F925F0F0E582158270021583A9
:10052B00E0FA38F022EBF0A3EAF0A3E9F022D08353
:10053B00D082F8E4937012740193700DA3A393F817
:10054B00740193F5828883E4737402936860EFA35C
:10055B00A3A380DF900000120484900004E01460D9
:10056B005E14700302067524026003020707759878
:10057B0050438920438780438E10A2AF920CC2AFA9
:10058B0075C7AA75C755E4F591A20C92AF53C4DF9A
:10059B007B10FAF9F8900000E0FCA3E0FDA3E0FE6D
:1005AB00A3E0FF1203DF900005E0F8A3E0F9A3E05E
:1005BB00FAA3E0FB1203DFEFF404F58DD28E227564
:1005CB00985043878053C4F8A2AF920CC2AF75C743
:1005DB00AA75C755E4F591A20C92AF43C4207B10CA
:1005EB00FAF9F8900000E0FCA3E0FDA3E0FEA3E025
:1005FB00FF1203DF900005E0F8A3E0F9A3E0FAA3F4
:10060B00E0FB1203DFC3E49FFFE49EFE74019DFD3C
:10061B00E49CFC78081204718FC6E47B10FAF9F89D
:10062B00900000E0FCA3E0FDA3E0FEA3E0FF1203BB
:10063B00DF900005E0F8A3E0F9A3E0FAA3E0FB12DA
:10064B0003DFC3E49FFFE49EFE74019DFDE49CFC6D
:10065B00EFE48FC5A2AF920CC2AF75C7AA75C75591
:10066B00F591A20C92AF43C4082275F85075C48063
:10067B00E47B10FAF9F8900000E0FCA3E0FDA3E0A6
:10068B00FEA3E0FF1203DF900005E0F8A3E0F9A35F
:10069B00E0FAA3E0FB1203DFC3E49FFFE49EFE74CA
:1006AB00019DFDE49CFC78081204718FC6E47B105D
:1006BB00FAF9F8900000E0FCA3E0FDA3E0FEA3E054
:1006CB00FF1203DF900005E0F8A3E0F9A3E0FAA323
:1006DB00E0FB1203DFC3E49FFFE49EFE74019DFD6C
:1006EB00E49CFCEFE48FC5A2AF920CC2AF75C7AA16
:1006FB0075C755F591A20C92AF43C40822A2AF92D5
:10070B000CC2AF75C7AA75C755439F01A20C92AF18
:10071B00E4F591EF24F9600C14600E2402700D7552
:10072B00A638800875A630800375A630E4F5A7754A
:10073B00AF04A2AF920CC2AF75C7AA75C75543A43D
:10074B0001A20C92AF85AE0805A6A2AF920CC2AF68
:10075B0075C7AA75C75543A401A20C92AF85AE0904
:10076B00EF24F860030207FAE50825E0FFE50954DA
:10077B00012FFF54C0F50BEF543FF50A74F22FFF16
:10078B0075AF0C75A601E4F5A7A2AF920CC2AFA290
:10079B00AF920CC2AF75C7AA75C75543AA40A20C3E
:1007AB0092AF75C7AA75C75543A401A20C92AFAE01
:1007BB00AEEE644B600EAEAEEE64526007AEAEEEC4
:1007CB0064537026E50AC3940F748094805017E528
:1007DB000BFD6440600AED64806005ED64C0700A37
:1007EB0074F22FFF800474FC2FFFEFC313F5087511
:1007FB00C7AA75C75585088475C7AA75C7558509D6
:10080B0085A2AF920CC2AF75C7AA75C755539FFE91
:10081B00A20C92AF227F061207081208FA7BFF7A0E
:10082B000979391200A9A2AF920CC2AF75C7AA758C
:10083B00C755E4F59175C7AA75C75553A37BA20C91
:10084B0092AF53B1FE53B2FE43B10853B2F753E923
:10085B00FB43E90443EA0153EBFE43E92043EA0877
:10086B0043EB08439B02D2AF90002AE024F86016BA
:10087B00240770F47BFF7A09794B1200A990002AA8
:10088B00E054FEF080E27BFF7A09795D1200A990BB
:10089B00002AE054FBF080D080CE22C0E0C083C0A1
:1008AB0082C0D075D000C00785910E759100AFEC5A
:1008BB00EF24F8600F2407701490002A7401F05392
:1008CB00ECFE800990002A7408F053ECF7E50E60FB
:1008DB0013A2AF920CC2AF75C7AA75C7557591011C
:1008EB00A20C92AFD007D0D0D082D083D0E03253BD
:1008FB00B1BF53B2BFE4900004F0A3120490000107
:10090B00C2007F007E367D6E7C0112055FD299D2CC
:10091B0009C2AC22787FE4F6D8FD9000007FFF7E01
:10092B0003E4F0A3DFFCDEFA7581210208200A2024
:10093B005049542074657374207374617274210070
:10094B000A205049543020696E7465727275707448
:10095B0021000A205049543320696E7465727275F8
:04096B007074210083
:00000001FF
