:060000000200060200628E
:0300060075812FD2
:0A0009001209B6E58260030200034D
:100013007900E94400601B7A009009BA784575A01D
:1000230000E493F2A308B8000205A0D9F4DAF2754C
:02003300A0FF2C
:10003500E478FFF6D8FD7800E84400600A79017598
:10004500A000E4F309D8FC7844E84400600C790189
:0A005500900001E4F0A3D8FCD9FAF2
:03005F0002000399
:1000620053B3FD43B40253B3FB43B404438E02754E
:10007200955030A0467582071205CAD292900007A9
:100082007405F0E4A3F090000974E8F07403A3F09F
:1000920090240075F0F4E4120130C29290000774CB
:1000A20005F0E4A3F090000974E8F07403A3F09063
:1000B200240075F0F4E412013080B775820612054F
:1000C200CA80FE22AF83E582900001F0EFA3F09098
:1000D2000001E0FEA3E0FF8E828F83E493A3E4930A
:1000E200F58222E582900003F0E04480FF75C7AA02
:1000F20075C7558F9F22E582900004F0E0600543AA
:100102008702000022E582900005F0E06005438747
:10011200010000227F007E7F00DEFD0FBF1A00403B
:10012200F522E582900006F0E024FF92AF22AF8232
:10013200AE83ADF0FC90000BEFF0EEA3F0EDA3F078
:10014200ECA3F0538EF75389F043890190000BE042
:10015200FCA3E0FDA3E0FEA3E0FF9000347440F0B6
:100162007442A3F0740FA3F0E4A3F08C828D838E0B
:10017200F0EF120856AC82AD83AEF0FF900009E0BA
:10018200FAA3E0FB900041EAF0EBA3F0E4A3F0A3B2
:10019200F08C828D838EF0EF12094AAC82AD83AE71
:1001A200F0FF900034740CF0E4A3F0A3F0A3F08C01
:1001B200828D838EF0EF120856AC82AD83AEF0FFD3
:1001C2008C0374FFC39BFB74FFC39C74FF9DFDE40F
:1001D2009EE49F8D07900007E0FDA3E0FEED4E60D8
:1001E200148B8A8F8CD28C108D0280FBC28C1DBD29
:1001F200FF011E80E822AF82AE83ADF0FC900013B7
:10020200EFF0EEA3F0EDA3F0ECA3F0538EEF5389E1
:100212000F438910900013E0FCA3E0FDA3E0FEA3CE
:10022200E0FF9000347440F07442A3F0740FA3F026
:10023200E4A3F08C828D838EF0EF120856AC82AD6F
:1002420083AEF0FF900011E0FAA3E0FB900041EAD8
:10025200F0EBA3F0E4A3F0A3F08C828D838EF0EF99
:1002620012094AAC82AD83AEF0FF900034740CF0F8
:10027200E4A3F0A3F0A3F08C828D838EF0EF12083A
:1002820056AC82AD83AEF0FF8C0374FFC39BFB744C
:10029200FFC39C74FF9DFDE49EE49F8D0790000FB9
:1002A200E0FDA3E0FEED4E60148B8B8F8DD28E109D
:1002B2008F0280FBC28E1DBDFF011E80E822AF822D
:1002C200AE83ADF0FC90001FEFF0EEA3F0EDA3F0D3
:1002D200ECA3F0759100900017E0FEA3E0FF8E04FE
:1002E2008F05BC0105BD00028038BC0405BD0002BB
:1002F2008035BC1005BD00028035BC2005BD000262
:100302008035BC4005BD00028035BC8005BD0002C1
:100312008035BC0005BD01028035BC0040BD023DF8
:10032200803553C98F803653C98F43C910802E53ED
:10033200C98F43C920802653C98F43C930801E53B9
:10034200C98F43C940801653C98F43C950800E5389
:10035200C98F43C960800653C98F43C970C2C8435D
:10036200C98043C90490001FE0FAA3E0FBA3E0FCAC
:10037200A3E0FD9000347440F07442A3F0740FA324
:10038200F0E4A3F08A828B838CF0EDC007C00612E2
:10039200085685822485832585F026F52790001B43
:1003A200E0F8A3E0F9A3E0FCA3E0FD900041E8F04F
:1003B200E9A3F0ECA3F0EDA3F085248285258385E3
:1003C20026F0E52712094AAA82AB83ACF0FDD006DB
:1003D200D007900034EEF0EFA3F0E4A3F0A3F08A8C
:1003E200828B838CF0ED120856AC82AD83AEF0FFA7
:1003F2008C03C3E49BFBE4C39CE49DFD74019EE477
:100402009F8D07900019E0FDA3E0FEED4E60148B76
:10041200CC8FCDD2CA10CF0280FBC2CA1DBDFF0154
:100422001E80E822AF82AE83ADF0FC90002AEFF08E
:10043200EEA3F0EDA3F0ECA3F0759100900023E0A1
:10044200FFBF01028023BF02028023BF0402802675
:10045200BF08028029BF1002802CBF2002802FBF5C
:1004620040028032BF803D803553C4F8803653C489
:10047200F843C401802E53C4F843C402802653C4F7
:10048200F843C403801E53C4F843C404801653C403
:10049200F843C405800E53C4F843C406800653C40F
:1004A200F843C40790002AE0FBA3E0FCA3E0FDA30D
:1004B200E0FE9000347440F07442A3F0740FA3F095
:1004C200E4A3F08B828C838DF0EEC0071208568570
:1004D200822885832985F02AF52B900026E0F8A34F
:1004E200E0F9A3E0FAA3E0FE900041E8F0E9A3F00E
:1004F200EAA3F0EEA3F0852882852983852AF0E518
:100502002B12094AAB82AC83ADF0FED007900034C7
:10051200EFF0E4A3F0A3F0A3F08B828C838DF0EED6
:10052200120856AC82AD83AEF0FF8C03C3E49BFB92
:10053200E4C39CE49DFD74019EE49F8D079000241A
:10054200E0FDA3E0FEED4E6068A2AF9200C2AF757F
:10055200C7AA75C755759100A20092AF53C4EF8B1D
:10056200C58FC6A2AF9200C2AF75C7AA75C755752F
:100572009100A20092AF43C408E5C430E4FBA2AFED
:100582009200C2AF75C7AA75C755759100A20092B5
:10059200AF53C4EFA2AF9200C2AF75C7AA75C755D9
:1005A200759100A20092AF53C4F71DBDFF011E80DA
:1005B20094A2AF9200C2AF75C7AA75C755759100D4
:1005C200A20092AF53C4F722E58290002EF0A2AFB0
:1005D2009200C2AF75C7AA75C755439F01A2009288
:1005E200AF75910090002EE0FFBF0602800ABF07A0
:1005F20002800ABF080F800A75A638800875A630E7
:10060200800375A63075A70075AF04A2AF9200C231
:10061200AF75C7AA75C75543A401A20092AFAEAE8B
:10062200E5A604F5A6A2AF9200C2AF75C7AA75C728
:100632005543A401A20092AFADAEBF0802800302EF
:1006420006CC8E07EF2FFF8D0474015C2FFF74C060
:100652005FFC743F5FFBEF24F2FF90002FF075AF59
:100662000C75A60175A700A2AFC2AFA2AF9200C2DD
:10067200AF75C7AA75C75543AA40A20092AF75C706
:10068200AA75C75543A401A20092AF744BB5AE023E
:10069200800C7452B5AE0280057453B5AE24BB0F04
:1006A200005018BC40028008BC80028003BCC0120B
:1006B2008F04EC24F290002FF08007EF24FC9000CE
:1006C2002FF090002FE0FFC313FE75C7AA75C75520
:1006D2008E8475C7AA75C7558D85A2AF9200C2AF29
:1006E20075C7AA75C755539FFEA20092AF22E58235
:1006F200900030F0E0FFBF0202800ABF03028013C5
:10070200BF0456802975820212075C7582021207A5
:10071200CB80467582031207CBA2AF9200C2AF759F
:10072200C7AA75C7555397DFA20092AF802B758277
:100732000212075C7582021207CB75820412075CF3
:100742007582041207CBA2AF9200C2AF75C7AA7519
:10075200C7555397DFA20092AF22E582900031F095
:10076200E0FFBF02028005BF042A801AA2AF9200F6
:10077200C2AF75C7AA75C755439720A20092AFE5CD
:100782009620E51080F975C7AA75C7554397C0E54D
:100792009630E3FB22E582900032F0759100E0FF93
:1007A200BF02028005BF04208015A2AF9200C2AF33
:1007B20075C7AA75C7555397DFA20092AF80097516
:1007C200C7AA75C75553973F22E582900033F0754B
:1007D2009100A2AF9200C2AF900033E0FFBF0202CD
:1007E200800ABF0302802DBF04658050A2AF920031
:1007F200C2AF75C7AA75C7555396FBA20092AFA2A6
:10080200AF9200C2AF75C7AA75C7555396FDA20035
:1008120092AF803BA2AF9200C2AF75C7AA75C7550F
:10082200439604A20092AFA2AF9200C2AF75C7AACC
:1008320075C7555396FDA20092AF8013A2AF9200E6
:10084200C2AF75C7AA75C755439608A20092AFA258
:100852000092AF22AF82AE83ADF0FC900038EFF091
:10086200EEA3F0EDA3F0ECA3F090003CE4F0A3F0D3
:10087200A3F0A3F0900034E0FCA3E0FDA3E0FEA30C
:10088200E0FF7B20C003900038E0F8A3E0F9A3E08A
:10089200FAA3E0FB900040235401F0E828F8E93382
:1008A200F9EA33FAEB33FB900038E8F0E9A3F0EA17
:1008B200A3F0EBA3F090003CE0F8A3E0F9A3E0FA88
:1008C200A3E0FBE828F8E933F9EA33FAEB33FB90CB
:1008D200003CE8F0E9A3F0EAA3F0EBA3F0D0039028
:1008E2000040E0600890003CE043E001F090003CF2
:1008F200E0F52CA3E0F52DA3E0F52EA3E0F52FC340
:10090200E52C9CE52D9DE52E9EE52F9F401F900036
:100912003CE52CC39CF0E52D9DA3F0E52E9EA3F0B3
:10092200E52F9FA3F0900038E043E001F01BEB605D
:1009320003020886900038E0FCA3E0FDA3E0FEA3DA
:10094200E08C828D838EF022A882A983AAF0FB8894
:10095200F0900041E0A4FCADF089F0E0A42DFDE4AC
:1009620035F0FE88F0A3E0A42DFDE5F03EFEE43371
:10097200FF89F0E0A42EFEE5F03FFF88F0A3E0A49B
:100982002EFEE5F03FFF8AF0900041E0A42EFEE546
:10099200F03FFF8BF0E0A42FFF8AF0A3E0A42FFF2B
:1009A20089F0A3E0A42FFF88F0A3E0A42F8EF08D9E
:0809B200838C82227582002271
:040000030000005F9A
:00000001FF
