:100000000200413200000000000000320000000049
:10001000000000320000000000000032000000007C
:10002000000000320000000000000032000000006C
:10003000000000320000000000000002009D0200ED
:01004000F2CD
:0300410075813294
:0A0044001212F7E582600302003E8D
:10004E007900E94400601B7A0090133C786675A035
:10005E0000E493F2A308B8000205A0D9F4DAF27511
:02006E00A0FFF1
:10007000E478FFF6D8FD7800E84400600A7901755D
:10008000A000E4F309D8FC7865E84400600C79012D
:0A009000900001E4F0A3D8FCD9FAB7
:03009A0002003E23
:10009D00C0E0C082C083C007C0D075D00085912359
:1000AD00759100AFECBF01028005BF0816800B9063
:1000BD0000017401F053ECFE80099000017408F00A
:1000CD0053ECF7E5236013A2AF9200C2AF75C7AA38
:1000DD0075C755759101A20092AFD0D0D007D083CE
:1000ED00D082D0E03275820612023C12072174FBD9
:1000FD00C0E07412C0E07480C0E012088F15811545
:10010D00811581A2AF9200C2AF75C7AA75C755758B
:10011D00910075C7AA75C75553A37BA20092AF5323
:10012D00B1FE53B2FE43B10853B2F753E9FB43E9B5
:10013D000443EA0153EBFE43E92043EA0843EB088D
:10014D00439B02D2AF900001E0FFBF01028005BFCB
:10015D0008F3801F740DC0E07413C0E07480C0E01C
:10016D0012088F158115811581900001E053E0FE75
:10017D00F080D2741FC0E07413C0E07480C0E01230
:10018D00088F158115811581900001E053E0FBF07A
:10019D0080B322AF83E582900002F0EFA3F09000D0
:1001AD0002E0FEA3E0FF8E828F83E493A3E493F538
:1001BD008222E582900004F0E04480FF75C7AA75A5
:1001CD00C7558F9F22E582900005F0E060054387BB
:1001DD0002000022E582900006F0E06005438701F1
:1001ED000000227F007E7F00DEFD0FBF1A0040F56C
:1001FD0022E582900007F0E024FF92AF22AF83E565
:10020D0082900008F0EFA3F010990280FB90000897
:10021D00E0FEA3E08E997F008E828F83223098FDC1
:10022D0090000AE599F0C29890000AE0F58222E567
:10023D008290000BF0A2AF9200C2AF75C7AA75C72E
:10024D0055439F01A20092AF75910090000BE0FF06
:10025D00BF0602800ABF0702800ABF080F800A7519
:10026D00A638800875A630800375A63075A7007571
:10027D00AF04A2AF9200C2AF75C7AA75C75543A40C
:10028D0001A20092AFAEAEE5A604F5A6A2AF920014
:10029D00C2AF75C7AA75C75543A401A20092AFADF1
:1002AD00AEBF0802800302033E8E07EF2FFF8D04C1
:1002BD0074015C2FFF74C05FFC743F5FFBEF24F291
:1002CD00FF90000CF075AF0C75A60175A700A2AFDD
:1002DD00C2AFA2AF9200C2AF75C7AA75C75543AAE8
:1002ED0040A20092AF75C7AA75C75543A401A200DD
:1002FD0092AF744BB5AE02800C7452B5AE02800550
:10030D007453B5AE24BB0F005018BC40028008BC1E
:10031D0080028003BCC0128F04EC24F290000CF01C
:10032D008007EF24FC90000CF090000CE0FFC3134D
:10033D00FE75C7AA75C7558E8475C7AA75C7558D25
:10034D0085A2AF9200C2AF75C7AA75C755539FFE60
:10035D00A20092AF22E58290000DF0E0FFBF0202F5
:10036D00800ABF03028013BF0456802975820212D2
:10037D0003CE75820212043D804675820312043D40
:10038D00A2AF9200C2AF75C7AA75C7555397DFA22A
:10039D000092AF802B7582021203CE758202120479
:1003AD003D7582041203CE75820412043DA2AF92F4
:1003BD0000C2AF75C7AA75C7555397DFA20092AF9C
:1003CD0022E58290000EF0E0FFBF02028005BF041F
:1003DD002A801AA2AF9200C2AF75C7AA75C755433E
:1003ED009720A20092AFE59620E51080F975C7AA77
:1003FD0075C7554397C0E59630E3FB22E582900023
:10040D000FF0759100E0FFBF02028005BF04208050
:10041D0015A2AF9200C2AF75C7AA75C7555397DF26
:10042D00A20092AF800975C7AA75C75553973F2291
:10043D00E582900010F0759100A2AF9200C2AF90CE
:10044D000010E0FFBF0202800ABF0302802DBF042F
:10045D00658050A2AF9200C2AF75C7AA75C755533C
:10046D0096FBA20092AFA2AF9200C2AF75C7AA755C
:10047D00C7555396FDA20092AF803BA2AF9200C22A
:10048D00AF75C7AA75C755439604A20092AFA2AF28
:10049D009200C2AF75C7AA75C7555396FDA20092BB
:1004AD00AF8013A2AF9200C2AF75C7AA75C75543EF
:1004BD009608A20092AFA20092AF22AF82AE83AD9A
:1004CD00F0FC900018EFF0EEA3F0EDA3F0ECA3F02C
:1004DD00900013E0FF600FBF010302057CBF020314
:1004ED000206270206B6759850438920438780433C
:1004FD008E10A2AF9200C2AF75C7AA75C755759180
:10050D0000A20092AF53C4DF900018E0FCA3E0FD01
:10051D00A3E0FEA3E0FFEDC4CCC4540F6CCC540F8C
:10052D00CC6CCCFDEEC454F04DFDEFC4CEC4540FD5
:10053D006ECE540FCE6ECEFF900014E0F8A3E0F90E
:10054D00A3E0FAA3E0FB900020E8F0E9A3F0EAA312
:10055D00F0EBA3F08C828D838EF0EF12074DAC8201
:10056D00AD83AEF0FFC3E49CF58DD28E0206B67559
:10057D00985043878053C4F8A2AF9200C2AF75C79D
:10058D00AA75C755759100A20092AF43C420900083
:10059D0018E0FCA3E0FDA3E0FEA3E0FFEDC4CCC496
:1005AD00540F6CCC540FCC6CCCFDEEC454F04DFDFF
:1005BD00EFC4CEC4540F6ECE540FCE6ECEFF90004E
:1005CD0014E0F8A3E0F9A3E0FAA3E0FB900020E823
:1005DD00F0E9A3F0EAA3F0EBA3F08C828D838EF00B
:1005ED00EF12074DAC82AD83AEF0FFE4C39CF8E48F
:1005FD009DF974019EFAE49FFB89C6C3E49CFC8CB3
:10060D00C5A2AF9200C2AF75C7AA75C75575910047
:10061D00A20092AF43C4080206B675F85075C480A7
:10062D00900018E0FCA3E0FDA3E0FEA3E0FFEDC405
:10063D00CCC4540F6CCC540FCC6CCCFDEEC454F028
:10064D004DFDEFC4CEC4540F6ECE540FCE6ECEFF03
:10065D00900014E0F8A3E0F9A3E0FAA3E0FB90000A
:10066D0020E8F0E9A3F0EAA3F0EBA3F08C828D83F0
:10067D008EF0EF12074DAC82AD83AEF0FFE4C39C5C
:10068D00F8E49DF974019EFAE49FFB89C6C3E49CCE
:10069D00FC8CC5A2AF9200C2AF75C7AA75C75575C0
:1006AD009100A20092AF43C40822E58290001CF095
:1006BD0090001DE4F090001CE0FF6005BF011A8062
:1006CD000D3098FD90001DE599F0C298800B30F823
:1006DD00FD90001DE59AF0C2F890001DE0F5822214
:1006ED00E58290001FF0E0FF6005BF01268011C27A
:1006FD00AC90001EE0F59910990280FBD2AC8013EE
:10070D00539CFE90001EE0F59A10F90280FB439C6D
:10071D0001D2AF2253B1BF53B2BF900013E4F0909A
:10072D000014F074C2A3F07401A3F0E4A3F09036AA
:10073D000075F06E74011204C8D299D201C2AC22B8
:10074D00AF82AE83ADF0FC900024EFF0EEA3F0EDA0
:10075D00A3F0ECA3F0900028E4F0A3F0A3F0A3F035
:10076D00900020E0FCA3E0FDA3E0FEA3E0FF7B20D2
:10077D00C003900024E0F8A3E0F9A3E0FAA3E0FBA6
:10078D0090002C235401F0E828F8E933F9EA33FA04
:10079D00EB33FB900024E8F0E9A3F0EAA3F0EBA320
:1007AD00F0900028E0F8A3E0F9A3E0FAA3E0FBE85D
:1007BD0028F8E933F9EA33FAEB33FB900028E8F037
:1007CD00E9A3F0EAA3F0EBA3F0D00390002CE060D6
:1007DD0008900028E043E001F0900028E0F52FA3F9
:1007ED00E0F530A3E0F531A3E0F532C3E52F9CE54C
:1007FD00309DE5319EE5329F401F900028E52FC3C7
:10080D009CF0E5309DA3F0E5319EA3F0E5329FA36A
:10081D00F0900024E043E001F01BEB600302077D44
:10082D00900024E0FCA3E0FDA3E0FEA3E08C828D0C
:10083D00838EF022C02E85812E7E008E8312020AB9
:10084D00D02E22AFF0AE83E58290002EF0EEA3F015
:10085D00EFA3F090002EE0FDA3E0FEA3E0FF9000DB
:10086D002DE0FC900042E4F0A3F0A3F0900045EDE4
:10087D00F0EEA3F0EFA3F0900048ECF090084102E9
:10088D000995C02EE581F52E24FBFF900042E4F082
:10089D00A3F0A3F0E52E24FBF8900045E6F008E662
:1008AD00A3F008E6A3F0900048EFF090084112097C
:1008BD0095D02E22E58290003EF0E0FF900034E0CE
:1008CD00C0E0A3E0C0E0A3E0C0E01208DC800D9022
:1008DD000032E0C0E0A3E0C0E08F822215811581D7
:1008ED00158190003CE02401F0A3E03400F022E5F6
:1008FD008290003FF0E02430FF24C6500D74072F86
:10090D00FF900031E060034307208F820208C1E5AC
:10091D0082900040F0E0FFC4540FF582C00712082A
:10092D00FCD00753070F8F820208FCE5829000412F
:10093D00F0900037E0FCA3E0FDA3E0FEA3E0FF9004
:10094D00003BE0FB900041E0FA79208B00E828F5B0
:10095D002FEF235401452FFBEC2CFCED33FDEE3333
:10096D00FEEF33FFC3EB9A4007EBC39AFB43040141
:10097D0019E970D7900037ECF0EDA3F0EEA3F0EF8E
:10098D00A3F090003BEBF022AF83E582900049F09D
:10099D00EFA3F0900049E0FEA3E0FF900032EEF0EF
:1009AD00EFA3F0900042E0FDA3E0FEA3E0FF900076
:1009BD0034EDF0EEA3F0EFA3F090003CE4F0A3F0E3
:1009CD00900045E0FDA3E0FEA3E0FF8D828E838FB6
:1009DD00F01212DBFC90004574012DF0E43EA3F003
:1009ED00EFA3F0EC7003021297BC250280030212F4
:1009FD008F90004BE4F090004CF090004DF0900083
:100A0D004EF090004FF0900050F0900051F090009B
:100A1D0052F0900054F0900055F0A3F09000571450
:100A2D00F0A3F0900045E0FDA3E0FEA3E0FF8D8272
:100A3D008E838FF01212DBFBA3AD82AE8390004547
:100A4D00EDF0EEA3F0EFA3F090005BEBF0BB25080B
:100A5D008B821208C10209CDBB30005003020B2E50
:100A6D00EB24C65003020B2E900057E0F524A3E0B3
:100A7D00F52574FFB52463B52560C005C006C00714
:100A8D00900055E0FAA3E0FF900064EAF0EFA3F0C8
:100A9D0090000AC005C0031212BBAE82AF83D00313
:100AAD00D0058B027D00EA2EFEED3FFFEE24D0FE39
:100ABD00EF34FFFF900055EEF0EFA3F0D007D00616
:100ACD00D005900055E0F5F0A3E045F06003020A73
:100ADD003B90004C7401F0020A3BC005C006C007F4
:100AED00900064E524F0E525A3F090000AC006C04F
:100AFD0005C0031212BBAA82AF83D003D005D00666
:100B0D007E00EB2AFAEE3FFFEA24D0FAEF34FFFF26
:100B1D00900057EAF0EFA3F0D007D006D005020AF7
:100B2D003B90005BE0FBBB2E2FC005C006C00790BD
:100B3D000057E0FAA3E0FFBAFF05BFFF028009D01E
:100B4D0007D006D005020A3BD007D006D00590008D
:100B5D0057E4F0A3F0020A3BBB61004014EB24857F
:100B6D00400F90005B74DF5BF09000317401F080FA
:100B7D0005900031E4F090005BE0FBBB2002807536
:100B8D00BB2B028067BB2D028059BB4202806FBB1D
:100B9D004302807CBB4403020E25BB4603020E4B71
:100BAD00BB4803020A3BBB4903020E25BB4A0302A5
:100BBD000A3BBB4C028050BB4F03020E33BB5003AC
:100BCD00020D93BB53028077BB5403020A3BBB5506
:100BDD0003020E3BBB5803020E43BB5A03020A3BF2
:100BED00020E5390004B7401F0020A3B90004D74BD
:100BFD0001F0020A3B90004E7401F0020A3B900096
:100C0D00507401F0020A3B9000517401F0020A3B4E
:100C1D00900050E0600E900048E014F9F090005BF9
:100C2D00E7F0800F900048E024FEFFF08F01900068
:100C3D005BE7F090005BE0F5821208C1020E629056
:100C4D000048E024FDFFF08F01870509870609871D
:100C5D00071919900037EDF0EEA3F0EFA3F08D8298
:100C6D008E838FF01212A3858224858325900057E1
:100C7D00E0FAA3E0FDBAFF0DBDFF0A900057E52491
:100C8D00F0E525A3F090004BE0704B900055E0FA95
:100C9D00A3E0FDC3E5249AE5259D503A900055EA61
:100CAD00C39524F0ED9525A3F0900055E0FAA3E04F
:100CBD00FD8A068D071ABAFF011DEE4F6010758271
:100CCD0020C005C0021208C1D002D00580E39000FB
:100CDD0055EAF0EDA3F0900057E0F527A3E0F528D5
:100CED00900037E0FAA3E0FDA3E0FF8A828D838FA9
:100CFD00F01212DBF526603CC3E49527748085283D
:100D0D00F063F08095F0502C152774FFB527021570
:100D1D00288526821208C1900037E0FAA3E0FDA3D2
:100D2D00E0FF0ABA00010D900037EAF0EDA3F0EFF5
:100D3D00A3F080AC90004BE07003020E6290005562
:100D4D00E0FEA3E0FFC3E5249EE5259F4003020ED0
:100D5D0062900055EEC39524F0EF9525A3F0900019
:100D6D0055E0FEA3E0FF8E028F051EBEFF011FEAB8
:100D7D004D7003020E5A758220C007C0061208C1BD
:100D8D00D006D00780E0900048E024FDFDF08D01F5
:100D9D00872909872A09872B1919900037E529F02A
:100DAD00E52AA3F0E52BA3F0900039E0FDBD80000E
:100DBD00400890005B7443F08020BD6000400890B7
:100DCD00005B7450F08013BD4000400890005B74D0
:100DDD0049F0800690005B7458F090005BE0FDF5E3
:100DED0082C0051208C175823A1208C1758230128F
:100DFD0008C17582781208C1D005BD4902800EBDAB
:100E0D0050028009900038E0F58212091C900037DD
:100E1D00E0F58212091C803D90004F7401F09000A6
:100E2D0054740AF0802F9000547408F080279000BD
:100E3D0054740AF0801F9000547410F080179000C5
:100E4D00527401F0800F8B821208C18008900055FA
:100E5D00EEF0EFA3F0900052E06071900048E024B6
:100E6D00FCFFF08F018703098705098706098707AE
:100E7D00191919900037EBF0EDA3F0EEA3F0EFA3E5
:100E8D00F09000377431F07413A3F07480A3F090D8
:100E9D000037E0F529A3E0F52AA3E0F52B74012531
:100EAD0029FAE4352AFBAF2B900037EAF0EBA3F0DB
:100EBD00EFA3F0852982852A83852BF01212DBFFA3
:100ECD0070030209CD8F821208C180C3900054E0D7
:100EDD0070030209CD900050E06047900048E01487
:100EED00F9F087077E007D007B00900037EFF0EE74
:100EFD00A3F0EDA3F0EBA3F090004FE06003020F21
:100F0D00A5900037E0FBA3E0A3E0A3E07D007E0009
:100F1D007F00900037EBF0EDA3F0EEA3F0EFA3F020
:100F2D008076900051E06028900048E024FCFFF0AE
:100F3D008F0187030987050987060987071919197D
:100F4D00900037EBF0EDA3F0EEA3F0EFA3F08048A7
:100F5D00900048E024FEFFF08F01870609870719EE
:100F6D00EF3395E0FDFB900037EEF0EFA3F0EDA32E
:100F7D00F0EBA3F090004FE0701E900037E0FBA364
:100F8D00E0FDA3E0A3E07E007F00900037EBF0EDE5
:100F9D00A3F0EEA3F0EFA3F090004FE060419000BE
:100FAD0037E0FBA3E0FDA3E0FEA3E0FF30E72B90CD
:100FBD000037E0FBA3E0FDA3E0FEA3E0FFC3E49B4D
:100FCD00FBE49DFDE49EFEE49FFF900037EBF0ED0A
:100FDD00A3F0EEA3F0EFA3F0800590004FE4F090A6
:100FED0000537401F0900054E0F527752C61752DB8
:100FFD0000E4F524F52590003BE4F08527821209E5
:10100D0038900053E0703390003BE0C454F0F52964
:10101D0090003BE0C4540F4529F529852C82852D80
:10102D0083E0FFE5294207852C82852D83EFF0159E
:10103D002C74FFB52C02152D800C90003BE0FF8524
:10104D002C82852D83F00524E4B52402052590001E
:10105D0053E0B40100E433F0900037E0FAA3E0FB75
:10106D00A3E0FEA3E0FFEA4B4E4F708A900062E5CD
:10107D002CF0E52DA3F0900059E524F0E525A3F023
:10108D00900055E0F5F0A3E045F07009900055741F
:10109D0001F0E4A3F090004CE0FFE0704790004BAE
:1010AD00E0704185242C85252D900055E0FAA3E0B4
:1010BD00FBC007AF2C0F8F067F00C3EE9AEF9BD0BE
:1010CD00075019758220C007C003C0021208C1D095
:1010DD0002D003D0071ABAFF011B80D5900055EA44
:1010ED00F0EBA3F090004FE0602075822DC0071249
:1010FD0008C1D007900055E024FFFDA3E034FFFEAA
:10110D00900055EDF0EEA3F08056900059E0F5F00B
:10111D00A3E045F0604A90004DE0602075822BC041
:10112D00071208C1D007900055E024FFFDA3E0345D
:10113D00FFFE900055EDF0EEA3F0802490004EE000
:10114D00601E758220C0071208C1D007900055E0BF
:10115D0024FFFDA3E034FFFE900055EDF0EEA3F06B
:10116D0090004BE07048900059E0F52CA3E0F52D70
:10117D00900055E0FAA3E0FBC0078A068B071ABA68
:10118D00FF011BC3E52C9EE52D9FD0075053EF604B
:10119D00067D307E0080047D207E008D82C007C0DC
:1011AD0003C0021208C1D002D003D00780CA90003C
:1011BD0055E0FEA3E0FF900059E0F52CA3E0F52DDE
:1011CD00C3E52C9EE52D9F500F900055EEC3952C39
:1011DD00F0EF952DA3F08011900055E4F0A3F08071
:1011ED0008900055EAF0EBA3F0900062E0FEA3E05A
:1011FD00FF900059E0F52CA3E0F52DAA2CAD2D158F
:10120D002C74FFB52C02152DEA4D6045900053E06E
:10121D00B40100E433F0900053E070140EBE0001F1
:10122D000F8E828F83E0C4540FFD90003BF0800E33
:10123D008E828F83E0FD53050F90003BEDF0900003
:10124D003BE0F582C007C0061208FCD006D007802F
:10125D00AA90004BE070030209CD900055E0FEA36B
:10126D00E0FF8E038F051EBEFF011FEB4D700302C5
:10127D0009CD758220C007C0061208C1D006D0075F
:10128D0080E08C821208C10209CD90003CE0FEA3E3
:10129D00E08E82F58322AA82AB831212DB6003A358
:1012AD0080F8C3E5829AF582E5839BF58322AA83B4
:1012BD00AB828BF0900064E0A4F8A9F08AF0E0A472
:1012CD0029F98BF0A3E0A429F5838882222220F747
:1012DD001430F6148883A88220F507E6A883758359
:0E12ED000022E280F7E49322E02275820022C4
:1012FB000A2050495420746573742073746172749E
:10130B0021000A205049543020696E746572727541
:10131B00707421000A205049543320696E74657231
:10132B007275707421003C4E4F20464C4F41543E19
:01133B0000B1
:040000030000009A5F
:00000001FF
