:0600000002000602014BA4
:0300060075812FD2
:0A000900120D04E5826003020003FB
:100013007900E94400601B7A00900D08785975A0B7
:1000230000E493F2A308B8000205A0D9F4DAF2754C
:02003300A0FF2C
:10003500E478FFF6D8FD7800E84400600A79017598
:10004500A000E4F309D8FC7858E84400600C790175
:0A005500900001E4F0A3D8FCD9FAF2
:03005F0002000399
:1000620043B30843B40843B31043B41075BE0DD272
:10007200C62280FE22E582900001F0D2C5C2C330C2
:10008200C3FD7408B5BD028003120074C2C575BCFD
:10009200A4C2C330C3FD7418B5BD0280031200743C
:1000A2007F00900001E0F5BCC2C330C3FD7428B5E7
:1000B200BD028007C007120074D007900001E0FE65
:1000C200F4F00FBF0A0040DAD2C4C2C320C4FD223A
:1000D200E582900002F0D2C5C2C330C3FD7408B5F8
:1000E200BD028003120074C2C575BCA5C2C330C371
:1000F200FD7440B5BD0280031200747F00D2C2C2FB
:10010200C330C3FD7450B5BD028007C0071200742E
:10011200D007900002E0FEB5BC028007C0071200C3
:1001220074D007900002E0FEF4F00FBF0A0040CD49
:10013200C2C2C2C330C3FD7458B5BD0280031200EF
:1001420074D2C4C2C320C4FD221200627582551249
:1001520000777582551200D280FE22AF83E582902D
:100162000003F0EFA3F0900003E0FEA3E0FF8E8215
:100172008F83E493A3E493F58222E582900005F055
:10018200E04480FF75C7AA75C7558F9F22E582900C
:100192000006F0E06005438702000022E58290003D
:1001A20007F0E060054387010000227F007E7F00A8
:1001B200DEFD0FBF1A0040F522E582900008F0E054
:1001C20024FF92AF22AF82AE83ADF0FC90000DEF20
:1001D200F0EEA3F0EDA3F0ECA3F0538EF75389F009
:1001E20043890190000DE0FCA3E0FDA3E0FEA3E043
:1001F200FF9000487440F07442A3F0740FA3F0E43F
:10020200A3F08C828D838EF0EF120BA4AC82AD83AF
:10021200AEF0FF90000BE0FAA3E0FB900055EAF08D
:10022200EBA3F0E4A3F0A3F08C828D838EF0EF12A7
:100232000C98AC82AD83AEF0FF900048740CF0E4F1
:10024200A3F0A3F0A3F08C828D838EF0EF120BA4A7
:10025200AC82AD83AEF0FF8C0374FFC39BFB74FFD3
:10026200C39C74FF9DFDE49EE49F8D07900009E00E
:10027200FDA3E0FEED4E60148B8A8F8CD28C108D24
:100282000280FBC28C1DBDFF011E80E822AF82AE40
:1002920083ADF0FC900015EFF0EEA3F0EDA3F0ECCF
:1002A200A3F0538EEF53890F438910900015E0FCA1
:1002B200A3E0FDA3E0FEA3E0FF9000487440F074C9
:1002C20042A3F0740FA3F0E4A3F08C828D838EF02E
:1002D200EF120BA4AC82AD83AEF0FF900013E0FAF4
:1002E200A3E0FB900055EAF0EBA3F0E4A3F0A3F047
:1002F2008C828D838EF0EF120C98AC82AD83AEF0BF
:10030200FF900048740CF0E4A3F0A3F0A3F08C82F9
:100312008D838EF0EF120BA4AC82AD83AEF0FF8C16
:100322000374FFC39BFB74FFC39C74FF9DFDE49E9B
:10033200E49F8D07900011E0FDA3E0FEED4E6014F6
:100342008B8B8F8DD28E108F0280FBC28E1DBDFFD4
:10035200011E80E822AF82AE83ADF0FC900021EF57
:10036200F0EEA3F0EDA3F0ECA3F07591009000196C
:10037200E0FEA3E0FF8E048F05BC0105BD000280F4
:1003820038BC0405BD00028035BC1005BD000280EA
:1003920035BC2005BD00028035BC4005BD00028091
:1003A20035BC8005BD00028035BC0005BD01028060
:1003B20035BC0040BD023D803553C98F803653C9DC
:1003C2008F43C910802E53C98F43C920802653C939
:1003D2008F43C930801E53C98F43C940801653C909
:1003E2008F43C950800E53C98F43C960800653C9D9
:1003F2008F43C970C2C843C98043C904900021E039
:10040200FAA3E0FBA3E0FCA3E0FD9000487440F0F7
:100412007442A3F0740FA3F0E4A3F08A828B838C5E
:10042200F0EDC007C006120BA485822485832585C2
:10043200F026F52790001DE0F8A3E0F9A3E0FCA365
:10044200E0FD900055E8F0E9A3F0ECA3F0EDA3F095
:100452008524828525838526F0E527120C98AA82B9
:10046200AB83ACF0FDD006D007900048EEF0EFA3CE
:10047200F0E4A3F0A3F08A828B838CF0ED120BA43C
:10048200AC82AD83AEF0FF8C03C3E49BFBE4C39C60
:10049200E49DFD74019EE49F8D0790001BE0FDA387
:1004A200E0FEED4E60148BCC8FCDD2CA10CF02800D
:1004B200FBC2CA1DBDFF011E80E822AF82AE83AD22
:1004C200F0FC90002CEFF0EEA3F0EDA3F0ECA3F023
:1004D200759100900025E0FFBF01028023BF020258
:1004E2008023BF04028026BF08028029BF10028039
:1004F2002CBF2002802FBF40028032BF803D80355A
:1005020053C4F8803653C4F843C401802E53C4F850
:1005120043C402802653C4F843C403801E53C4F864
:1005220043C404801653C4F843C405800E53C4F870
:1005320043C406800653C4F843C40790002CE0FB72
:10054200A3E0FCA3E0FDA3E0FE9000487440F07439
:1005520042A3F0740FA3F0E4A3F08B828C838DF09E
:10056200EEC007120BA485822885832985F02AF51F
:100572002B900028E0F8A3E0F9A3E0FAA3E0FE90B4
:100582000055E8F0E9A3F0EAA3F0EEA3F085288293
:10059200852983852AF0E52B120C98AB82AC83ADBA
:1005A200F0FED007900048EFF0E4A3F0A3F0A3F030
:1005B2008B828C838DF0EE120BA4AC82AD83AEF0F5
:1005C200FF8C03C3E49BFBE4C39CE49DFD74019E8A
:1005D200E49F8D07900026E0FDA3E0FEED4E6068EB
:1005E200A2AF9200C2AF75C7AA75C755759100A296
:1005F2000092AF53C4EF8BC58FC6A2AF9200C2AFB9
:1006020075C7AA75C755759100A20092AF43C40879
:10061200E5C430E4FBA2AF9200C2AF75C7AA75C7AA
:1006220055759100A20092AF53C4EFA2AF9200C2DF
:10063200AF75C7AA75C755759100A20092AF53C492
:10064200F71DBDFF011E8094A2AF9200C2AF75C715
:10065200AA75C755759100A20092AF53C4F722AF95
:1006620083E582900030F0EFA3F010990280FB90B6
:100672000030E0FEA3E08E997F008E828F832230CD
:1006820098FD900032E599F0C298900032E0F58230
:1006920022E582900033F0A2AF9200C2AF75C7AAE2
:1006A20075C755439F01A20092AF75910090003328
:1006B200E0FFBF0602800ABF0702800ABF080F8060
:1006C2000A75A638800875A630800375A63075A70E
:1006D2000075AF04A2AF9200C2AF75C7AA75C75525
:1006E20043A401A20092AFAEAEE5A604F5A6A2AF66
:1006F2009200C2AF75C7AA75C75543A401A2009262
:10070200AFADAEBF080280030207958E07EF2FFF41
:100712008D0474015C2FFF74C05FFC743F5FFBEFBC
:1007220024F2FF900034F075AF0C75A60175A70096
:10073200A2AFC2AFA2AF9200C2AF75C7AA75C7552A
:1007420043AA40A20092AF75C7AA75C75543A40138
:10075200A20092AF744BB5AE02800C7452B5AE02D9
:1007620080057453B5AE24BB0F005018BC40028004
:1007720008BC80028003BCC0128F04EC24F29000FB
:1007820034F08007EF24FC900034F0900034E0FF56
:10079200C313FE75C7AA75C7558E8475C7AA75C7D8
:1007A200558D85A2AF9200C2AF75C7AA75C75553C2
:1007B2009FFEA20092AF22E582900035F0E0FFBFDB
:1007C2000202800ABF03028013BF04568029758289
:1007D200021208257582021208948046758203125D
:1007E2000894A2AF9200C2AF75C7AA75C7555397B6
:1007F200DFA20092AF802B75820212082575820259
:10080200120894758204120825758204120894A2B3
:10081200AF9200C2AF75C7AA75C7555397DFA20042
:1008220092AF22E582900036F0E0FFBF020280051F
:10083200BF042A801AA2AF9200C2AF75C7AA75C7B9
:1008420055439720A20092AFE59620E51080F975F6
:10085200C7AA75C7554397C0E59630E3FB22E582E8
:10086200900037F0759100E0FFBF02028005BF04DF
:10087200208015A2AF9200C2AF75C7AA75C75553A3
:1008820097DFA20092AF800975C7AA75C755539723
:100892003F22E582900038F0759100A2AF9200C22B
:1008A200AF900038E0FFBF0202800ABF0302802D32
:1008B200BF04658050A2AF9200C2AF75C7AA75C7C8
:1008C200555396FBA20092AFA2AF9200C2AF75C77A
:1008D200AA75C7555396FDA20092AF803BA2AF9274
:1008E20000C2AF75C7AA75C755439604A20092AF5E
:1008F200A2AF9200C2AF75C7AA75C7555396FDA2A3
:100902000092AF8013A2AF9200C2AF75C7AA75C79B
:1009120055439608A20092AFA20092AF22AF82AED8
:1009220083ADF0FC900040EFF0EEA3F0EDA3F0EC0D
:10093200A3F090003BE0FF600FBF01030209D3BFA9
:100942000203020A7E020B0D7598504389204387E9
:1009520080438E10A2AF9200C2AF75C7AA75C75569
:10096200759100A20092AF53C4DF900040E0FCA357
:10097200E0FDA3E0FEA3E0FFEDC4CCC4540F6CCCB9
:10098200540FCC6CCCFDEEC454F04DFDEFC4CEC47C
:10099200540F6ECE540FCE6ECEFF90003CE0F8A303
:1009A200E0F9A3E0FAA3E0FB900048E8F0E9A3F045
:1009B200EAA3F0EBA3F08C828D838EF0EF120BA4EE
:1009C200AC82AD83AEF0FFC3E49CF58DD28E020BF8
:1009D2000D75985043878053C4F8A2AF9200C2AFFE
:1009E20075C7AA75C755759100A20092AF43C4207E
:1009F200900040E0FCA3E0FDA3E0FEA3E0FFEDC415
:100A0200CCC4540F6CCC540FCC6CCCFDEEC454F05F
:100A12004DFDEFC4CEC4540F6ECE540FCE6ECEFF3A
:100A220090003CE0F8A3E0F9A3E0FAA3E0FB900019
:100A320048E8F0E9A3F0EAA3F0EBA3F08C828D83FF
:100A42008EF0EF120BA4AC82AD83AEF0FFE4C39C38
:100A5200F8E49DF974019EFAE49FFB89C6C3E49C05
:100A6200FC8CC5A2AF9200C2AF75C7AA75C75575F7
:100A72009100A20092AF43C408020B0D75F85075A5
:100A8200C480900040E0FCA3E0FDA3E0FEA3E0FFF1
:100A9200EDC4CCC4540F6CCC540FCC6CCCFDEEC462
:100AA20054F04DFDEFC4CEC4540F6ECE540FCE6E33
:100AB200CEFF90003CE0F8A3E0F9A3E0FAA3E0FB4C
:100AC200900048E8F0E9A3F0EAA3F0EBA3F08C82EF
:100AD2008D838EF0EF120BA4AC82AD83AEF0FFE4F7
:100AE200C39CF8E49DF974019EFAE49FFB89C6C396
:100AF200E49CFC8CC5A2AF9200C2AF75C7AA75C7B1
:100B020055759100A20092AF43C40822E58290007D
:100B120044F0900045E4F0900044E0FF6005BF011E
:100B22001A800D3098FD900045E599F0C298800B2F
:100B320030F8FD900045E59AF0C2F8900045E0F5E6
:100B42008222E582900047F0E0FF6005BF01268027
:100B520011C2AC900046E0F59910990280FBD2AC2C
:100B62008013539CFE900046E0F59A10F90280FB38
:100B7200439C01D2AF2253B1BF53B2BF90003BE4BA
:100B8200F090003CF074C2A3F07401A3F0E4A3F06F
:100B920090360075F06E740112091FD299D201C20B
:100BA200AC22AF82AE83ADF0FC90004CEFF0EEA32E
:100BB200F0EDA3F0ECA3F0900050E4F0A3F0A3F06A
:100BC200A3F0900048E0FCA3E0FDA3E0FEA3E0FF59
:100BD2007B20C00390004CE0F8A3E0F9A3E0FAA365
:100BE200E0FB900054235401F0E828F8E933F9EAD5
:100BF20033FAEB33FB90004CE8F0E9A3F0EAA3F000
:100C0200EBA3F0900050E0F8A3E0F9A3E0FAA3E030
:100C1200FBE828F8E933F9EA33FAEB33FB900050AA
:100C2200E8F0E9A3F0EAA3F0EBA3F0D003900054BC
:100C3200E06008900050E043E001F0900050E0F5E1
:100C42002CA3E0F52DA3E0F52EA3E0F52FC3E52CB0
:100C52009CE52D9DE52E9EE52F9F401F900050E5BF
:100C62002CC39CF0E52D9DA3F0E52E9EA3F0E52F6D
:100C72009FA3F090004CE043E001F01BEB60030205
:100C82000BD490004CE0FCA3E0FDA3E0FEA3E08CBB
:100C9200828D838EF022A882A983AAF0FB88F0902D
:100CA2000055E0A4FCADF089F0E0A42DFDE435F0A0
:100CB200FE88F0A3E0A42DFDE5F03EFEE433FF89BB
:100CC200F0E0A42EFEE5F03FFF88F0A3E0A42EFEA4
:100CD200E5F03FFF8AF0900055E0A42EFEE5F03FDC
:100CE200FF8BF0E0A42FFF8AF0A3E0A42FFF89F08E
:100CF200A3E0A42FFF88F0A3E0A42F8EF08D838CB5
:060D02008222758200222E
:040000030000005F9A
:00000001FF
