:060000000200060200628E
:0300060075813AC7
:0A000900121942E5826003020003B1
:100013007900E94400601B7A009019F4789775A081
:1000230000E493F2A308B8000205A0D9F4DAF2754C
:02003300A0FF2C
:10003500E478FFF6D8FD7800E84400600A79017598
:10004500A000E4F309D8FC7896E84400600C790137
:0A005500900001E4F0A3D8FCD9FAF2
:03005F0002000399
:1000620075820612081B120D007446C0E07419C096
:10007200E07480C0E0120EDA158115811581A2AFFD
:100082009200C2AF75C7AA75C755759100A20092BA
:10009200AF53E1FE53E8F043E80443B12053B2DF2B
:1000A20075F60043F610A2AF9200C2AF75C7AA75EB
:1000B200C755759100A20092AF43E101A2AF920031
:1000C200C2AF75C7AA75C755759100A20092AFC29B
:1000D200EF9000047405F075820112021290000183
:1000E20074FFF07403A3F07582011201B6A2AF92FD
:1000F20000C2AF75C7AA75C755759100A20092AF2D
:10010200C2EFA2AF9200C2AF75C7AA75C75575916B
:1001120000A20092AFD2EE30EF417471C0E07419C8
:10012200C0E07480C0E0120EDA158115811581A23B
:10013200AF9200C2AF75C7AA75C755759100A200EC
:1001420092AFC2EFA2AF9200C2AF75C7AA75C755F0
:10015200759100A20092AFD2EE8036E5E230E4174C
:10016200749AC0E07419C0E07480C0E0120EDA150F
:100172008115811581801AE5E220E41574C3C0E07F
:100182007419C0E07480C0E0120EDA158115811571
:100192008190000D74F4F07401A3F090000F74E8E4
:1001A200F07403A3F090360075F06E74011203240C
:1001B20002011922E582900003F07591009000017E
:1001C200E0FEA3E0FF8E05740F5DF5CEEFC4CEC452
:1001D200540F6ECE540FCE6ECE8ECF900003E060E1
:1001E20018A2AF9200C2AF75C7AA75C75575910024
:1001F200A20092AF43E2208016A2AF9200C2AF7576
:10020200C7AA75C755759100A20092AF53E2DF22CB
:10021200E582900005F075910053E18F900005E0B2
:100222005407C454F042E153E2F1900004E0540751
:1002320025E042E222A2AF9200C2AF75C7AA75C7FB
:1002420055439F01A20092AF75AF0475A60D75A725
:1002520000A2AF9200C2AF75C7AA75C75543A401E9
:10026200A20092AFE5AE540FFF75A60C75A700A2CF
:10027200AF9200C2AF75C7AA75C75543A401A200C9
:1002820092AF900006E5AEF0E0FEE4C454F0CEC4B6
:10029200CE6ECE54F0CE6EFD7C00EF2EFEEC3DFD18
:1002A200A2AF9200C2AF75C7AA75C755539FFEA2EF
:1002B2000092AF8E828D8322AF83E582900007F099
:1002C200EFA3F0900007E0FEA3E0FF8E828F83E4AD
:1002D20093A3E493F58222E582900009F0E0448042
:1002E200FF75C7AA75C7558F9F22E58290000AF055
:1002F200E06005438702000022E58290000BF0E0F7
:1003020060054387010000227F007E7F00DEFD0F33
:10031200BF1A0040F522E58290000CF0E024FF9223
:10032200AF22AF82AE83ADF0FC900011EFF0EEA3EE
:10033200F0EDA3F0ECA3F0538EF75389F04389015B
:10034200900011E0FCA3E0FDA3E0FEA3E0FF90001B
:100352004D7440F07442A3F0740FA3F0E4A3F08C48
:10036200828D838EF0EF120D2CAC82AD83AEF0FF46
:1003720090000FE0FAA3E0FB90005AEAF0EBA3F042
:10038200E4A3F0A3F08C828D838EF0EF120E20ACEA
:1003920082AD83AEF0FF90004D740CF0E4A3F0A3A5
:1003A200F0A3F08C828D838EF0EF120D2CAC82AD17
:1003B20083AEF0FF8C0374FFC39BFB74FFC39C747A
:1003C200FF9DFDE49EE49F8D0790000DE0FDA3E0FC
:1003D200FEED4E60148B8A8F8CD28C108D0280FBC6
:1003E200C28C1DBDFF011E80E822AF82AE83ADF03C
:1003F200FC900019EFF0EEA3F0EDA3F0ECA3F053A4
:100402008EEF53890F438910900019E0FCA3E0FDA1
:10041200A3E0FEA3E0FF90004D7440F07442A3F00D
:10042200740FA3F0E4A3F08C828D838EF0EF120D93
:100432002CAC82AD83AEF0FF900017E0FAA3E0FB94
:1004420090005AEAF0EBA3F0E4A3F0A3F08C828DC3
:10045200838EF0EF120E20AC82AD83AEF0FF9000DF
:100462004D740CF0E4A3F0A3F0A3F08C828D838E84
:10047200F0EF120D2CAC82AD83AEF0FF8C0374FF53
:10048200C39BFB74FFC39C74FF9DFDE49EE49F8DA0
:1004920007900015E0FDA3E0FEED4E60148B8B8FFC
:1004A2008DD28E108F0280FBC28E1DBDFF011E8079
:1004B200E822AF82AE83ADF0FC900025EFF0EEA310
:1004C200F0EDA3F0ECA3F075910090001DE0FEA307
:1004D200E0FF8E048F05BC0105BD00028038BC041C
:1004E20005BD00028035BC1005BD00028035BC2070
:1004F20005BD00028035BC4005BD00028035BC80D0
:1005020005BD00028035BC0005BD01028035BC007E
:1005120040BD023D803553C98F803653C98F43C9D0
:1005220010802E53C98F43C920802653C98F43C9D7
:1005320030801E53C98F43C940801653C98F43C9A7
:1005420050800E53C98F43C960800653C98F43C977
:1005520070C2C843C98043C904900025E0FAA3E0F1
:10056200FBA3E0FCA3E0FD90004D7440F07442A3B5
:10057200F0740FA3F0E4A3F08A828B838CF0EDC0B9
:1005820007C006120D2C85822485832585F026F569
:1005920027900021E0F8A3E0F9A3E0FCA3E0FD909E
:1005A200005AE8F0E9A3F0ECA3F0EDA3F085248271
:1005B2008525838526F0E527120E20AA82AB83AC1F
:1005C200F0FDD006D00790004DEEF0EFA3F0E4A3CB
:1005D200F0A3F08A828B838CF0ED120D2CAC82ADED
:1005E20083AEF0FF8C03C3E49BFBE4C39CE49DFD5C
:1005F20074019EE49F8D0790001FE0FDA3E0FEEDD5
:100602004E60148BCC8FCDD2CA10CF0280FBC2CAEF
:100612001DBDFF011E80E822AF82AE83ADF0FC90CB
:100622000030EFF0EEA3F0EDA3F0ECA3F075910033
:10063200900029E0FFBF01028023BF02028023BF96
:1006420004028026BF08028029BF1002802CBF202E
:1006520002802FBF40028032BF803D803553C4F8F4
:10066200803653C4F843C401802E53C4F843C402F5
:10067200802653C4F843C403801E53C4F843C40401
:10068200801653C4F843C405800E53C4F843C4060D
:10069200800653C4F843C407900030E0FBA3E0FC9B
:1006A200A3E0FDA3E0FE90004D7440F07442A3F07D
:1006B200740FA3F0E4A3F08B828C838DF0EEC0075D
:1006C200120D2C85822885832985F02AF52B90002E
:1006D2002CE0F8A3E0F9A3E0FAA3E0FE90005AE8C8
:1006E200F0E9A3F0EAA3F0EEA3F08528828529833E
:1006F200852AF0E52B120E20AB82AC83ADF0FED042
:100702000790004DEFF0E4A3F0A3F0A3F08B828CEE
:10071200838DF0EE120D2CAC82AD83AEF0FF8C0314
:10072200C3E49BFBE4C39CE49DFD74019EE49F8DA6
:100732000790002AE0FDA3E0FEED4E6068A2AF92B2
:1007420000C2AF75C7AA75C755759100A20092AFD6
:1007520053C4EF8BC58FC6A2AF9200C2AF75C7AAB2
:1007620075C755759100A20092AF43C408E5C43025
:10077200E4FBA2AF9200C2AF75C7AA75C7557591C7
:1007820000A20092AF53C4EFA2AF9200C2AF75C7EE
:10079200AA75C755759100A20092AF53C4F71DBD4B
:1007A200FF011E8094A2AF9200C2AF75C7AA75C79F
:1007B20055759100A20092AF53C4F722E5829000D2
:1007C20034F0E0FF24FC401EEF2F9007D073800628
:1007D2008008800A800DD2A9800CD2AB8008439B8E
:1007E200808003439C0222AF83E582900035F0EFC4
:1007F200A3F010990280FB900035E0FEA3E08E99F1
:100802007F008E828F83223098FD900037E599F029
:10081200C298900037E0F58222E582900038F0A27B
:10082200AF9200C2AF75C7AA75C755439F01A20018
:1008320092AF759100900038E0FFBF0602800ABFB8
:100842000702800ABF080F800A75A638800875A6BD
:1008520030800375A63075A70075AF04A2AF920071
:10086200C2AF75C7AA75C75543A401A20092AFAE25
:10087200AEE5A604F5A6A2AF9200C2AF75C7AA75EF
:10088200C75543A401A20092AFADAEBF08028003D8
:1008920002091D8E07EF2FFF8D0474015C2FFF7478
:1008A200C05FFC743F5FFBEF24F2FF900039F075EC
:1008B200AF0C75A60175A700A2AFC2AFA2AF92009E
:1008C200C2AF75C7AA75C75543AA40A20092AF75B9
:1008D200C7AA75C75543A401A20092AF744BB5AE27
:1008E20002800C7452B5AE0280057453B5AE24BBBF
:1008F2000F005018BC40028008BC80028003BCC0BC
:10090200128F04EC24F2900039F08007EF24FC905F
:100912000039F0900039E0FFC313FE75C7AA75C70E
:10092200558E8475C7AA75C7558D85A2AF9200C230
:10093200AF75C7AA75C755539FFEA20092AF22E5B5
:100942008290003AF0E0FFBF0202800ABF030280F9
:1009520013BF045680297582021209AD75820212F4
:100962000A1C8046758203120A1CA2AF9200C2AF13
:1009720075C7AA75C7555397DFA20092AF802B7532
:1009820082021209AD758202120A1C7582041209D2
:10099200AD758204120A1CA2AF9200C2AF75C7AA3B
:1009A20075C7555397DFA20092AF22E58290003BB4
:1009B200F0E0FFBF02028005BF042A801AA2AF92B4
:1009C20000C2AF75C7AA75C755439720A20092AF60
:1009D200E59620E51080F975C7AA75C7554397C0FB
:1009E200E59630E3FB22E58290003CF0759100E051
:1009F200FFBF02028005BF04208015A2AF9200C291
:100A0200AF75C7AA75C7555397DFA20092AF800989
:100A120075C7AA75C75553973F22E58290003DF0EE
:100A2200759100A2AF9200C2AF90003DE0FFBF02FD
:100A320002800ABF0302802DBF04658050A2AF92DC
:100A420000C2AF75C7AA75C7555396FBA20092AFF5
:100A5200A2AF9200C2AF75C7AA75C7555396FDA241
:100A62000092AF803BA2AF9200C2AF75C7AA75C712
:100A720055439604A20092AFA2AF9200C2AF75C7CF
:100A8200AA75C7555396FDA20092AF8013A2AF92EA
:100A920000C2AF75C7AA75C755439608A20092AFA8
:100AA200A20092AF22AF82AE83ADF0FC900045EF80
:100AB200F0EEA3F0EDA3F0ECA3F0900040E0FF60B5
:100AC2000FBF0103020B5BBF0203020C06020C956F
:100AD200759850438920438780438E10A2AF9200BD
:100AE200C2AF75C7AA75C755759100A20092AF53E0
:100AF200C4DF900045E0FCA3E0FDA3E0FEA3E0FF1D
:100B0200EDC4CCC4540F6CCC540FCC6CCCFDEEC4F1
:100B120054F04DFDEFC4CEC4540F6ECE540FCE6EC2
:100B2200CEFF900041E0F8A3E0F9A3E0FAA3E0FBD6
:100B320090004DE8F0E9A3F0EAA3F0EBA3F08C8279
:100B42008D838EF0EF120D2CAC82AD83AEF0FFC31D
:100B5200E49CF58DD28E020C957598504387805394
:100B6200C4F8A2AF9200C2AF75C7AA75C7557591F6
:100B720000A20092AF43C420900045E0FCA3E0FD38
:100B8200A3E0FEA3E0FFEDC4CCC4540F6CCC540F21
:100B9200CC6CCCFDEEC454F04DFDEFC4CEC4540F6A
:100BA2006ECE540FCE6ECEFF900041E0F8A3E0F976
:100BB200A3E0FAA3E0FB90004DE8F0E9A3F0EAA37A
:100BC200F0EBA3F08C828D838EF0EF120D2CAC82B1
:100BD200AD83AEF0FFE4C39CF8E49DF974019EFA84
:100BE200E49FFB89C6C3E49CFC8CC5A2AF9200C201
:100BF200AF75C7AA75C755759100A20092AF43C4DD
:100C020008020C9575F85075C480900045E0FCA36D
:100C1200E0FDA3E0FEA3E0FFEDC4CCC4540F6CCC16
:100C2200540FCC6CCCFDEEC454F04DFDEFC4CEC4D9
:100C3200540F6ECE540FCE6ECEFF900041E0F8A35B
:100C4200E0F9A3E0FAA3E0FB90004DE8F0E9A3F09D
:100C5200EAA3F0EBA3F08C828D838EF0EF120D2CC1
:100C6200AC82AD83AEF0FFE4C39CF8E49DF974015D
:100C72009EFAE49FFB89C6C3E49CFC8CC5A2AF929A
:100C820000C2AF75C7AA75C755759100A20092AF91
:100C920043C40822E582900049F090004AE4F090B3
:100CA2000049E0FF6005BF011A800D3098FD9000F9
:100CB2004AE599F0C298800B30F8FD90004AE59A17
:100CC200F0C2F890004AE0F58222E58290004CF0F2
:100CD200E0FF6005BF01268011C2AC90004BE0F539
:100CE2009910990280FBD2AC8013539CFE90004B6A
:100CF200E0F59A10F90280FB439C01D2AF2253B176
:100D0200BF53B2BF900040E4F0900041F074C2A320
:100D1200F07401A3F0E4A3F090360075F06E740154
:100D2200120AA7D299D201C2AC22AF82AE83ADF031
:100D3200FC900051EFF0EEA3F0EDA3F0ECA3F090E5
:100D42000055E4F0A3F0A3F0A3F090004DE0FCA363
:100D5200E0FDA3E0FEA3E0FF7B20C003900051E092
:100D6200F8A3E0F9A3E0FAA3E0FB900059235401B1
:100D7200F0E828F8E933F9EA33FAEB33FB90005153
:100D8200E8F0E9A3F0EAA3F0EBA3F0900055E0F855
:100D9200A3E0F9A3E0FAA3E0FBE828F8E933F9EAD3
:100DA20033FAEB33FB900055E8F0E9A3F0EAA3F045
:100DB200EBA3F0D003900059E06008900055E043A7
:100DC200E001F0900055E0F537A3E0F538A3E0F537
:100DD20039A3E0F53AC3E5379CE5389DE5399EE550
:100DE2003A9F401F900055E537C39CF0E5389DA31C
:100DF200F0E5399EA3F0E53A9FA3F0900051E0435D
:100E0200E001F01BEB6003020D5C900051E0FCA3DB
:100E1200E0FDA3E0FEA3E08C828D838EF022A88207
:100E2200A983AAF0FB88F090005AE0A4FCADF089F7
:100E3200F0E0A42DFDE435F0FE88F0A3E0A42DFD42
:100E4200E5F03EFEE433FF89F0E0A42EFEE5F03F3C
:100E5200FF88F0A3E0A42EFEE5F03FFF8AF09000A9
:100E62005AE0A42EFEE5F03FFF8BF0E0A42FFF8AAC
:100E7200F0A3E0A42FFF89F0A3E0A42FFF88F0A342
:100E8200E0A42F8EF08D838C8222C0368581367E3F
:100E9200008E831207E9D03622AFF0AE83E582904E
:100EA200005FF0EEA3F0EFA3F090005FE0FDA3E09F
:100EB200FEA3E0FF90005EE0FC900073E4F0A3F07C
:100EC200A3F0900076EDF0EEA3F0EFA3F09000799E
:100ED200ECF0900E8C020FE0C036E581F53624FB73
:100EE200FF900073E4F0A3F0A3F0E53624FBF89042
:100EF2000076E6F008E6A3F008E6A3F0900079EFAA
:100F0200F0900E8C120FE0D03622E58290006FF046
:100F1200E0FF900065E0C0E0A3E0C0E0A3E0C0E035
:100F2200120F27800D900063E0C0E0A3E0C0E08FC5
:100F3200822215811581158190006DE02401F0A3B4
:100F4200E03400F022E582900070F0E02430FF24CB
:100F5200C6500D74072FFF900062E0600343072024
:100F62008F82020F0CE582900071F0E0FFC4540FF3
:100F7200F582C007120F47D00753070F8F82020F67
:100F820047E582900072F0900068E0FCA3E0FDA3C8
:100F9200E0FEA3E0FF90006CE0FB900072E0FA79C3
:100FA200208B00E828F537EF2354014537FBEC2C62
:100FB200FCED33FDEE33FEEF33FFC3EB9A4007EB5C
:100FC200C39AFB43040119E970D7900068ECF0ED75
:100FD200A3F0EEA3F0EFA3F090006CEBF022AF834E
:100FE200E58290007AF0EFA3F090007AE0FEA3E0B1
:100FF200FF900063EEF0EFA3F0900073E0FDA3E03A
:10100200FEA3E0FF900065EDF0EEA3F0EFA3F090F9
:10101200006DE4F0A3F0900076E0FDA3E0FEA3E013
:10102200FF8D828E838FF0121926FC900076740158
:101032002DF0E43EA3F0EFA3F0EC70030218E2BC43
:10104200250280030218DA90007CE4F090007DF023
:1010520090007EF090007FF0900080F0900081F090
:10106200900082F0900083F0900085F0900086F06E
:10107200A3F090008814F0A3F0900076E0FDA3E0C6
:10108200FEA3E0FF8D828E838FF0121926FBA3ADA3
:1010920082AE83900076EDF0EEA3F0EFA3F0900025
:1010A2008CEBF0BB25088B82120F0C021018BB30A0
:1010B200005003021179EB24C6500302117990000B
:1010C20088E0F52CA3E0F52D74FFB52C63B52D60F7
:1010D200C005C006C007900086E0FAA3E0FF9000BA
:1010E20095EAF0EFA3F090000AC005C003121906BA
:1010F200AE82AF83D003D0058B027D00EA2EFEEDD7
:101102003FFFEE24D0FEEF34FFFF900086EEF0EFBB
:10111200A3F0D007D006D005900086E0F5F0A3E05A
:1011220045F0600302108690007D7401F002108683
:10113200C005C006C007900095E52CF0E52DA3F090
:1011420090000AC006C005C003121906AA82AF8326
:10115200D003D005D0067E00EB2AFAEE3FFFEA2448
:10116200D0FAEF34FFFF900088EAF0EFA3F0D00747
:10117200D006D00502108690008CE0FBBB2E2FC05B
:1011820005C006C007900088E0FAA3E0FFBAFF0599
:10119200BFFF028009D007D006D005021086D00713
:1011A200D006D005900088E4F0A3F0021086BB615F
:1011B200004014EB2485400F90008C74DF5BF090AC
:1011C20000627401F08005900062E4F090008CE00F
:1011D200FBBB20028075BB2B028067BB2D028059AE
:1011E200BB4202806FBB4302807CBB44030214708B
:1011F200BB4603021496BB4803021086BB49030296
:101202001470BB4A03021086BB4C028050BB4F03D2
:1012120002147EBB50030213DEBB53028077BB5421
:1012220003021086BB5503021486BB580302148EB8
:10123200BB5A0302108602149E90007C7401F002D5
:10124200108690007E7401F002108690007F740177
:10125200F00210869000817401F0021086900082E4
:101262007401F0021086900081E0600E900079E037
:1012720014F9F090008CE7F0800F900079E024FEE2
:10128200FFF08F0190008CE7F090008CE0F5821265
:101292000F0C0214AD900079E024FDFFF08F01875E
:1012A200050987060987071919900068EDF0EEA372
:1012B200F0EFA3F08D828E838FF01218EE85822CD0
:1012C20085832D900088E0FAA3E0FDBAFF0DBDFFF3
:1012D2000A900088E52CF0E52DA3F090007CE070E8
:1012E2004B900086E0FAA3E0FDC3E52C9AE52D9D24
:1012F200503A900086EAC3952CF0ED952DA3F0901C
:101302000086E0FAA3E0FD8A068D071ABAFF011DE6
:10131200EE4F6010758220C005C002120F0CD00281
:10132200D00580E3900086EAF0EDA3F0900088E01B
:10133200F52FA3E0F530900068E0FAA3E0FDA3E00A
:10134200FF8A828D838FF0121926F52E603CC3E44A
:10135200952F74808530F063F08095F0502C152F16
:1013620074FFB52F021530852E82120F0C90006883
:10137200E0FAA3E0FDA3E0FF0ABA00010D900068C5
:10138200EAF0EDA3F0EFA3F080AC90007CE07003F4
:101392000214AD900086E0FEA3E0FFC3E52C9EE5BB
:1013A2002D9F40030214AD900086EEC3952CF0EF02
:1013B200952DA3F0900086E0FEA3E0FF8E028F053C
:1013C2001EBEFF011FEA4D70030214A5758220C0E4
:1013D20007C006120F0CD006D00780E0900079E01B
:1013E20024FDFDF08D0187310987320987331919F0
:1013F200900068E531F0E532A3F0E533A3F0900008
:101402006AE0FDBD8000400890008C7443F08020AB
:10141200BD6000400890008C7450F08013BD400005
:10142200400890008C7449F0800690008C7458F04B
:1014320090008CE0FDF582C005120F0C75823A1205
:101442000F0C758230120F0C758278120F0CD005BA
:10145200BD4902800EBD50028009900069E0F5820C
:10146200120F67900068E0F582120F67803D9000CE
:10147200807401F0900085740AF0802F90008574CA
:1014820008F08027900085740AF0801F9000857410
:1014920010F080179000837401F0800F8B82120F7E
:1014A2000C8008900086EEF0EFA3F0900083E060DD
:1014B20071900079E024FCFFF08F01870309870512
:1014C200098706098707191919900068EBF0EDA33F
:1014D200F0EEA3F0EFA3F090006874E9F07419A3A2
:1014E200F07480A3F0900068E0F531A3E0F532A338
:1014F200E0F53374012531FAE43532FBAF33900065
:1015020068EAF0EBA3F0EFA3F085318285328385A0
:1015120033F0121926FF70030210188F82120F0C7B
:1015220080C3900085E07003021018900081E06093
:1015320047900079E014F9F087077E007D007B0078
:10154200900068EFF0EEA3F0EDA3F0EBA3F09000B3
:1015520080E060030215F0900068E0FBA3E0A3E0E6
:10156200A3E07D007E007F00900068EBF0EDA3F029
:10157200EEA3F0EFA3F08076900082E06028900066
:1015820079E024FCFFF08F018703098705098706AC
:10159200098707191919900068EBF0EDA3F0EEA383
:1015A200F0EFA3F08048900079E024FEFFF08F0175
:1015B200870609870719EF3395E0FDFB900068EE77
:1015C200F0EFA3F0EDA3F0EBA3F0900080E0701E2B
:1015D200900068E0FBA3E0FDA3E0A3E07E007F00B3
:1015E200900068EBF0EDA3F0EEA3F0EFA3F0900013
:1015F20080E06041900068E0FBA3E0FDA3E0FEA371
:10160200E0FF30E72B900068E0FBA3E0FDA3E0FEE3
:10161200A3E0FFC3E49BFBE49DFDE49EFEE49FFF89
:10162200900068EBF0EDA3F0EEA3F0EFA3F08005DD
:10163200900080E4F09000847401F0900085E0F561
:101642002F753492753500E4F52CF52D90006CE47D
:10165200F0852F82120F83900084E0703390006C2B
:10166200E0C454F0F53190006CE0C4540F4531F5FC
:1016720031853482853583E0FFE531420785348246
:10168200853583EFF0153474FFB534021535800CBF
:1016920090006CE0FF853482853583F0052CE4B53B
:1016A2002C02052D900084E0B40100E433F0900098
:1016B20068E0FAA3E0FBA3E0FEA3E0FFEA4B4E4F93
:1016C200708A900093E534F0E535A3F090008AE546
:1016D2002CF0E52DA3F0900086E0F5F0A3E045F0B4
:1016E20070099000867401F0E4A3F090007DE0FFA1
:1016F200E0704790007CE07041852C34852D359058
:101702000086E0FAA3E0FBC007AF340F8F067F002C
:10171200C3EE9AEF9BD0075019758220C007C00311
:10172200C002120F0CD002D003D0071ABAFF011B5D
:1017320080D5900086EAF0EBA3F0900080E0602074
:1017420075822DC007120F0CD007900086E024FF8F
:10175200FDA3E034FFFE900086EDF0EEA3F080568C
:1017620090008AE0F5F0A3E045F0604A90007EE048
:10177200602075822BC007120F0CD007900086E004
:1017820024FFFDA3E034FFFE900086EDF0EEA3F00F
:10179200802490007FE0601E758220C007120F0C2B
:1017A200D007900086E024FFFDA3E034FFFE900006
:1017B20086EDF0EEA3F090007CE0704890008AE0A5
:1017C200F534A3E0F535900086E0FAA3E0FBC0070C
:1017D2008A068B071ABAFF011BC3E5349EE5359FC3
:1017E200D0075053EF60067D307E0080047D207E5E
:1017F200008D82C007C003C002120F0CD002D003BA
:10180200D00780CA900086E0FEA3E0FF90008AE045
:10181200F534A3E0F535C3E5349EE5359F500F90CE
:101822000086EEC39534F0EF9535A3F08011900059
:1018320086E4F0A3F08008900086EAF0EBA3F09033
:101842000093E0FEA3E0FF90008AE0F534A3E0F508
:1018520035AA34AD35153474FFB534021535EA4D69
:101862006045900084E0B40100E433F0900084E02D
:1018720070140EBE00010F8E828F83E0C4540FFDE0
:1018820090006CF0800E8E828F83E0FD53050F90E6
:10189200006CEDF090006CE0F582C007C006120FFC
:1018A20047D006D00780AA90007CE070030210188F
:1018B200900086E0FEA3E0FF8E038F051EBEFF01AF
:1018C2001FEB4D7003021018758220C007C006126C
:1018D2000F0CD006D00780E08C82120F0C02101879
:1018E20090006DE0FEA3E08E82F58322AA82AB8394
:1018F2001219266003A380F8C3E5829AF582E58374
:101902009BF58322AA83AB828BF0900095E0A4F82A
:10191200A9F08AF0E0A429F98BF0A3E0A429F583C9
:101922008882222220F71430F6148883A88220F5B8
:1019320007E6A88375830022E280F7E49322E0227F
:041942007582002288
:101946000A2041444320636F6D70617265206D6F9C
:10195600646520666F72204D473531207465737457
:101966002073746172742E2E2E20000A204D473586
:10197600312041444320636F6D706172652076614A
:101986006C75652073616D65206173207365747471
:10199600696E67000A204144432076616C756520B4
:1019A60067726561746572207468616E20636F6D1D
:1019B600617072652073657474696E67000A2041F0
:1019C60044432076616C7565206C6573732074687A
:1019D600616E20636F6D61707265207365747469E2
:0E19E6006E67003C4E4F20464C4F41543E0071
:040000030000005F9A
:00000001FF
