:100000000200613200000000000000320000000029
:10001000000000320000000000000032000000007C
:10002000000000320000000000000032000000006C
:10003000000000320000000000000032000000005C
:10004000000000320000000000000032000000004C
:1000500000000032000000000000000200BD0200AD
:01006000F7A8
:0300610075813274
:0A0064001212D9E582600302005E6B
:10006E007900E94400601B7A009012F9786575A05A
:10007E0000E493F2A308B8000205A0D9F4DAF275F1
:02008E00A0FFD1
:10009000E478FFF6D8FD7800E84400600A7901753D
:1000A000A000E4F309D8FC7864E84400600C79010E
:0A00B000900001E4F0A3D8FCD9FA97
:0300BA0002005EE3
:1000BD00C0E0C0D0859123A2AF9200C2AF75C7AA90
:1000CD0075C755759100A20092AFC2EFB285E523B9
:1000DD006013A2AF9200C2AF75C7AA75C7557591CF
:1000ED0001A20092AFD0D0D0E03253B1DF53B2DFD6
:1000FD0075820612021E12070374DDC0E07412C071
:10010D00E07480C0E012087115811581158143DE00
:10011D0001A2AF9200C2AF75C7AA75C75575910000
:10012D00A20092AF53E1FE53E8F085E8E843B380B7
:10013D0053B47F75F60043F601A2AF9200C2AF75BE
:10014D00C7AA75C755759100A20092AF43E101533F
:10015D00E8CF85E8E853E1F385E1E143E10275D1AC
:10016D000775D9FF75D20275DAFFD2DED2DFD2AEB6
:10017D00D2AF80FE22AF83E582900001F0EFA3F0B5
:10018D00900001E0FEA3E0FF8E828F83E493A3E451
:10019D0093F58222E582900003F0E04480FF75C75D
:1001AD00AA75C7558F9F22E582900004F0E0600587
:1001BD00438702000022E582900005F0E0600543D0
:1001CD0087010000227F007E7F00DEFD0FBF1A0039
:1001DD0040F522E582900006F0E024FF92AF22AFB9
:1001ED0083E582900007F0EFA3F010990280FB9059
:1001FD000007E0FEA3E08E997F008E828F83223070
:10020D0098FD900009E599F0C298900009E0F582FB
:10021D0022E58290000AF0A2AF9200C2AF75C7AA84
:10022D0075C755439F01A20092AF75910090000ACA
:10023D00E0FFBF0602800ABF0702800ABF080F80D9
:10024D000A75A638800875A630800375A63075A787
:10025D000075AF04A2AF9200C2AF75C7AA75C7559E
:10026D0043A401A20092AFAEAEE5A604F5A6A2AFDF
:10027D009200C2AF75C7AA75C75543A401A20092DB
:10028D00AFADAEBF080280030203208E07EF2FFF34
:10029D008D0474015C2FFF74C05FFC743F5FFBEF36
:1002AD0024F2FF90000BF075AF0C75A60175A70039
:1002BD00A2AFC2AFA2AF9200C2AF75C7AA75C755A4
:1002CD0043AA40A20092AF75C7AA75C75543A401B2
:1002DD00A20092AF744BB5AE02800C7452B5AE0253
:1002ED0080057453B5AE24BB0F005018BC4002807E
:1002FD0008BC80028003BCC0128F04EC24F2900075
:10030D000BF08007EF24FC90000BF090000BE0FF4A
:10031D00C313FE75C7AA75C7558E8475C7AA75C751
:10032D00558D85A2AF9200C2AF75C7AA75C755533B
:10033D009FFEA20092AF22E58290000CF0E0FFBF7D
:10034D000202800ABF03028013BF04568029758202
:10035D00021203B075820212041F804675820312C9
:10036D00041FA2AF9200C2AF75C7AA75C7555397A8
:10037D00DFA20092AF802B7582021203B07582024C
:10038D0012041F7582041203B075820412041FA299
:10039D00AF9200C2AF75C7AA75C7555397DFA200BC
:1003AD0092AF22E58290000DF0E0FFBF02028005C2
:1003BD00BF042A801AA2AF9200C2AF75C7AA75C733
:1003CD0055439720A20092AFE59620E51080F97570
:1003DD00C7AA75C7554397C0E59630E3FB22E58262
:1003ED0090000EF0759100E0FFBF02028005BF0482
:1003FD00208015A2AF9200C2AF75C7AA75C755531D
:10040D0097DFA20092AF800975C7AA75C75553979C
:10041D003F22E58290000FF0759100A2AF9200C2CD
:10042D00AF90000FE0FFBF0202800ABF0302802DD4
:10043D00BF04658050A2AF9200C2AF75C7AA75C741
:10044D00555396FBA20092AFA2AF9200C2AF75C7F3
:10045D00AA75C7555396FDA20092AF803BA2AF92ED
:10046D0000C2AF75C7AA75C755439604A20092AFD7
:10047D00A2AF9200C2AF75C7AA75C7555396FDA21C
:10048D000092AF8013A2AF9200C2AF75C7AA75C715
:10049D0055439608A20092AFA20092AF22AF82AE52
:1004AD0083ADF0FC900017EFF0EEA3F0EDA3F0ECB0
:1004BD00A3F0900012E0FF600FBF010302055EBFC5
:1004CD000203020609020698759850438920438756
:1004DD0080438E10A2AF9200C2AF75C7AA75C755E3
:1004ED00759100A20092AF53C4DF900017E0FCA3FA
:1004FD00E0FDA3E0FEA3E0FFEDC4CCC4540F6CCC33
:10050D00540FCC6CCCFDEEC454F04DFDEFC4CEC4F5
:10051D00540F6ECE540FCE6ECEFF900013E0F8A3A5
:10052D00E0F9A3E0FAA3E0FB90001FE8F0E9A3F0E7
:10053D00EAA3F0EBA3F08C828D838EF0EF12072FE0
:10054D00AC82AD83AEF0FFC3E49CF58DD28E020676
:10055D009875985043878053C4F8A2AF9200C2AFEC
:10056D0075C7AA75C755759100A20092AF43C420F7
:10057D00900017E0FCA3E0FDA3E0FEA3E0FFEDC4B7
:10058D00CCC4540F6CCC540FCC6CCCFDEEC454F0D9
:10059D004DFDEFC4CEC4540F6ECE540FCE6ECEFFB4
:1005AD00900013E0F8A3E0F9A3E0FAA3E0FB9000BC
:1005BD001FE8F0E9A3F0EAA3F0EBA3F08C828D83A2
:1005CD008EF0EF12072FAC82AD83AEF0FFE4C39C2B
:1005DD00F8E49DF974019EFAE49FFB89C6C3E49C7F
:1005ED00FC8CC5A2AF9200C2AF75C7AA75C7557571
:1005FD009100A20092AF43C40802069875F8507599
:10060D00C480900017E0FCA3E0FDA3E0FEA3E0FF93
:10061D00EDC4CCC4540F6CCC540FCC6CCCFDEEC4DB
:10062D0054F04DFDEFC4CEC4540F6ECE540FCE6EAC
:10063D00CEFF900013E0F8A3E0F9A3E0FAA3E0FBEE
:10064D0090001FE8F0E9A3F0EAA3F0EBA3F08C8291
:10065D008D838EF0EF12072FAC82AD83AEF0FFE4E9
:10066D00C39CF8E49DF974019EFAE49FFB89C6C30F
:10067D00E49CFC8CC5A2AF9200C2AF75C7AA75C72A
:10068D0055759100A20092AF43C40822E5829000F7
:10069D001BF090001CE4F090001BE0FF6005BF0113
:1006AD001A800D3098FD90001CE599F0C298800BD2
:1006BD0030F8FD90001CE59AF0C2F890001CE0F5B2
:1006CD008222E58290001EF0E0FF6005BF012680CA
:1006DD0011C2AC90001DE0F59910990280FBD2ACCF
:1006ED008013539CFE90001DE0F59A10F90280FBDB
:1006FD00439C01D2AF2253B1BF53B2BF900012E45D
:10070D00F0900013F074C2A3F07401A3F0E4A3F011
:10071D0090360075F06E74011204AAD299D201C2FE
:10072D00AC22AF82AE83ADF0FC900023EFF0EEA3D0
:10073D00F0EDA3F0ECA3F0900027E4F0A3F0A3F00C
:10074D00A3F090001FE0FCA3E0FDA3E0FEA3E0FFFB
:10075D007B20C003900023E0F8A3E0F9A3E0FAA307
:10076D00E0FB90002B235401F0E828F8E933F9EA77
:10077D0033FAEB33FB900023E8F0E9A3F0EAA3F0A2
:10078D00EBA3F0900027E0F8A3E0F9A3E0FAA3E0D3
:10079D00FBE828F8E933F9EA33FAEB33FB9000274D
:1007AD00E8F0E9A3F0EAA3F0EBA3F0D00390002B5F
:1007BD00E06008900027E043E001F0900027E0F5AD
:1007CD002FA3E0F530A3E0F531A3E0F532C3E52F1B
:1007DD009CE5309DE5319EE5329F401F900027E559
:1007ED002FC39CF0E5309DA3F0E5319EA3F0E532DB
:1007FD009FA3F0900023E043E001F01BEB600302A8
:10080D00075F900023E0FCA3E0FDA3E0FEA3E08CD6
:10081D00828D838EF022C02E85812E7E008E8312D6
:10082D0001ECD02E22AFF0AE83E58290002DF0EEDC
:10083D00A3F0EFA3F090002DE0FDA3E0FEA3E0FFF9
:10084D0090002CE0FC900041E4F0A3F0A3F09000A8
:10085D0044EDF0EEA3F0EFA3F0900047ECF090081C
:10086D0023020977C02EE581F52E24FBFF90004170
:10087D00E4F0A3F0A3F0E52E24FBF8900044E6F09D
:10088D0008E6A3F008E6A3F0900047EFF0900823E8
:10089D00120977D02E22E58290003DF0E0FF900006
:1008AD0033E0C0E0A3E0C0E0A3E0C0E01208BE80EA
:1008BD000D900031E0C0E0A3E0C0E08F82221581F1
:1008CD001581158190003BE02401F0A3E03400F088
:1008DD0022E58290003EF0E02430FF24C6500D74D6
:1008ED00072FFF900030E060034307208F8202083E
:1008FD00A3E58290003FF0E0FFC4540FF582C007DE
:10090D001208DED00753070F8F820208DEE58290B2
:10091D000040F0900036E0FCA3E0FDA3E0FEA3E074
:10092D00FF90003AE0FB900040E0FA79208B00E860
:10093D0028F52FEF235401452FFBEC2CFCED33FD57
:10094D00EE33FEEF33FFC3EB9A4007EBC39AFB4345
:10095D00040119E970D7900036ECF0EDA3F0EEA389
:10096D00F0EFA3F090003AEBF022AF83E582900018
:10097D0048F0EFA3F0900048E0FEA3E0FF900031B7
:10098D00EEF0EFA3F0900041E0FDA3E0FEA3E0FF49
:10099D00900033EDF0EEA3F0EFA3F090003BE4F008
:1009AD00A3F0900044E0FDA3E0FEA3E0FF8D828E56
:1009BD00838FF01212BDFC90004474012DF0E43EC3
:1009CD00A3F0EFA3F0EC7003021279BC25028003B3
:1009DD0002127190004AE4F090004BF090004CF040
:1009ED0090004DF090004EF090004FF0900050F0C0
:1009FD00900051F0900053F0900054F0A3F090004F
:100A0D005614F0A3F0900044E0FDA3E0FEA3E0FF38
:100A1D008D828E838FF01212BDFBA3AD82AE8390BB
:100A2D000044EDF0EEA3F0EFA3F090005AEBF0BB15
:100A3D0025088B821208A30209AFBB3000500302B8
:100A4D000B10EB24C65003020B10900056E0F5245A
:100A5D00A3E0F52574FFB52463B52560C005C00678
:100A6D00C007900054E0FAA3E0FF900063EAF0EFB6
:100A7D00A3F090000AC005C00312129DAE82AF8391
:100A8D00D003D0058B027D00EA2EFEED3FFFEE2454
:100A9D00D0FEEF34FFFF900054EEF0EFA3F0D0073F
:100AAD00D006D005900054E0F5F0A3E045F06003CA
:100ABD00020A1D90004B7401F0020A1DC005C0060C
:100ACD00C007900063E524F0E525A3F090000AC06F
:100ADD0006C005C00312129DAA82AF83D003D005B4
:100AED00D0067E00EB2AFAEE3FFFEA24D0FAEF346F
:100AFD00FFFF900056EAF0EFA3F0D007D006D00527
:100B0D00020A1D90005AE0FBBB2E2FC005C006C087
:100B1D0007900056E0FAA3E0FFBAFF05BFFF028081
:100B2D0009D007D006D005020A1DD007D006D00582
:100B3D00900056E4F0A3F0020A1DBB61004014EBD7
:100B4D002485400F90005A74DF5BF09000307401E3
:100B5D00F08005900030E4F090005AE0FBBB2002DD
:100B6D008075BB2B028067BB2D028059BB42028072
:100B7D006FBB4302807CBB4403020E07BB460302DE
:100B8D000E2DBB4803020A1DBB4903020E07BB4ACB
:100B9D0003020A1DBB4C028050BB4F03020E15BB56
:100BAD005003020D75BB53028077BB5403020A1D1F
:100BBD00BB5503020E1DBB5803020E25BB5A030283
:100BCD000A1D020E3590004A7401F0020A1D9000B4
:100BDD004C7401F0020A1D90004D7401F0020A1DC3
:100BED0090004F7401F0020A1D9000507401F00244
:100BFD000A1D90004FE0600E900047E014F9F09050
:100C0D00005AE7F0800F900047E024FEFFF08F01BF
:100C1D0090005AE7F090005AE0F5821208A3020EF8
:100C2D0044900047E024FDFFF08F018705098706FA
:100C3D000987071919900036EDF0EEA3F0EFA3F038
:100C4D008D828E838FF01212858582248583259067
:100C5D000056E0FAA3E0FDBAFF0DBDFF0A90005665
:100C6D00E524F0E525A3F090004AE0704B90005488
:100C7D00E0FAA3E0FDC3E5249AE5259D503A9000E6
:100C8D0054EAC39524F0ED9525A3F0900054E0FAB5
:100C9D00A3E0FD8A068D071ABAFF011DEE4F601005
:100CAD00758220C005C0021208A3D002D00580E3D2
:100CBD00900054EAF0EDA3F0900056E0F527A3E084
:100CCD00F528900036E0FAA3E0FDA3E0FF8A828DBF
:100CDD00838FF01212BDF526603CC3E49527748016
:100CED008528F063F08095F0502C152774FFB527FB
:100CFD000215288526821208A3900036E0FAA3E09B
:100D0D00FDA3E0FF0ABA00010D900036EAF0EDA355
:100D1D00F0EFA3F080AC90004AE07003020E449017
:100D2D000054E0FEA3E0FFC3E5249EE5259F4003AC
:100D3D00020E44900054EEC39524F0EF9525A3F0D8
:100D4D00900054E0FEA3E0FF8E028F051EBEFF0152
:100D5D001FEA4D7003020E3C758220C007C00612BB
:100D6D0008A3D006D00780E0900047E024FDFDF0F9
:100D7D008D01872909872A09872B1919900036E5D6
:100D8D0029F0E52AA3F0E52BA3F0900038E0FDBD96
:100D9D008000400890005A7443F08020BD600040F0
:100DAD000890005A7450F08013BD40004008900028
:100DBD005A7449F0800690005A7458F090005AE029
:100DCD00FDF582C0051208A375823A1208A375823B
:100DDD00301208A37582781208A3D005BD49028090
:100DED000EBD50028009900037E0F5821208FE908A
:100DFD000036E0F5821208FE803D90004E7401F041
:100E0D00900053740AF0802F9000537408F08027DF
:100E1D00900053740AF0801F9000537410F08017E7
:100E2D009000517401F0800F8B821208A3800890FE
:100E3D000054EEF0EFA3F0900051E0607190004788
:100E4D00E024FCFFF08F0187030987050987060958
:100E5D008707191919900036EBF0EDA3F0EEA3F00A
:100E6D00EFA3F090003674EEF07412A3F07480A32B
:100E7D00F0900036E0F529A3E0F52AA3E0F52B74F8
:100E8D00012529FAE4352AFBAF2B900036EAF0EB69
:100E9D00A3F0EFA3F0852982852A83852BF012120A
:100EAD00BDFF70030209AF8F821208A380C39000AB
:100EBD0053E070030209AF90004FE0604790004788
:100ECD00E014F9F087077E007D007B00900036EF7F
:100EDD00F0EEA3F0EDA3F0EBA3F090004EE0600375
:100EED00020F87900036E0FBA3E0A3E0A3E07D00B6
:100EFD007E007F00900036EBF0EDA3F0EEA3F0EF57
:100F0D00A3F08076900050E06028900047E024FC2C
:100F1D00FFF08F01870309870509870609870719E0
:100F2D001919900036EBF0EDA3F0EEA3F0EFA3F05E
:100F3D008048900047E024FEFFF08F018706098767
:100F4D000719EF3395E0FDFB900036EEF0EFA3F0BF
:100F5D00EDA3F0EBA3F090004EE0701E900036E094
:100F6D00FBA3E0FDA3E0A3E07E007F00900036EB45
:100F7D00F0EDA3F0EEA3F0EFA3F090004EE0604192
:100F8D00900036E0FBA3E0FDA3E0FEA3E0FF30E719
:100F9D002B900036E0FBA3E0FDA3E0FEA3E0FFC332
:100FAD00E49BFBE49DFDE49EFEE49FFF900036EB89
:100FBD00F0EDA3F0EEA3F0EFA3F0800590004EE46A
:100FCD00F09000527401F0900053E0F527752C60FD
:100FDD00752D00E4F524F52590003AE4F08527827F
:100FED0012091A900052E0703390003AE0C454F0A8
:100FFD00F52990003AE0C4540F4529F529852C8236
:10100D00852D83E0FFE5294207852C82852D83EF11
:10101D00F0152C74FFB52C02152D800C90003AE0C4
:10102D00FF852C82852D83F00524E4B5240205254A
:10103D00900052E0B40100E433F0900036E0FAA3E2
:10104D00E0FBA3E0FEA3E0FFEA4B4E4F708A900059
:10105D0061E52CF0E52DA3F0900058E524F0E52591
:10106D00A3F0900054E0F5F0A3E045F07009900076
:10107D00547401F0E4A3F090004BE0FFE070479052
:10108D00004AE0704185242C85252D900054E0FA0E
:10109D00A3E0FBC007AF2C0F8F067F00C3EE9AEFC6
:1010AD009BD0075019758220C007C003C0021208DB
:1010BD00A3D002D003D0071ABAFF011B80D5900030
:1010CD0054EAF0EBA3F090004EE0602075822DC045
:1010DD00071208A3D007900054E024FFFDA3E034CD
:1010ED00FFFE900054EDF0EEA3F08056900058E016
:1010FD00F5F0A3E045F0604A90004CE06020758269
:10110D002BC0071208A3D007900054E024FFFDA3C5
:10111D00E034FFFE900054EDF0EEA3F0802490003B
:10112D004DE0601E758220C0071208A3D007900005
:10113D0054E024FFFDA3E034FFFE900054EDF0EEEB
:10114D00A3F090004AE07048900058E0F52CA3E021
:10115D00F52D900054E0FAA3E0FBC0078A068B073B
:10116D001ABAFF011BC3E52C9EE52D9FD0075053E6
:10117D00EF60067D307E0080047D207E008D82C074
:10118D0007C003C0021208A3D002D003D00780CA43
:10119D00900054E0FEA3E0FF900058E0F52CA3E092
:1011AD00F52DC3E52C9EE52D9F500F900054EEC3F9
:1011BD00952CF0EF952DA3F08011900054E4F0A341
:1011CD00F08008900054EAF0EBA3F0900061E0FE8F
:1011DD00A3E0FF900058E0F52CA3E0F52DAA2CAD6F
:1011ED002D152C74FFB52C02152DEA4D6045900080
:1011FD0052E0B40100E433F0900052E070140EBEE2
:10120D0000010F8E828F83E0C4540FFD90003AF0E1
:10121D00800E8E828F83E0FD53050F90003AEDF026
:10122D0090003AE0F582C007C0061208DED006D065
:10123D000780AA90004AE070030209AF900054E0C5
:10124D00FEA3E0FF8E038F051EBEFF011FEB4D7049
:10125D00030209AF758220C007C0061208A3D0068D
:10126D00D00780E08C821208A30209AF90003BE00A
:10127D00FEA3E08E82F58322AA82AB831212BD609B
:10128D0003A380F8C3E5829AF582E5839BF583225B
:10129D00AA83AB828BF0900063E0A4F8A9F08AF0EA
:1012AD00E0A429F98BF0A3E0A429F58388822222FA
:1012BD0020F71430F6148883A88220F507E6A8835A
:1012CD0075830022E280F7E49322E02275820022EA
:1012DD000A2054657374207374617274202E2E2E3F
:0C12ED00003C4E4F20464C4F41543E0048
:04000003000000BA3F
:00000001FF
